{
  "contractName": "AllContract",
  "abi": [
    {
      "constant": true,
      "inputs": [],
      "name": "Availablelength",
      "outputs": [
        {
          "internalType": "uint256",
          "name": "",
          "type": "uint256"
        }
      ],
      "payable": false,
      "stateMutability": "view",
      "type": "function"
    },
    {
      "constant": true,
      "inputs": [
        {
          "internalType": "uint256",
          "name": "_ProjectID",
          "type": "uint256"
        },
        {
          "internalType": "uint256",
          "name": "_StorageEnd",
          "type": "uint256"
        }
      ],
      "name": "CalAT",
      "outputs": [
        {
          "internalType": "uint256[4]",
          "name": "",
          "type": "uint256[4]"
        }
      ],
      "payable": false,
      "stateMutability": "view",
      "type": "function"
    },
    {
      "constant": true,
      "inputs": [
        {
          "internalType": "address",
          "name": "",
          "type": "address"
        }
      ],
      "name": "DLRcheck",
      "outputs": [
        {
          "internalType": "uint256",
          "name": "",
          "type": "uint256"
        }
      ],
      "payable": false,
      "stateMutability": "view",
      "type": "function"
    },
    {
      "constant": true,
      "inputs": [
        {
          "internalType": "uint256",
          "name": "",
          "type": "uint256"
        }
      ],
      "name": "JobDays",
      "outputs": [
        {
          "internalType": "uint256",
          "name": "",
          "type": "uint256"
        }
      ],
      "payable": false,
      "stateMutability": "view",
      "type": "function"
    },
    {
      "constant": true,
      "inputs": [
        {
          "internalType": "uint256",
          "name": "_ProjectID",
          "type": "uint256"
        },
        {
          "internalType": "uint256",
          "name": "_FileSize",
          "type": "uint256"
        },
        {
          "internalType": "uint256",
          "name": "_StorageEnd",
          "type": "uint256"
        }
      ],
      "name": "Jobcomfirm",
      "outputs": [
        {
          "internalType": "uint256",
          "name": "",
          "type": "uint256"
        }
      ],
      "payable": false,
      "stateMutability": "view",
      "type": "function"
    },
    {
      "constant": true,
      "inputs": [
        {
          "internalType": "address",
          "name": "",
          "type": "address"
        }
      ],
      "name": "Jobidnow",
      "outputs": [
        {
          "internalType": "uint256",
          "name": "",
          "type": "uint256"
        }
      ],
      "payable": false,
      "stateMutability": "view",
      "type": "function"
    },
    {
      "constant": false,
      "inputs": [
        {
          "internalType": "uint256",
          "name": "_pmid",
          "type": "uint256"
        },
        {
          "internalType": "uint256",
          "name": "_jid",
          "type": "uint256"
        },
        {
          "internalType": "uint256",
          "name": "_nowdate",
          "type": "uint256"
        }
      ],
      "name": "Jobpay",
      "outputs": [],
      "payable": true,
      "stateMutability": "payable",
      "type": "function"
    },
    {
      "constant": true,
      "inputs": [
        {
          "internalType": "uint256",
          "name": "",
          "type": "uint256"
        }
      ],
      "name": "Jobpayid",
      "outputs": [
        {
          "internalType": "uint256",
          "name": "",
          "type": "uint256"
        }
      ],
      "payable": false,
      "stateMutability": "view",
      "type": "function"
    },
    {
      "constant": true,
      "inputs": [
        {
          "internalType": "address",
          "name": "",
          "type": "address"
        },
        {
          "internalType": "uint256",
          "name": "",
          "type": "uint256"
        }
      ],
      "name": "OwnJobID",
      "outputs": [
        {
          "internalType": "uint256",
          "name": "",
          "type": "uint256"
        }
      ],
      "payable": false,
      "stateMutability": "view",
      "type": "function"
    },
    {
      "constant": true,
      "inputs": [
        {
          "internalType": "address",
          "name": "",
          "type": "address"
        },
        {
          "internalType": "uint256",
          "name": "",
          "type": "uint256"
        }
      ],
      "name": "OwnProjectID",
      "outputs": [
        {
          "internalType": "uint256",
          "name": "",
          "type": "uint256"
        }
      ],
      "payable": false,
      "stateMutability": "view",
      "type": "function"
    },
    {
      "constant": true,
      "inputs": [
        {
          "internalType": "uint256",
          "name": "",
          "type": "uint256"
        },
        {
          "internalType": "uint256",
          "name": "",
          "type": "uint256"
        }
      ],
      "name": "PayResult",
      "outputs": [
        {
          "internalType": "uint256",
          "name": "",
          "type": "uint256"
        }
      ],
      "payable": false,
      "stateMutability": "view",
      "type": "function"
    },
    {
      "constant": true,
      "inputs": [
        {
          "internalType": "uint256",
          "name": "",
          "type": "uint256"
        },
        {
          "internalType": "uint256",
          "name": "",
          "type": "uint256"
        }
      ],
      "name": "ProjectOwnJobID",
      "outputs": [
        {
          "internalType": "uint256",
          "name": "",
          "type": "uint256"
        }
      ],
      "payable": false,
      "stateMutability": "view",
      "type": "function"
    },
    {
      "constant": false,
      "inputs": [
        {
          "internalType": "uint256",
          "name": "_pid",
          "type": "uint256"
        },
        {
          "internalType": "uint256",
          "name": "_jid",
          "type": "uint256"
        },
        {
          "internalType": "uint256",
          "name": "_datetime",
          "type": "uint256"
        }
      ],
      "name": "UpdateProjectOwnJob",
      "outputs": [],
      "payable": false,
      "stateMutability": "nonpayable",
      "type": "function"
    },
    {
      "constant": false,
      "inputs": [
        {
          "internalType": "uint256",
          "name": "_ProjectID",
          "type": "uint256"
        },
        {
          "internalType": "uint256",
          "name": "_FileID",
          "type": "uint256"
        },
        {
          "internalType": "uint256",
          "name": "_FileSize",
          "type": "uint256"
        },
        {
          "internalType": "string",
          "name": "_hash",
          "type": "string"
        },
        {
          "internalType": "uint256",
          "name": "_StorageStart",
          "type": "uint256"
        },
        {
          "internalType": "uint256",
          "name": "_StorageEnd",
          "type": "uint256"
        },
        {
          "internalType": "address payable",
          "name": "_Jobowner",
          "type": "address"
        }
      ],
      "name": "createJob",
      "outputs": [],
      "payable": false,
      "stateMutability": "nonpayable",
      "type": "function"
    },
    {
      "constant": false,
      "inputs": [
        {
          "internalType": "uint256",
          "name": "_ProjectType",
          "type": "uint256"
        },
        {
          "internalType": "address payable",
          "name": "_ProjectOwnerID",
          "type": "address"
        },
        {
          "internalType": "uint256",
          "name": "_Capacity",
          "type": "uint256"
        },
        {
          "internalType": "uint256",
          "name": "_Price",
          "type": "uint256"
        },
        {
          "internalType": "uint256[]",
          "name": "_ServiceTime",
          "type": "uint256[]"
        },
        {
          "internalType": "uint256",
          "name": "_ServiceEnd",
          "type": "uint256"
        },
        {
          "internalType": "uint256",
          "name": "_EndStamp",
          "type": "uint256"
        },
        {
          "internalType": "uint256",
          "name": "_Area",
          "type": "uint256"
        }
      ],
      "name": "createProject",
      "outputs": [],
      "payable": false,
      "stateMutability": "nonpayable",
      "type": "function"
    },
    {
      "constant": false,
      "inputs": [
        {
          "internalType": "string",
          "name": "_name",
          "type": "string"
        },
        {
          "internalType": "address",
          "name": "_uploader",
          "type": "address"
        },
        {
          "internalType": "string",
          "name": "_keyword",
          "type": "string"
        },
        {
          "internalType": "uint256",
          "name": "_filesize",
          "type": "uint256"
        },
        {
          "internalType": "string",
          "name": "_hash",
          "type": "string"
        },
        {
          "internalType": "uint256",
          "name": "_sharetype",
          "type": "uint256"
        },
        {
          "internalType": "address[]",
          "name": "_shareaddress",
          "type": "address[]"
        },
        {
          "internalType": "uint256",
          "name": "_cryptoid",
          "type": "uint256"
        }
      ],
      "name": "createinfo",
      "outputs": [],
      "payable": false,
      "stateMutability": "nonpayable",
      "type": "function"
    },
    {
      "constant": false,
      "inputs": [
        {
          "internalType": "uint256",
          "name": "_Price",
          "type": "uint256"
        },
        {
          "internalType": "uint256",
          "name": "_fsize",
          "type": "uint256"
        },
        {
          "internalType": "uint256",
          "name": "_tid",
          "type": "uint256"
        },
        {
          "internalType": "address payable[2]",
          "name": "_Participant",
          "type": "address[2]"
        },
        {
          "internalType": "uint256[4]",
          "name": "_AccessTime",
          "type": "uint256[4]"
        },
        {
          "internalType": "uint256",
          "name": "_StorageEnd",
          "type": "uint256"
        },
        {
          "internalType": "uint256",
          "name": "_JobStart",
          "type": "uint256"
        },
        {
          "internalType": "uint256",
          "name": "_nowdate",
          "type": "uint256"
        }
      ],
      "name": "createpayinfo",
      "outputs": [],
      "payable": false,
      "stateMutability": "nonpayable",
      "type": "function"
    },
    {
      "constant": false,
      "inputs": [
        {
          "internalType": "address payable",
          "name": "_user2",
          "type": "address"
        }
      ],
      "name": "ctestjob",
      "outputs": [],
      "payable": false,
      "stateMutability": "nonpayable",
      "type": "function"
    },
    {
      "constant": false,
      "inputs": [
        {
          "internalType": "address payable",
          "name": "_user3",
          "type": "address"
        }
      ],
      "name": "ctestlog",
      "outputs": [],
      "payable": false,
      "stateMutability": "nonpayable",
      "type": "function"
    },
    {
      "constant": false,
      "inputs": [],
      "name": "ctestpayment",
      "outputs": [],
      "payable": false,
      "stateMutability": "nonpayable",
      "type": "function"
    },
    {
      "constant": false,
      "inputs": [
        {
          "internalType": "address payable",
          "name": "_user1",
          "type": "address"
        },
        {
          "internalType": "uint256[]",
          "name": "_testat",
          "type": "uint256[]"
        }
      ],
      "name": "ctestproject",
      "outputs": [],
      "payable": false,
      "stateMutability": "nonpayable",
      "type": "function"
    },
    {
      "constant": false,
      "inputs": [
        {
          "internalType": "uint256",
          "name": "_fid",
          "type": "uint256"
        }
      ],
      "name": "deletefile",
      "outputs": [],
      "payable": false,
      "stateMutability": "nonpayable",
      "type": "function"
    },
    {
      "constant": true,
      "inputs": [
        {
          "internalType": "address",
          "name": "",
          "type": "address"
        }
      ],
      "name": "fileidnow",
      "outputs": [
        {
          "internalType": "uint256",
          "name": "",
          "type": "uint256"
        }
      ],
      "payable": false,
      "stateMutability": "view",
      "type": "function"
    },
    {
      "constant": true,
      "inputs": [
        {
          "internalType": "uint256",
          "name": "",
          "type": "uint256"
        },
        {
          "internalType": "uint256",
          "name": "",
          "type": "uint256"
        }
      ],
      "name": "fileidtolog",
      "outputs": [
        {
          "internalType": "uint256",
          "name": "",
          "type": "uint256"
        }
      ],
      "payable": false,
      "stateMutability": "view",
      "type": "function"
    },
    {
      "constant": true,
      "inputs": [],
      "name": "flength",
      "outputs": [
        {
          "internalType": "uint256",
          "name": "",
          "type": "uint256"
        }
      ],
      "payable": false,
      "stateMutability": "view",
      "type": "function"
    },
    {
      "constant": true,
      "inputs": [
        {
          "internalType": "uint256",
          "name": "_tid",
          "type": "uint256"
        }
      ],
      "name": "getAccessTime",
      "outputs": [
        {
          "internalType": "uint256[4]",
          "name": "",
          "type": "uint256[4]"
        }
      ],
      "payable": false,
      "stateMutability": "view",
      "type": "function"
    },
    {
      "constant": true,
      "inputs": [
        {
          "internalType": "uint256",
          "name": "_indexID",
          "type": "uint256"
        },
        {
          "internalType": "uint256",
          "name": "_FileSize",
          "type": "uint256"
        },
        {
          "internalType": "uint256",
          "name": "_StorageEnd",
          "type": "uint256"
        },
        {
          "internalType": "uint256",
          "name": "_Area",
          "type": "uint256"
        },
        {
          "internalType": "uint256",
          "name": "_HourNow",
          "type": "uint256"
        }
      ],
      "name": "getAvailable",
      "outputs": [
        {
          "internalType": "uint256",
          "name": "",
          "type": "uint256"
        },
        {
          "internalType": "uint256",
          "name": "",
          "type": "uint256"
        },
        {
          "internalType": "uint256",
          "name": "",
          "type": "uint256"
        },
        {
          "internalType": "uint256[]",
          "name": "",
          "type": "uint256[]"
        },
        {
          "internalType": "uint256",
          "name": "",
          "type": "uint256"
        },
        {
          "internalType": "uint256",
          "name": "",
          "type": "uint256"
        }
      ],
      "payable": false,
      "stateMutability": "view",
      "type": "function"
    },
    {
      "constant": true,
      "inputs": [
        {
          "internalType": "uint256",
          "name": "_pid",
          "type": "uint256"
        }
      ],
      "name": "getCap",
      "outputs": [
        {
          "internalType": "uint256",
          "name": "",
          "type": "uint256"
        }
      ],
      "payable": false,
      "stateMutability": "view",
      "type": "function"
    },
    {
      "constant": true,
      "inputs": [
        {
          "internalType": "uint256",
          "name": "_pid",
          "type": "uint256"
        }
      ],
      "name": "getEndStamp",
      "outputs": [
        {
          "internalType": "uint256",
          "name": "",
          "type": "uint256"
        }
      ],
      "payable": false,
      "stateMutability": "view",
      "type": "function"
    },
    {
      "constant": true,
      "inputs": [
        {
          "internalType": "uint256",
          "name": "_tid",
          "type": "uint256"
        }
      ],
      "name": "getEstablished",
      "outputs": [
        {
          "internalType": "uint256",
          "name": "",
          "type": "uint256"
        }
      ],
      "payable": false,
      "stateMutability": "view",
      "type": "function"
    },
    {
      "constant": true,
      "inputs": [
        {
          "internalType": "uint256",
          "name": "_tid",
          "type": "uint256"
        }
      ],
      "name": "getFileID",
      "outputs": [
        {
          "internalType": "uint256",
          "name": "",
          "type": "uint256"
        }
      ],
      "payable": false,
      "stateMutability": "view",
      "type": "function"
    },
    {
      "constant": true,
      "inputs": [
        {
          "internalType": "uint256",
          "name": "_tid",
          "type": "uint256"
        }
      ],
      "name": "getFileSize",
      "outputs": [
        {
          "internalType": "uint256",
          "name": "",
          "type": "uint256"
        }
      ],
      "payable": false,
      "stateMutability": "view",
      "type": "function"
    },
    {
      "constant": true,
      "inputs": [
        {
          "internalType": "uint256",
          "name": "_tid",
          "type": "uint256"
        }
      ],
      "name": "getJobProject",
      "outputs": [
        {
          "internalType": "uint256",
          "name": "",
          "type": "uint256"
        }
      ],
      "payable": false,
      "stateMutability": "view",
      "type": "function"
    },
    {
      "constant": true,
      "inputs": [
        {
          "internalType": "uint256",
          "name": "_tid",
          "type": "uint256"
        }
      ],
      "name": "getJobhash",
      "outputs": [
        {
          "internalType": "string",
          "name": "",
          "type": "string"
        }
      ],
      "payable": false,
      "stateMutability": "view",
      "type": "function"
    },
    {
      "constant": true,
      "inputs": [
        {
          "internalType": "address",
          "name": "_owner",
          "type": "address"
        }
      ],
      "name": "getOwnJobID",
      "outputs": [
        {
          "internalType": "uint256[]",
          "name": "",
          "type": "uint256[]"
        }
      ],
      "payable": false,
      "stateMutability": "view",
      "type": "function"
    },
    {
      "constant": true,
      "inputs": [
        {
          "internalType": "uint256",
          "name": "_tid",
          "type": "uint256"
        }
      ],
      "name": "getParticipant",
      "outputs": [
        {
          "internalType": "address payable[2]",
          "name": "",
          "type": "address[2]"
        }
      ],
      "payable": false,
      "stateMutability": "view",
      "type": "function"
    },
    {
      "constant": true,
      "inputs": [
        {
          "internalType": "uint256",
          "name": "_pid",
          "type": "uint256"
        }
      ],
      "name": "getPrice",
      "outputs": [
        {
          "internalType": "uint256",
          "name": "",
          "type": "uint256"
        }
      ],
      "payable": false,
      "stateMutability": "view",
      "type": "function"
    },
    {
      "constant": true,
      "inputs": [
        {
          "internalType": "uint256",
          "name": "_pid",
          "type": "uint256"
        }
      ],
      "name": "getProjectOwnJobID",
      "outputs": [
        {
          "internalType": "uint256[]",
          "name": "",
          "type": "uint256[]"
        }
      ],
      "payable": false,
      "stateMutability": "view",
      "type": "function"
    },
    {
      "constant": true,
      "inputs": [
        {
          "internalType": "uint256",
          "name": "_pid",
          "type": "uint256"
        }
      ],
      "name": "getProjectOwner",
      "outputs": [
        {
          "internalType": "address payable",
          "name": "",
          "type": "address"
        }
      ],
      "payable": false,
      "stateMutability": "view",
      "type": "function"
    },
    {
      "constant": true,
      "inputs": [
        {
          "internalType": "uint256",
          "name": "_pid",
          "type": "uint256"
        }
      ],
      "name": "getProjectType",
      "outputs": [
        {
          "internalType": "uint256",
          "name": "",
          "type": "uint256"
        }
      ],
      "payable": false,
      "stateMutability": "view",
      "type": "function"
    },
    {
      "constant": true,
      "inputs": [
        {
          "internalType": "uint256",
          "name": "_pid",
          "type": "uint256"
        }
      ],
      "name": "getRemianCap",
      "outputs": [
        {
          "internalType": "uint256",
          "name": "",
          "type": "uint256"
        }
      ],
      "payable": false,
      "stateMutability": "view",
      "type": "function"
    },
    {
      "constant": true,
      "inputs": [
        {
          "internalType": "uint256",
          "name": "_pid",
          "type": "uint256"
        }
      ],
      "name": "getServiceEnd",
      "outputs": [
        {
          "internalType": "uint256",
          "name": "",
          "type": "uint256"
        }
      ],
      "payable": false,
      "stateMutability": "view",
      "type": "function"
    },
    {
      "constant": true,
      "inputs": [
        {
          "internalType": "uint256",
          "name": "_pid",
          "type": "uint256"
        }
      ],
      "name": "getServiceTime",
      "outputs": [
        {
          "internalType": "uint256[]",
          "name": "",
          "type": "uint256[]"
        }
      ],
      "payable": false,
      "stateMutability": "view",
      "type": "function"
    },
    {
      "constant": true,
      "inputs": [
        {
          "internalType": "uint256",
          "name": "_tid",
          "type": "uint256"
        }
      ],
      "name": "getStorageEnd",
      "outputs": [
        {
          "internalType": "uint256",
          "name": "",
          "type": "uint256"
        }
      ],
      "payable": false,
      "stateMutability": "view",
      "type": "function"
    },
    {
      "constant": true,
      "inputs": [
        {
          "internalType": "uint256",
          "name": "_tid",
          "type": "uint256"
        }
      ],
      "name": "getStorageStart",
      "outputs": [
        {
          "internalType": "uint256",
          "name": "",
          "type": "uint256"
        }
      ],
      "payable": false,
      "stateMutability": "view",
      "type": "function"
    },
    {
      "constant": true,
      "inputs": [
        {
          "internalType": "uint256",
          "name": "_id",
          "type": "uint256"
        }
      ],
      "name": "getaddr",
      "outputs": [
        {
          "internalType": "address",
          "name": "",
          "type": "address"
        }
      ],
      "payable": false,
      "stateMutability": "view",
      "type": "function"
    },
    {
      "constant": true,
      "inputs": [
        {
          "internalType": "uint256",
          "name": "_id",
          "type": "uint256"
        }
      ],
      "name": "getcrypto",
      "outputs": [
        {
          "internalType": "uint256",
          "name": "",
          "type": "uint256"
        }
      ],
      "payable": false,
      "stateMutability": "view",
      "type": "function"
    },
    {
      "constant": true,
      "inputs": [
        {
          "internalType": "uint256",
          "name": "_logid",
          "type": "uint256"
        }
      ],
      "name": "getdlresult",
      "outputs": [
        {
          "internalType": "uint256",
          "name": "",
          "type": "uint256"
        }
      ],
      "payable": false,
      "stateMutability": "view",
      "type": "function"
    },
    {
      "constant": true,
      "inputs": [
        {
          "internalType": "uint256",
          "name": "_fid",
          "type": "uint256"
        }
      ],
      "name": "getfileidtolog",
      "outputs": [
        {
          "internalType": "uint256[]",
          "name": "",
          "type": "uint256[]"
        }
      ],
      "payable": false,
      "stateMutability": "view",
      "type": "function"
    },
    {
      "constant": true,
      "inputs": [
        {
          "internalType": "address",
          "name": "_owner",
          "type": "address"
        }
      ],
      "name": "getidnow",
      "outputs": [
        {
          "internalType": "uint256",
          "name": "",
          "type": "uint256"
        }
      ],
      "payable": false,
      "stateMutability": "view",
      "type": "function"
    },
    {
      "constant": true,
      "inputs": [
        {
          "internalType": "address",
          "name": "_LogUser",
          "type": "address"
        }
      ],
      "name": "getinfocrypto",
      "outputs": [
        {
          "internalType": "uint256",
          "name": "",
          "type": "uint256"
        }
      ],
      "payable": false,
      "stateMutability": "view",
      "type": "function"
    },
    {
      "constant": true,
      "inputs": [
        {
          "internalType": "address",
          "name": "_LogUser",
          "type": "address"
        }
      ],
      "name": "getinfohash",
      "outputs": [
        {
          "internalType": "string",
          "name": "",
          "type": "string"
        }
      ],
      "payable": false,
      "stateMutability": "view",
      "type": "function"
    },
    {
      "constant": true,
      "inputs": [
        {
          "internalType": "address",
          "name": "_owner",
          "type": "address"
        }
      ],
      "name": "getjobid",
      "outputs": [
        {
          "internalType": "uint256",
          "name": "",
          "type": "uint256"
        }
      ],
      "payable": false,
      "stateMutability": "view",
      "type": "function"
    },
    {
      "constant": true,
      "inputs": [
        {
          "internalType": "uint256",
          "name": "_id",
          "type": "uint256"
        }
      ],
      "name": "getkword",
      "outputs": [
        {
          "internalType": "string",
          "name": "",
          "type": "string"
        }
      ],
      "payable": false,
      "stateMutability": "view",
      "type": "function"
    },
    {
      "constant": true,
      "inputs": [
        {
          "internalType": "uint256",
          "name": "_logid",
          "type": "uint256"
        }
      ],
      "name": "getlogid",
      "outputs": [
        {
          "internalType": "uint256",
          "name": "",
          "type": "uint256"
        }
      ],
      "payable": false,
      "stateMutability": "view",
      "type": "function"
    },
    {
      "constant": true,
      "inputs": [
        {
          "internalType": "uint256",
          "name": "_logid",
          "type": "uint256"
        }
      ],
      "name": "getlogtime",
      "outputs": [
        {
          "internalType": "uint256",
          "name": "",
          "type": "uint256"
        }
      ],
      "payable": false,
      "stateMutability": "view",
      "type": "function"
    },
    {
      "constant": true,
      "inputs": [
        {
          "internalType": "uint256",
          "name": "_logid",
          "type": "uint256"
        }
      ],
      "name": "getlogtype",
      "outputs": [
        {
          "internalType": "uint256",
          "name": "",
          "type": "uint256"
        }
      ],
      "payable": false,
      "stateMutability": "view",
      "type": "function"
    },
    {
      "constant": true,
      "inputs": [
        {
          "internalType": "uint256",
          "name": "_logid",
          "type": "uint256"
        }
      ],
      "name": "getloguser",
      "outputs": [
        {
          "internalType": "address",
          "name": "",
          "type": "address"
        }
      ],
      "payable": false,
      "stateMutability": "view",
      "type": "function"
    },
    {
      "constant": true,
      "inputs": [
        {
          "internalType": "uint256",
          "name": "_id",
          "type": "uint256"
        }
      ],
      "name": "getname",
      "outputs": [
        {
          "internalType": "string",
          "name": "",
          "type": "string"
        }
      ],
      "payable": false,
      "stateMutability": "view",
      "type": "function"
    },
    {
      "constant": false,
      "inputs": [
        {
          "internalType": "address",
          "name": "_owner",
          "type": "address"
        }
      ],
      "name": "getownProject",
      "outputs": [
        {
          "internalType": "uint256[]",
          "name": "",
          "type": "uint256[]"
        }
      ],
      "payable": false,
      "stateMutability": "nonpayable",
      "type": "function"
    },
    {
      "constant": true,
      "inputs": [
        {
          "internalType": "address",
          "name": "_owner",
          "type": "address"
        }
      ],
      "name": "getownfile",
      "outputs": [
        {
          "internalType": "uint256[]",
          "name": "",
          "type": "uint256[]"
        }
      ],
      "payable": false,
      "stateMutability": "view",
      "type": "function"
    },
    {
      "constant": true,
      "inputs": [
        {
          "internalType": "uint256",
          "name": "_jid",
          "type": "uint256"
        }
      ],
      "name": "getpayment",
      "outputs": [
        {
          "internalType": "uint256",
          "name": "",
          "type": "uint256"
        }
      ],
      "payable": false,
      "stateMutability": "view",
      "type": "function"
    },
    {
      "constant": true,
      "inputs": [
        {
          "internalType": "uint256",
          "name": "_tid",
          "type": "uint256"
        }
      ],
      "name": "getpaymentresult",
      "outputs": [
        {
          "internalType": "uint256[3]",
          "name": "",
          "type": "uint256[3]"
        }
      ],
      "payable": false,
      "stateMutability": "view",
      "type": "function"
    },
    {
      "constant": true,
      "inputs": [
        {
          "internalType": "uint256",
          "name": "_jid",
          "type": "uint256"
        }
      ],
      "name": "getpmid",
      "outputs": [
        {
          "internalType": "uint256",
          "name": "",
          "type": "uint256"
        }
      ],
      "payable": false,
      "stateMutability": "view",
      "type": "function"
    },
    {
      "constant": true,
      "inputs": [
        {
          "internalType": "uint256",
          "name": "_fid",
          "type": "uint256"
        },
        {
          "internalType": "uint256",
          "name": "_t1",
          "type": "uint256"
        },
        {
          "internalType": "uint256",
          "name": "_t2",
          "type": "uint256"
        },
        {
          "internalType": "uint256",
          "name": "_day",
          "type": "uint256"
        }
      ],
      "name": "getrefundhour",
      "outputs": [
        {
          "internalType": "uint256",
          "name": "",
          "type": "uint256"
        }
      ],
      "payable": false,
      "stateMutability": "view",
      "type": "function"
    },
    {
      "constant": true,
      "inputs": [
        {
          "internalType": "uint256",
          "name": "_id",
          "type": "uint256"
        },
        {
          "internalType": "uint256",
          "name": "_index",
          "type": "uint256"
        }
      ],
      "name": "getshare",
      "outputs": [
        {
          "internalType": "address",
          "name": "",
          "type": "address"
        }
      ],
      "payable": false,
      "stateMutability": "view",
      "type": "function"
    },
    {
      "constant": true,
      "inputs": [
        {
          "internalType": "address",
          "name": "_owner",
          "type": "address"
        }
      ],
      "name": "getsharedfile",
      "outputs": [
        {
          "internalType": "uint256[]",
          "name": "",
          "type": "uint256[]"
        }
      ],
      "payable": false,
      "stateMutability": "view",
      "type": "function"
    },
    {
      "constant": true,
      "inputs": [
        {
          "internalType": "uint256",
          "name": "_id",
          "type": "uint256"
        }
      ],
      "name": "getsharetype",
      "outputs": [
        {
          "internalType": "uint256",
          "name": "",
          "type": "uint256"
        }
      ],
      "payable": false,
      "stateMutability": "view",
      "type": "function"
    },
    {
      "constant": true,
      "inputs": [
        {
          "internalType": "uint256",
          "name": "_id",
          "type": "uint256"
        }
      ],
      "name": "getsize",
      "outputs": [
        {
          "internalType": "uint256",
          "name": "",
          "type": "uint256"
        }
      ],
      "payable": false,
      "stateMutability": "view",
      "type": "function"
    },
    {
      "constant": true,
      "inputs": [
        {
          "internalType": "uint256",
          "name": "_id",
          "type": "uint256"
        }
      ],
      "name": "gettime",
      "outputs": [
        {
          "internalType": "uint256",
          "name": "",
          "type": "uint256"
        }
      ],
      "payable": false,
      "stateMutability": "view",
      "type": "function"
    },
    {
      "constant": true,
      "inputs": [
        {
          "internalType": "address",
          "name": "",
          "type": "address"
        }
      ],
      "name": "loginfonow",
      "outputs": [
        {
          "internalType": "uint256",
          "name": "",
          "type": "uint256"
        }
      ],
      "payable": false,
      "stateMutability": "view",
      "type": "function"
    },
    {
      "constant": true,
      "inputs": [],
      "name": "loglength",
      "outputs": [
        {
          "internalType": "uint256",
          "name": "",
          "type": "uint256"
        }
      ],
      "payable": false,
      "stateMutability": "view",
      "type": "function"
    },
    {
      "constant": true,
      "inputs": [
        {
          "internalType": "address",
          "name": "",
          "type": "address"
        },
        {
          "internalType": "uint256",
          "name": "",
          "type": "uint256"
        }
      ],
      "name": "ownerfile",
      "outputs": [
        {
          "internalType": "uint256",
          "name": "",
          "type": "uint256"
        }
      ],
      "payable": false,
      "stateMutability": "view",
      "type": "function"
    },
    {
      "constant": true,
      "inputs": [
        {
          "internalType": "uint256",
          "name": "_id",
          "type": "uint256"
        }
      ],
      "name": "ownerhash",
      "outputs": [
        {
          "internalType": "string",
          "name": "",
          "type": "string"
        }
      ],
      "payable": false,
      "stateMutability": "view",
      "type": "function"
    },
    {
      "constant": false,
      "inputs": [
        {
          "internalType": "address payable",
          "name": "_getter",
          "type": "address"
        }
      ],
      "name": "paybacktest",
      "outputs": [],
      "payable": true,
      "stateMutability": "payable",
      "type": "function"
    },
    {
      "constant": false,
      "inputs": [
        {
          "internalType": "uint256",
          "name": "_jid",
          "type": "uint256"
        }
      ],
      "name": "paymentcontrol",
      "outputs": [],
      "payable": false,
      "stateMutability": "nonpayable",
      "type": "function"
    },
    {
      "constant": false,
      "inputs": [
        {
          "internalType": "uint256",
          "name": "_tid",
          "type": "uint256"
        }
      ],
      "name": "paytest",
      "outputs": [],
      "payable": true,
      "stateMutability": "payable",
      "type": "function"
    },
    {
      "constant": false,
      "inputs": [
        {
          "internalType": "uint256",
          "name": "_jid",
          "type": "uint256"
        },
        {
          "internalType": "uint256",
          "name": "_nowdate",
          "type": "uint256"
        }
      ],
      "name": "preparecreate",
      "outputs": [],
      "payable": false,
      "stateMutability": "nonpayable",
      "type": "function"
    },
    {
      "constant": true,
      "inputs": [
        {
          "internalType": "uint256",
          "name": "_jid",
          "type": "uint256"
        }
      ],
      "name": "refundcal",
      "outputs": [
        {
          "internalType": "uint256",
          "name": "",
          "type": "uint256"
        }
      ],
      "payable": false,
      "stateMutability": "view",
      "type": "function"
    },
    {
      "constant": false,
      "inputs": [
        {
          "internalType": "address payable",
          "name": "_getter",
          "type": "address"
        },
        {
          "internalType": "uint256",
          "name": "_pay",
          "type": "uint256"
        }
      ],
      "name": "sendpayment",
      "outputs": [],
      "payable": true,
      "stateMutability": "payable",
      "type": "function"
    },
    {
      "constant": false,
      "inputs": [
        {
          "internalType": "address",
          "name": "_LogUser",
          "type": "address"
        },
        {
          "internalType": "uint256",
          "name": "_DLResult",
          "type": "uint256"
        }
      ],
      "name": "setDLresult",
      "outputs": [],
      "payable": false,
      "stateMutability": "nonpayable",
      "type": "function"
    },
    {
      "constant": false,
      "inputs": [
        {
          "internalType": "uint256",
          "name": "_LogFileId",
          "type": "uint256"
        },
        {
          "internalType": "address",
          "name": "_LogUser",
          "type": "address"
        }
      ],
      "name": "setdownloadlog",
      "outputs": [],
      "payable": false,
      "stateMutability": "nonpayable",
      "type": "function"
    },
    {
      "constant": false,
      "inputs": [
        {
          "internalType": "uint256[]",
          "name": "_LogFileId",
          "type": "uint256[]"
        },
        {
          "internalType": "address",
          "name": "_LogUser",
          "type": "address"
        }
      ],
      "name": "setlog",
      "outputs": [],
      "payable": false,
      "stateMutability": "nonpayable",
      "type": "function"
    },
    {
      "constant": true,
      "inputs": [
        {
          "internalType": "address",
          "name": "",
          "type": "address"
        },
        {
          "internalType": "uint256",
          "name": "",
          "type": "uint256"
        }
      ],
      "name": "sharedfile",
      "outputs": [
        {
          "internalType": "uint256",
          "name": "",
          "type": "uint256"
        }
      ],
      "payable": false,
      "stateMutability": "view",
      "type": "function"
    },
    {
      "constant": true,
      "inputs": [
        {
          "internalType": "uint256",
          "name": "",
          "type": "uint256"
        }
      ],
      "name": "testyn",
      "outputs": [
        {
          "internalType": "uint256",
          "name": "",
          "type": "uint256"
        }
      ],
      "payable": false,
      "stateMutability": "view",
      "type": "function"
    }
  ],
  "bytecode": "0x608060405234801561001057600080fd5b506158c680620000216000396000f3fe6080604052600436106104a95760003560e01c80636e1979091161026b578063a78909101161014f578063cc1c5034116100c1578063e757223011610085578063e7572230146118aa578063e9eebfc7146118d4578063f18c30491461190a578063f5c743b414611934578063f99a619e14611a0f578063fcd2f5fa14611a42576104a9565b8063cc1c5034146117cf578063d30b2f9814611802578063d36937151461182c578063da0a82951461185c578063de57e9b714611871576104a9565b8063bc34cd6211610113578063bc34cd6214611617578063bef90ade1461164d578063c12ced0c14611680578063c54e7f3c146116bc578063c68de856146116f5578063cbfb9dd414611796576104a9565b8063a7890910146114cb578063ad93b23b146114f5578063af535a63146115ae578063b38770eb146115c3578063b63453ae146115ed576104a9565b806383cb313f116101e857806395839f42116101ac57806395839f42146113bd57806395a7a544146113f05780639bfdb269146114235780639f1bb0691461144d578063a0f76f7314611477578063a4de3bc3146114a1576104a9565b806383cb313f1461125757806385e47c9f146112815780638ce0cc14146112ab57806392256aec146112d5578063937b4826146112ff576104a9565b8063774ddf1b1161022f578063774ddf1b146111775780637a6bde7b146111a15780637a98ba1c146111ca5780637fa7dcb7146111fa5780638174f4071461122d576104a9565b80636e1979091461100157806373d48b631461103157806374c626ec146110ea57806375112cbb1461111457806375a1a8e314611147576104a9565b806344a8d93f116103925780635b60eaf61161030f57806360cdb0ff116102d357806360cdb0ff14610ed85780636405672b14610f025780636517354314610f2c5780636957b1a914610f5f57806369d4437114610f8f5780636b29aa3514610fc2576104a9565b80635b60eaf614610e135780635e58c19614610e3d5780635ec8bbc814610e5a5780635f0f38bb14610e6f578063603c882e14610e99576104a9565b80634b4249e1116103565780634b4249e114610b195780634c7ee85414610b435780634d41c63e14610b735780634dada7b314610b88578063520f774114610de9576104a9565b806344a8d93f14610a015780634850362a14610a3457806348fa728c14610a6d5780634a176ba514610aa05780634a8a26df14610ae6576104a9565b8063223b0af31161042b5780632b56a4ad116103ef5780632b56a4ad146108435780632c0bca911461091b57806330ec7e3d14610945578063314b5c0a1461097e5780633843a70b146109a45780634300f9ca146109ce576104a9565b8063223b0af3146107685780632249c7c114610792578063276b08c3146107bc57806327aefd69146107ef57806329a3582414610819576104a9565b806317aaa74e1161047257806317aaa74e146106575780631b9db2ef146106815780631d4fa6df146106e65780631eecd2531461071057806320442bd21461073a576104a9565b80627a2138146104ae5780630202ace1146104ea5780630f95a3db14610589578063117c705c146105b3578063174113de1461062d575b600080fd5b3480156104ba57600080fd5b506104d8600480360360208110156104d157600080fd5b5035611a7b565b60408051918252519081900360200190f35b3480156104f657600080fd5b506105146004803603602081101561050d57600080fd5b5035611aa3565b6040805160208082528351818301528351919283929083019185019080838360005b8381101561054e578181015183820152602001610536565b50505050905090810190601f16801561057b5780820380516001836020036101000a031916815260200191505b509250505060405180910390f35b34801561059557600080fd5b506104d8600480360360208110156105ac57600080fd5b5035611b51565b3480156105bf57600080fd5b506105dd600480360360208110156105d657600080fd5b5035611b78565b60408051602080825283518183015283519192839290830191858101910280838360005b83811015610619578181015183820152602001610601565b505050509050019250505060405180910390f35b34801561063957600080fd5b506104d86004803603602081101561065057600080fd5b5035611bd9565b34801561066357600080fd5b506104d86004803603602081101561067a57600080fd5b5035611c01565b34801561068d57600080fd5b506106ab600480360360208110156106a457600080fd5b5035611c28565b6040518082600260200280838360005b838110156106d35781810151838201526020016106bb565b5050505090500191505060405180910390f35b3480156106f257600080fd5b506104d86004803603602081101561070957600080fd5b5035611c8c565b34801561071c57600080fd5b506105146004803603602081101561073357600080fd5b5035611cb4565b6107666004803603604081101561075057600080fd5b506001600160a01b038135169060200135611d2e565b005b34801561077457600080fd5b506104d86004803603602081101561078b57600080fd5b5035611d69565b34801561079e57600080fd5b506104d8600480360360208110156107b557600080fd5b5035611d91565b3480156107c857600080fd5b506104d8600480360360208110156107df57600080fd5b50356001600160a01b0316611db9565b3480156107fb57600080fd5b506104d86004803603602081101561081257600080fd5b5035611dcb565b34801561082557600080fd5b506104d86004803603602081101561083c57600080fd5b5035611df3565b34801561084f57600080fd5b50610766600480360360e081101561086657600080fd5b81359160208101359160408201359190810190608081016060820135600160201b81111561089357600080fd5b8201836020820111156108a557600080fd5b803590602001918460018302840111600160201b831117156108c657600080fd5b91908080601f01602080910402602001604051908101604052809392919081815260200183838082843760009201919091525092955050823593505050602081013590604001356001600160a01b0316611e02565b34801561092757600080fd5b506104d86004803603602081101561093e57600080fd5b5035611fef565b34801561095157600080fd5b506107666004803603604081101561096857600080fd5b506001600160a01b03813516906020013561209a565b6107666004803603602081101561099457600080fd5b50356001600160a01b031661211d565b3480156109b057600080fd5b506104d8600480360360208110156109c757600080fd5b503561215a565b3480156109da57600080fd5b506104d8600480360360208110156109f157600080fd5b50356001600160a01b031661216c565b348015610a0d57600080fd5b506105dd60048036036020811015610a2457600080fd5b50356001600160a01b0316612187565b348015610a4057600080fd5b506104d860048036036040811015610a5757600080fd5b506001600160a01b0381351690602001356121f1565b348015610a7957600080fd5b506105dd60048036036020811015610a9057600080fd5b50356001600160a01b031661221f565b348015610aac57600080fd5b50610aca60048036036020811015610ac357600080fd5b5035612289565b604080516001600160a01b039092168252519081900360200190f35b348015610af257600080fd5b506104d860048036036020811015610b0957600080fd5b50356001600160a01b03166122ba565b348015610b2557600080fd5b506104d860048036036020811015610b3c57600080fd5b50356122cc565b348015610b4f57600080fd5b50610aca60048036036040811015610b6657600080fd5b50803590602001356122f4565b348015610b7f57600080fd5b50610766612343565b348015610b9457600080fd5b506107666004803603610100811015610bac57600080fd5b810190602081018135600160201b811115610bc657600080fd5b820183602082011115610bd857600080fd5b803590602001918460018302840111600160201b83111715610bf957600080fd5b91908080601f01602080910402602001604051908101604052809392919081815260200183838082843760009201919091525092956001600160a01b03853516959094909350604081019250602001359050600160201b811115610c5c57600080fd5b820183602082011115610c6e57600080fd5b803590602001918460018302840111600160201b83111715610c8f57600080fd5b91908080601f01602080910402602001604051908101604052809392919081815260200183838082843760009201919091525092958435959094909350604081019250602001359050600160201b811115610ce957600080fd5b820183602082011115610cfb57600080fd5b803590602001918460018302840111600160201b83111715610d1c57600080fd5b91908080601f01602080910402602001604051908101604052809392919081815260200183838082843760009201919091525092958435959094909350604081019250602001359050600160201b811115610d7657600080fd5b820183602082011115610d8857600080fd5b803590602001918460208302840111600160201b83111715610da957600080fd5b91908080602002602001604051908101604052809392919081815260200183836020028082843760009201919091525092955050913592506125b7915050565b348015610df557600080fd5b506104d860048036036020811015610e0c57600080fd5b50356129d3565b348015610e1f57600080fd5b506104d860048036036020811015610e3657600080fd5b50356129fb565b61076660048036036020811015610e5357600080fd5b5035612a0d565b348015610e6657600080fd5b506104d8612a21565b348015610e7b57600080fd5b506105dd60048036036020811015610e9257600080fd5b5035612a28565b348015610ea557600080fd5b50610ec360048036036020811015610ebc57600080fd5b5035612a88565b604051815181528082608080838360206106bb565b348015610ee457600080fd5b506104d860048036036020811015610efb57600080fd5b5035612ae3565b348015610f0e57600080fd5b5061076660048036036020811015610f2557600080fd5b5035612b0a565b348015610f3857600080fd5b506105dd60048036036020811015610f4f57600080fd5b50356001600160a01b0316612c76565b348015610f6b57600080fd5b50610ec360048036036040811015610f8257600080fd5b5080359060200135612ce0565b348015610f9b57600080fd5b506105dd60048036036020811015610fb257600080fd5b50356001600160a01b0316612db4565b348015610fce57600080fd5b50610fec60048036036020811015610fe557600080fd5b5035612e1e565b604051815181528082606080838360206106bb565b34801561100d57600080fd5b506104d86004803603604081101561102457600080fd5b5080359060200135612e71565b34801561103d57600080fd5b506107666004803603604081101561105457600080fd5b810190602081018135600160201b81111561106e57600080fd5b82018360208201111561108057600080fd5b803590602001918460208302840111600160201b831117156110a157600080fd5b919080806020026020016040519081016040528093929190818152602001838360200280828437600092019190915250929550505090356001600160a01b03169150612e8a9050565b3480156110f657600080fd5b506107666004803603602081101561110d57600080fd5b5035612ffc565b34801561112057600080fd5b506104d86004803603602081101561113757600080fd5b50356001600160a01b03166130ca565b34801561115357600080fd5b506107666004803603604081101561116a57600080fd5b50803590602001356130dc565b34801561118357600080fd5b506105dd6004803603602081101561119a57600080fd5b503561315e565b610766600480360360608110156111b757600080fd5b50803590602081013590604001356131d2565b3480156111d657600080fd5b506104d8600480360360408110156111ed57600080fd5b5080359060200135613217565b34801561120657600080fd5b506104d86004803603602081101561121d57600080fd5b50356001600160a01b0316613239565b34801561123957600080fd5b506104d86004803603602081101561125057600080fd5b503561324b565b34801561126357600080fd5b506105146004803603602081101561127a57600080fd5b5035613273565b34801561128d57600080fd5b506104d8600480360360208110156112a457600080fd5b5035613322565b3480156112b757600080fd5b506104d8600480360360208110156112ce57600080fd5b503561334a565b3480156112e157600080fd5b50610aca600480360360208110156112f857600080fd5b503561335c565b34801561130b57600080fd5b506107666004803603604081101561132257600080fd5b6001600160a01b038235169190810190604081016020820135600160201b81111561134c57600080fd5b82018360208201111561135e57600080fd5b803590602001918460208302840111600160201b8311171561137f57600080fd5b91908080602002602001604051908101604052809392919081815260200183836020028082843760009201919091525092955061336b945050505050565b3480156113c957600080fd5b50610766600480360360208110156113e057600080fd5b50356001600160a01b0316613548565b3480156113fc57600080fd5b506105146004803603602081101561141357600080fd5b50356001600160a01b03166139f0565b34801561142f57600080fd5b506104d86004803603602081101561144657600080fd5b5035613a44565b34801561145957600080fd5b506104d86004803603602081101561147057600080fd5b5035613a52565b34801561148357600080fd5b506105146004803603602081101561149a57600080fd5b5035613a7a565b3480156114ad57600080fd5b506104d8600480360360208110156114c457600080fd5b5035613af6565b3480156114d757600080fd5b506104d8600480360360208110156114ee57600080fd5b5035613b2d565b34801561150157600080fd5b50611537600480360360a081101561151857600080fd5b5080359060208101359060408101359060608101359060800135613b3f565b6040518087815260200186815260200185815260200180602001848152602001838152602001828103825285818151815260200191508051906020019060200280838360005b8381101561159557818101518382015260200161157d565b5050505090500197505050505050505060405180910390f35b3480156115ba57600080fd5b506104d8613cd0565b3480156115cf57600080fd5b506104d8600480360360208110156115e657600080fd5b5035613cd6565b3480156115f957600080fd5b506104d86004803603602081101561161057600080fd5b5035613cfe565b34801561162357600080fd5b506107666004803603606081101561163a57600080fd5b5080359060208101359060400135613d26565b34801561165957600080fd5b506104d86004803603602081101561167057600080fd5b50356001600160a01b0316613e24565b34801561168c57600080fd5b506104d8600480360360808110156116a357600080fd5b5080359060208101359060408101359060600135613e3f565b3480156116c857600080fd5b506104d8600480360360408110156116df57600080fd5b506001600160a01b03813516906020013561426f565b34801561170157600080fd5b50610766600480360361018081101561171957600080fd5b60408051808201825283359360208101359383820135939082019260a083019160608401906002908390839080828437600092019190915250506040805160808181019092529295949381810193925090600490839083908082843760009201919091525091945050813592505060208101359060400135614288565b3480156117a257600080fd5b50610766600480360360408110156117b957600080fd5b50803590602001356001600160a01b03166143f2565b3480156117db57600080fd5b506104d8600480360360208110156117f257600080fd5b50356001600160a01b0316614578565b34801561180e57600080fd5b506104d86004803603602081101561182557600080fd5b50356145bd565b34801561183857600080fd5b506104d86004803603604081101561184f57600080fd5b50803590602001356145e5565b34801561186857600080fd5b506104d86145fe565b34801561187d57600080fd5b506104d86004803603604081101561189457600080fd5b506001600160a01b038135169060200135614604565b3480156118b657600080fd5b506104d8600480360360208110156118cd57600080fd5b503561461d565b3480156118e057600080fd5b506104d8600480360360608110156118f757600080fd5b508035906020810135906040013561462c565b34801561191657600080fd5b50610aca6004803603602081101561192d57600080fd5b503561466c565b34801561194057600080fd5b50610766600480360361010081101561195857600080fd5b8135916001600160a01b036020820135169160408201359160608101359181019060a081016080820135600160201b81111561199357600080fd5b8201836020820111156119a557600080fd5b803590602001918460208302840111600160201b831117156119c657600080fd5b919080806020026020016040519081016040528093929190818152602001838360200280828437600092019190915250929550508235935050506020810135906040013561469e565b348015611a1b57600080fd5b5061076660048036036020811015611a3257600080fd5b50356001600160a01b0316614a7c565b348015611a4e57600080fd5b506104d860048036036040811015611a6557600080fd5b506001600160a01b038135169060200135614f6f565b600060088281548110611a8a57fe5b9060005260206000209060090201600701549050919050565b606060008281548110611ab257fe5b6000918252602091829020600990910201805460408051601f6002600019610100600187161502019094169390930492830185900485028101850190915281815292830182828015611b455780601f10611b1a57610100808354040283529160200191611b45565b820191906000526020600020905b815481529060010190602001808311611b2857829003601f168201915b50505050509050919050565b6000808281548110611b5f57fe5b9060005260206000209060090201600401549050919050565b6000818152600e6020908152604091829020805483518184028101840190945280845260609392830182828015611b4557602002820191906000526020600020905b815481526020019060010190808311611bba5750505050509050919050565b6000600b8281548110611be857fe5b90600052602060002090600d0201600301549050919050565b6000808281548110611c0f57fe5b9060005260206000209060090201600601549050919050565b611c30615457565b600b8281548110611c3d57fe5b60009182526020909120604080518082019182905292600d029091016001019060029082845b81546001600160a01b03168152600190910190602001808311611c635750505050509050919050565b600060048281548110611c9b57fe5b9060005260206000209060050201600201549050919050565b6060600b8281548110611cc357fe5b60009182526020918290206005600d9092020101805460408051601f6002600019610100600187161502019094169390930492830185900485028101850190915281815292830182828015611b455780601f10611b1a57610100808354040283529160200191611b45565b6040516001600160a01b0383169082156108fc029083906000818181858888f19350505050158015611d64573d6000803e3d6000fd5b505050565b600060088281548110611d7857fe5b9060005260206000209060090201600301549050919050565b600060088281548110611da057fe5b9060005260206000209060090201600201549050919050565b60036020526000908152604090205481565b6000600b8281548110611dda57fe5b90600052602060002090600d0201600001549050919050565b600060088281548110611c0f57fe5b6000611e0f88878561462c565b905080600114611e1e57600080fd5b611e26615475565b611e308985612ce0565b90506000611e3d8a61335c565b9050611e47615457565b506040805180820182526001600160a01b03808716825283166020808301919091528251610120810184528d81529081018281529281018c9052606081018b9052608081018a905260a0810189905260c0810188905260e0810185905260006101008201819052600b805460018181018084559284528451600d9092027f0175b7a638427703f0dbe7bb9bbf987a2551717b34e79f33b5b1008d1fa01db9810192835596519596939590949293611f24917f0175b7a638427703f0dbe7bb9bbf987a2551717b34e79f33b5b1008d1fa01dba909101906002615493565b50604082015160038201556060820151600482015560808201518051611f549160058401916020909101906154eb565b5060a0820151600682015560c0820151600782015560e0820151611f7e9060088301906004615565565b506101009190910151600c918201556001600160a01b0389166000818152602092835260408082209590940394859055600d83529283208054600181018255818552928420909201849055909152805491925090611fdf9082908190615592565b5050505050505050505050505050565b600080611ffb83611bd9565b9050600061200884611dcb565b9050612012615475565b61201b85612a88565b90506000612028866122cc565b6000878152601260205260408120549192506120438561461d565b8451602086015191925060009161205c91899186613e3f565b606086015160408701519192506000911461208a5760408601516060870151612087918a9187613e3f565b90505b0102909102945050505050919050565b6001600160a01b0382166000908152600760205260409020546001146120bf57600080fd5b6001600160a01b03821660009081526006602052604081205460048054919291839081106120e957fe5b60009182526020808320600460059093020191909101949094556001600160a01b0390941684525050600790526040812055565b6040516001600160a01b03821690600090670de0b6b3a76400009082818181858883f19350505050158015612156573d6000803e3d6000fd5b5050565b60126020526000908152604090205481565b6001600160a01b03166000908152600c602052604090205490565b6001600160a01b038116600090815260016020908152604091829020805483518184028101840190945280845260609392830182828015611b455760200282019190600052602060002090815481526020019060010190808311611bba5750505050509050919050565b600a602052816000526040600020818154811061220a57fe5b90600052602060002001600091509150505481565b6001600160a01b0381166000908152600d6020908152604091829020805483518184028101840190945280845260609392830182828015611b455760200282019190600052602060002090815481526020019060010190808311611bba5750505050509050919050565b600080828154811061229757fe5b60009182526020909120600990910201600101546001600160a01b031692915050565b60076020526000908152604090205481565b6000600b82815481106122db57fe5b90600052602060002090600d0201600401549050919050565b6000806000848154811061230457fe5b90600052602060002090600902019050600081600701848154811061232557fe5b6000918252602090912001546001600160a01b031695945050505050565b61234b615457565b6123556000611c28565b6040805160608101825260008082526020820184815261043893830193909352600f8054600181018083559183528351600490910260008051602061587283398151915281019182559451959650919490936123c591600080516020615824833981519152909101906002615493565b50604091820151600390910155805160608101825260018082526020820186815261043893830193909352600f8054918201808255600091825283516004909302600080516020615872833981519152810193845594519596509094909361244191600080516020615824833981519152909101906002615493565b50604091820151600390910155805160608101825260028082526020820187815261043893830193909352600f805460018101808355600092835284516004909202600080516020615872833981519152810192835595519697509195919490926124bf926000805160206158248339815191529092019190615493565b5060409190910151600390910155505060007f6e0956cda88cad152e89927e53611735b61a5c762d1428573c6931b0a5efcb0181905560017f8c6065603763fec3f5742441d3833f3f43b982453612d76adb39a885e3006b5f5560027f853b2fefe141400fef543280f93d98bd49996069f632d0d20236afeeed8e46a2819055601260205260087f7e7fa33969761a458e04f477e039a608702b4f924981d6653935a8319a08ad7b8190557f71a67924699a20698523213e55fe499d539379d7769cd5567e2c45d583f815a381905591527f8e1fee8c88a9e04123b21e90cae2727a7715bf522a1e46eb5934ccd05203a6b255505050565b60408051610120810182528981526001600160a01b03891660208083019190915291810188905242606082018190526080820188905260a0820187905260c0820186905260e08201859052610100820184905260008054600181810180845583805285518051959794969295919492936009027f290decd9548b62a8d60345a988386fc84ba6bc95484008f6362f93160ef3e563019261265c928492909101906154eb565b506020828101516001830180546001600160a01b0319166001600160a01b039092169190911790556040830151805161269b92600285019201906154eb565b50606082015160038201556080820151600482015560a082015180516126cb9160058401916020909101906154eb565b5060c0820151600682015560e082015180516126f19160078401916020909101906155d2565b5061010091909101516008909101556001600160a01b038b166000818152600160208181526040832080549283018155808452908320959094039401849055528054919250906127449082908190615592565b5085600314156129ab578460018151811061275b57fe5b60200260200101516001600160a01b03168a6001600160a01b031614612816576000600260008760018151811061278e57fe5b6020908102919091018101516001600160a01b031682528181019290925260400160009081208054600181810183558284529383200186905588519093508392600292918a919081106127dd57fe5b60200260200101516001600160a01b03166001600160a01b03168152602001908152602001600020908054612813929190615592565b50505b8460028151811061282357fe5b60200260200101516001600160a01b03168a6001600160a01b0316146128e0576000600260008760028151811061285657fe5b6020908102919091018101516001600160a01b03168252818101929092526040016000908120805460018101825581835292822090920185905587519192508291600291908990839081106128a757fe5b60200260200101516001600160a01b03166001600160a01b031681526020019081526020016000209080546128dd929190615592565b50505b846003815181106128ed57fe5b60200260200101516001600160a01b03168a6001600160a01b0316146129ab576000600260008760038151811061292057fe5b6020908102919091018101516001600160a01b03168252818101929092526040016000908120805460018101825581835292822090920185905587519192508291600291908990600390811061297257fe5b60200260200101516001600160a01b03166001600160a01b031681526020019081526020016000209080546129a8929190615592565b50505b506001600160a01b039098166000908152600360205260409020979097555050505050505050565b6000600882815481106129e257fe5b9060005260206000209060090201600001549050919050565b60136020526000908152604090205481565b600090815260136020526040902060019055565b6004545b90565b600081815260056020908152604091829020805483518184028101840190945280845260609392830182828015611b455760200282019190600052602060002090815481526020019060010190808311611bba5750505050509050919050565b612a90615475565b600b8281548110612a9d57fe5b6000918252602091829020604080516080810191829052600d9093029091016008810180548452929360049291600901908501808311611bba5750505050509050919050565b6000808281548110612af157fe5b9060005260206000209060090201600801549050919050565b600081815260106020526040812054600f80549091908110612b2857fe5b90600052602060002090600402019050612b40615626565b6000838152601060209081526040808320548352601190915290819020815160608101928390529160039082845b815481526020019060010190808311612b6e5750505050509050600082600301549050612b99615457565b604080518082019182905290600186019060029082845b81546001600160a01b03168152600190910190602001808311612bb057505050505090506000612bdf8661324b565b9050428110612bed57600080fd5b8351612c6e576000612bfe87611fef565b835190915081850390612c119083611d2e565b6020840151612c209082611d2e565b612c28615626565b506040805160608101825260018152602080820185905281830184905260008b815260108252838120548152601190915291909120612c6990826003615644565b505050505b505050505050565b6001600160a01b038116600090815260026020908152604091829020805483518184028101840190945280845260609392830182828015611b455760200282019190600052602060002090815481526020019060010190808311611bba5750505050509050919050565b612ce8615475565b6060612cf38461315e565b9050600081600081518110612d0457fe5b6020026020010151610e1002620151808503019050600082600181518110612d2857fe5b6020026020010151610e1002620151808603019050600083600281518110612d4c57fe5b6020026020010151610e1002620151808703019050600084600381518110612d7057fe5b6020026020010151610e1002620151808803019050612d8d615475565b50604080516080810182529485526020850193909352918301526060820152949350505050565b6001600160a01b0381166000908152600a6020908152604091829020805483518184028101840190945280845260609392830182828015611b455760200282019190600052602060002090815481526020019060010190808311611bba5750505050509050919050565b612e26615626565b6000828152601060209081526040808320548352601182529182902082516060810193849052815481529290916003919060018401908501808311611bba5750505050509050919050565b6005602052816000526040600020818154811061220a57fe5b4260005b6005811015612ff657838181518110612ea357fe5b602002602001015160011415612fee576000600160046040518060a00160405280888660050181518110612ed357fe5b60209081029190910181015182526001600160a01b038981168383015260408084018a9052600160608086018290526000608096870181905288548084018a5598815285812088516005808c029092019081559689015187850180546001600160a01b03191691909716179095559287015160028601558601516003850155949093015160049092019190915589519490930390910193509182908890868401908110612f7c57fe5b6020908102919091018101518252818101929092526040016000908120805460018101825581835292822090920184905587519192508291600591908990878401908110612fc657fe5b60200260200101518152602001908152602001600020908054612fea929190615592565b5050505b600101612e8e565b50505050565b600080828154811061300a57fe5b6000918252602090912060099091020160018101549091506001600160a01b0316331461303657600080fd5b6000828154811061304357fe5b6000918252602082206009909102019061305d8282615671565b6001820180546001600160a01b031916905561307d600283016000615671565b6003820160009055600482016000905560058201600061309d9190615671565b60068201600090556007820160006130b591906156b8565b50600060089190910181905560069091015550565b60066020526000908152604090205481565b60006130e783611dcb565b905060006130f48261461d565b90506000613101856122cc565b905061310b615457565b61311486611c28565b905061311e615475565b61312787612a88565b905060006131348861324b565b9050600061314189613322565b905061315386868b878787878f614288565b505050505050505050565b60606008828154811061316d57fe5b9060005260206000209060090201600501805480602002602001604051908101604052809291908181526020018280548015611b455760200282019190600052602060002090815481526020019060010190808311611bba5750505050509050919050565b6000600f84815481106131e157fe5b9060005260206000209060040201905060008160030154905080341461320657600080fd5b6132108484614f88565b5050505050565b6011602052816000526040600020816003811061323057fe5b01549150829050565b600c6020526000908152604090205481565b6000600b828154811061325a57fe5b90600052602060002090600d0201600701549050919050565b60606000828154811061328257fe5b60009182526020909120600990910201600101546001600160a01b031633146132aa57600080fd5b600082815481106132b757fe5b6000918252602091829020600560099092020101805460408051601f6002600019610100600187161502019094169390930492830185900485028101850190915281815292830182828015611b455780601f10611b1a57610100808354040283529160200191611b45565b6000600b828154811061333157fe5b90600052602060002090600d0201600601549050919050565b60009081526010602052604090205490565b60006008828154811061229757fe5b604080516101208101825260028082526001600160a01b0385811660208085019182526103e89585019586526103ca606086019081526080860194855260a086018881526301348bf860c0880152636328920060e0880152600161010088018190526008805480830180835560009283528a517ff3f7a9fe364faab93b216da50a3214154f22a0a2b415b23a84c8169e8b636ee3600990930292830190815597517ff3f7a9fe364faab93b216da50a3214154f22a0a2b415b23a84c8169e8b636ee4830180546001600160a01b03191691909a161790985599517ff3f7a9fe364faab93b216da50a3214154f22a0a2b415b23a84c8169e8b636ee58b015592517ff3f7a9fe364faab93b216da50a3214154f22a0a2b415b23a84c8169e8b636ee68a015595517ff3f7a9fe364faab93b216da50a3214154f22a0a2b415b23a84c8169e8b636ee78901555180519197959694956134ef937ff3f7a9fe364faab93b216da50a3214154f22a0a2b415b23a84c8169e8b636ee8909101929101906156d6565b5060c0820151600682015560e08201516007820155610100909101516008909101556040805160208082018352939092038083526001600160a01b0387166000908152600a9094529220919250612ff6919060016156d6565b6000600160046040518060a0016040528060008152602001856001600160a01b031681526020016363143ee08152602001600281526020016001815250908060018154018082558091505090600182039060005260206000209060050201600090919290919091506000820151816000015560208201518160010160006101000a8154816001600160a01b0302191690836001600160a01b0316021790555060408201518160020155606082015181600301556080820151816004015550500390506000600160046040518060a0016040528060008152602001866001600160a01b0316815260200163631445e88152602001600281526020016002815250908060018154018082558091505090600182039060005260206000209060050201600090919290919091506000820151816000015560208201518160010160006101000a8154816001600160a01b0302191690836001600160a01b0316021790555060408201518160020155606082015181600301556080820151816004015550500390506000600160046040518060a0016040528060008152602001876001600160a01b0316815260200163631574408152602001600281526020016001815250908060018154018082558091505090600182039060005260206000209060050201600090919290919091506000820151816000015560208201518160010160006101000a8154816001600160a01b0302191690836001600160a01b0316021790555060408201518160020155606082015181600301556080820151816004015550500390506000600160046040518060a0016040528060008152602001886001600160a01b0316815260200163631582508152602001600281526020016002815250908060018154018082558091505090600182039060005260206000209060050201600090919290919091506000820151816000015560208201518160010160006101000a8154816001600160a01b0302191690836001600160a01b0316021790555060408201518160020155606082015181600301556080820151816004015550500390506000600160046040518060a0016040528060008152602001896001600160a01b03168152602001636316b7b08152602001600281526020016002815250908060018154018082558091505090600182039060005260206000209060050201600090919290919091506000820151816000015560208201518160010160006101000a8154816001600160a01b0302191690836001600160a01b0316021790555060408201518160020155606082015181600301556080820151816004015550500390506040518060400160405280600060ff168152602001600160ff1681525060056000808152602001908152602001600020906002613950929190615710565b50604080518082019091526002808252600360208084019190915260016000526005905261399f917f1471eb6eb2c5e789fc3de43f8ce62938c7d1836ec861730447e2ada8fd81017b91615710565b5060408051602080820190925260048152600260005260059091526139e7907f89832631fb3c3307a103ba2c84ab569c64d6182a18893dcd163f0f1c2090733a906001615710565b50505050505050565b6001600160a01b03811660009081526006602052604081205460048054606093919083908110613a1c57fe5b90600052602060002090600502016000015490506060613a3b8261504b565b95945050505050565b6000808281548110611d7857fe5b600060048281548110613a6157fe5b9060005260206000209060050201600401549050919050565b606060008281548110613a8957fe5b600091825260209182902060026009909202018101805460408051601f600019610100600186161502019093169490940491820185900485028401850190528083529192909190830182828015611b455780601f10611b1a57610100808354040283529160200191611b45565b600081815260106020526040812054600f80549091908110613b1457fe5b9060005260206000209060040201600301549050919050565b60106020526000908152604090205481565b60008060006060600080600060098c81548110613b5857fe5b906000526020600020906006020190508a81600101541015613b7957600080fd5b8981600401541015613b8a57600080fd5b88816005015414613b9a57600080fd5b600080905081600301600081548110613baf57fe5b90600052602060002001548910158015613be3575081600301600181548110613bd457fe5b90600052602060002001548911155b15613bec575060015b81600301600281548110613bfc57fe5b90600052602060002001548910158015613c30575081600301600381548110613c2157fe5b90600052602060002001548911155b15613c39575060015b80600114613c4657600080fd5b816000015482600101548360020154846003018560040154866005015482805480602002602001604051908101604052809291908181526020018280548015613cae57602002820191906000526020600020905b815481526020019060010190808311613c9a575b5050505050925097509750975097509750975050509550955095509550955095565b60005490565b6000600b8281548110613ce557fe5b90600052602060002090600d0201600c01549050919050565b600060048281548110613d0d57fe5b9060005260206000209060050201600001549050919050565b6000613d31836122cc565b6000858152600e60205260408120919250805b8254811015613df05785838281548110613d5a57fe5b90600052602060002001541415613de857805b835460001901811015613db457838160010181548110613d8957fe5b9060005260206000200154848281548110613da057fe5b600091825260209091200155600101613d6d565b50825483906000198101908110613dc757fe5b60009182526020822001558254613de2846000198301615750565b50600191505b600101613d44565b508060011415612c6e576000868152600e602052604090208254613e1691908490615592565b50612c6e868460028761505a565b6001600160a01b031660009081526003602052604090205490565b600084815260056020526040812062015180830280860390850383805b8454811015614262576004858281548110613e7357fe5b906000526020600020015481548110613e8857fe5b9060005260206000209060050201600401546002141561425a5760008080805b8a60010181101561424e57806201518002880160048a8781548110613ec957fe5b906000526020600020015481548110613ede57fe5b90600052602060002090600502016002015410158015613f395750806201518002870160048a8781548110613f0f57fe5b906000526020600020015481548110613f2457fe5b90600052602060002090600502016002015411155b156142465760009350610e1088880304925060015b83600101811015613fb55780610e10028262015180028a010160048b8881548110613f7557fe5b906000526020600020015481548110613f8a57fe5b9060005260206000209060050201600201541015613fad57600019019150600183015b600101613f4e565b508415801590613ffc57506004896001870381548110613fd157fe5b906000526020600020015481548110613fe657fe5b9060005260206000209060050201600401546001145b156140cd5760015b836001018110156140cb57816201518002890160048b600189038154811061402857fe5b90600052602060002001548154811061403d57fe5b906000526020600020906005020160020154101580156140a0575080610e10028262015180028a010160048b600189038154811061407757fe5b90600052602060002001548154811061408c57fe5b906000526020600020906005020160020154105b156140c35760001981019450828514156140bd5760009450600093505b50600183015b600101614004565b505b60015b895486900381101561423f57816201518002880160048b838901815481106140f457fe5b90600052602060002001548154811061410957fe5b906000526020600020906005020160020154116142335760048a8288018154811061413057fe5b90600052602060002001548154811061414557fe5b9060005260206000209060050201600401546002141561416a57600190950194600019015b60048a8288018154811061417a57fe5b90600052602060002001548154811061418f57fe5b9060005260206000209060050201600401546001141561422e5760015b8460010181101561422c5780610e10028362015180028b010160048c848a01815481106141d557fe5b9060005260206000200154815481106141ea57fe5b9060005260206000209060050201600201541015614224578a546000198201955091508385141561421e5760009550600094505b50600184015b6001016141ac565b505b614237565b5088545b6001016140d0565b505060018a015b600101613ea8565b50828286010394505050505b600101613e5c565b5098975050505050505050565b600d602052816000526040600020818154811061220a57fe5b8351602085015160408601516060870151620151808588039485900381019493849003810193928390038101929091030160008487106142d857838710156142d35750858303828203015b6142ec565b8287106142ec57818710156142ec57508581035b6000610e108a600260200201518b60036020020151038b600060200201518c600160200201510301620151806201517f198a8d0301040283018f8f02028161433057fe5b604080516060810182528f8152602081018f815293909204908201819052600f805460018101808355600092835284516000805160206158728339815191526004909302928301908155955193965091949193926143a09160008051602061582483398151915201906002615493565b5060409182015160039091015560008f8152601060205220600019820190559050620151806201517f19898c030160009e8f5260126020526040909e209d04909c555050505050505050505050505050565b6040805160a0810182528381526001600160a01b03808416602080840191825242848601818152600260608701908152600160808801818152600480548084018255600091825299516005808c027f8a35acfbc15ff81a39ae7d344fd709f28e8600b4aa8c65c6b64bfe7fe36bd19b81019290925598517f8a35acfbc15ff81a39ae7d344fd709f28e8600b4aa8c65c6b64bfe7fe36bd19c8201805491909b166001600160a01b03199091161790995593517f8a35acfbc15ff81a39ae7d344fd709f28e8600b4aa8c65c6b64bfe7fe36bd19d89015591517f8a35acfbc15ff81a39ae7d344fd709f28e8600b4aa8c65c6b64bfe7fe36bd19e88015590517f8a35acfbc15ff81a39ae7d344fd709f28e8600b4aa8c65c6b64bfe7fe36bd19f909601959095558881529282529482208054938401815580835290822090920183905585905280546145469082908190615592565b50506001600160a01b039092166000908152600660209081526040808320949094556007905291909120600190555050565b6001600160a01b03811660009081526006602052604081205460048054839190839081106145a257fe5b600091825260208220600590910201549150613a3b82612ae3565b6000600482815481106145cc57fe5b9060005260206000209060050201600301549050919050565b600e602052816000526040600020818154811061220a57fe5b60095490565b6001602052816000526040600020818154811061220a57fe5b600060088281548110611b5f57fe5b60008061463885611d91565b9050600184821015614648575060005b600061465387611a7b565b90508481101561466257600091505b5095945050505050565b60006004828154811061467b57fe5b60009182526020909120600590910201600101546001600160a01b031692915050565b6001600160a01b0387166000908152600a6020526040902080541561470b5760006008826001848054905003815481106146d457fe5b9060005260206000200154815481106146e957fe5b906000526020600020906009020190504281600701541061470957600080fd5b505b6000871161471857600080fd5b8860011461478a578460008151811061472d57fe5b60200260200101518560018151811061474257fe5b6020026020010151101561475557600080fd5b8460028151811061476257fe5b60200260200101518560038151811061477757fe5b6020026020010151101561478a57600080fd5b60408051610120810182528a81526001600160a01b03808b1660208084019182529383018b8152606084018c8152608085018c815260a086018c815260c087018c905260e087018b905261010087018a905260088054600181810180845560009384528a5160099093027ff3f7a9fe364faab93b216da50a3214154f22a0a2b415b23a84c8169e8b636ee3810193845598517ff3f7a9fe364faab93b216da50a3214154f22a0a2b415b23a84c8169e8b636ee48a01805491909b166001600160a01b03199091161790995595517ff3f7a9fe364faab93b216da50a3214154f22a0a2b415b23a84c8169e8b636ee588015593517ff3f7a9fe364faab93b216da50a3214154f22a0a2b415b23a84c8169e8b636ee687015591517ff3f7a9fe364faab93b216da50a3214154f22a0a2b415b23a84c8169e8b636ee78601555180518f989297949695614901937ff3f7a9fe364faab93b216da50a3214154f22a0a2b415b23a84c8169e8b636ee89091019201906156d6565b5060c0820151600682015560e082015160078201556101009091015160089091015584546001810186556000868152602080822094909303939091018390556001600160a01b038d168152600a909152604090208454919250614965918590615592565b506040805160c08101825282815260208082018581529282018b8152606083018b8152608084018b905260a084018990526009805460018101808355600092909252855160069091027f6e1540171b6c0c960b71a7020d9f60077f6af931a8bbf590da0223dacf75c7af810191825596517f6e1540171b6c0c960b71a7020d9f60077f6af931a8bbf590da0223dacf75c7b088015592517f6e1540171b6c0c960b71a7020d9f60077f6af931a8bbf590da0223dacf75c7b18701559051805191959293614a57937f6e1540171b6c0c960b71a7020d9f60077f6af931a8bbf590da0223dacf75c7b201929101906156d6565b506080820151816004015560a082015181600501555050505050505050505050505050565b6000614a88600061335c565b905063631a901063631ae47063631a1180614aa1615475565b604051806080016040528085815260200184815260200183815260200183815250905060006001600b6040518061012001604052806000815260200160405180604001604052808c6001600160a01b03166001600160a01b031681526020018b6001600160a01b03166001600160a01b0316815250815260200160008152602001600a81526020016040518060600160405280602e8152602001615844602e91398152636310041060208083019190915263631b63006040830152606082018790526001608090920182905283548083018086556000958652948290208451600d90920201908155908301519091614b9e91908301906002615493565b50604082015160038201556060820151600482015560808201518051614bce9160058401916020909101906154eb565b5060a0820151600682015560c0820151600782015560e0820151614bf89060088301906004615565565b5061010082015181600c0155505003905060006001600b6040518061012001604052806000815260200160405180604001604052808d6001600160a01b03166001600160a01b031681526020018c6001600160a01b03166001600160a01b0316815250815260200160018152602001600a81526020016040518060600160405280602e8152602001615844602e91398152636310041060208083019190915263631b63006040830152606082018890526001608090920182905283548083018086556000958652948290208451600d90920201908155908301519091614ce391908301906002615493565b50604082015160038201556060820151600482015560808201518051614d139160058401916020909101906154eb565b5060a0820151600682015560c0820151600782015560e0820151614d3d9060088301906004615565565b5061010082015181600c0155505003905060006001600b6040518061012001604052806000815260200160405180604001604052808e6001600160a01b03166001600160a01b031681526020018d6001600160a01b03166001600160a01b0316815250815260200160028152602001600a81526020016040518060600160405280602e8152602001615844602e91398152636310041060208083019190915263631b63006040830152606082018990526001608090920182905283548083018086556000958652948290208451600d90920201908155908301519091614e2891908301906002615493565b50604082015160038201556060820151600482015560808201518051614e589160058401916020909101906154eb565b5060a0820151600682015560c0820151600782015560e0820151614e829060088301906004615565565b506101009190910151600c9091015560408051606081018252600080825260016020808401919091526002838501526001600160a01b038e168252600d905291909120929091039250614ed791906003615710565b5060408051606081018252600080825260016020808401919091526002838501526001600160a01b038d168252600d905291909120614f17916003615710565b5060408051606081018252600080825260016020808401919091526002938301939093528052600e909152612c69907fe710864318d4a32f37d6ce54cb3fadbef648dd12d8dbdf53973564d56b7f881c906003615710565b6002602052816000526040600020818154811061220a57fe5b6000600b8381548110614f9757fe5b600091825260208083206001600d9390930201600c81018390558054808552600e835260408520805494850181558086529285209093018790559282905280549293509091614fe99082908190615592565b506002830180546001600160a01b039081166000908152600d6020908152604080832080546001810182558185529284209092018a90559354909216815291909120815461503991908390615592565b50612c6e83856004015460018861505a565b6060600082815481106132b757fe5b60006008858154811061506957fe5b60009182526020822060036009909202019081015490925090600182101561508f575060015b84600114156150af57858203915060018210156150aa575060025b6150b4565b908501905b6003830182905560018114156151c25760096040518060c0016040528089815260200185600301548152602001856004015481526020018560050180548060200260200160405190810160405280929190818152602001828054801561513957602002820191906000526020600020905b815481526020019060010190808311615125575b505050918352505060068087015460208084019190915260088801546040938401528454600181810180885560009788529683902086519290940290930190815584820151928101929092559183015160028201556060830151805191926151a9926003850192909101906156d6565b506080820151816004015560a082015181600501555050505b60005b60095481101561544d576000600982815481106151de57fe5b906000526020600020906006020190506000600882600001548154811061520157fe5b6000918252602082206007600990920201015483549092508b14156153335760018301869055600285141561533357835b600954600019018110156152c9576009816001018154811061525057fe5b90600052602060002090600602016009828154811061526b57fe5b906000526020600020906006020160008201548160000155600182015481600101556002820154816002015560038201816003019080546152ad929190615592565b5060048281015490820155600591820154910155600101615232565b506009805460001981019081106152dc57fe5b60009182526020822060069091020181815560018101829055600281018290559061530a60038301826156b8565b50600060048201819055600590910155600980549061532d906000198301615774565b50600190505b4282101561543e57835b600954600019018110156153d4576009816001018154811061535b57fe5b90600052602060002090600602016009828154811061537657fe5b906000526020600020906006020160008201548160000155600182015481600101556002820154816002015560038201816003019080546153b8929190615592565b506004828101549082015560059182015491015560010161533d565b506009805460001981019081106153e757fe5b60009182526020822060069091020181815560018101829055600281018290559061541560038301826156b8565b506000600482018190556005909101556009805490615438906000198301615774565b50600190505b90920360010191506151c59050565b5050505050505050565b60405180604001604052806002906020820280388339509192915050565b60405180608001604052806004906020820280388339509192915050565b82600281019282156154db579160200282015b828111156154db57825182546001600160a01b0319166001600160a01b039091161782556020909201916001909101906154a6565b506154e79291506157a0565b5090565b828054600181600116156101000203166002900490600052602060002090601f016020900481019282601f1061552c57805160ff1916838001178555615559565b82800160010185558215615559579182015b8281111561555957825182559160200191906001019061553e565b506154e79291506157c4565b8260048101928215615559579160200282018281111561555957825182559160200191906001019061553e565b8280548282559060005260206000209081019282156155595760005260206000209182015b828111156155595782548255916001019190600101906155b7565b8280548282559060005260206000209081019282156154db57916020028201828111156154db57825182546001600160a01b0319166001600160a01b039091161782556020909201916001909101906154a6565b60405180606001604052806003906020820280388339509192915050565b8260038101928215615559579160200282018281111561555957825182559160200191906001019061553e565b50805460018160011615610100020316600290046000825580601f1061569757506156b5565b601f0160209004906000526020600020908101906156b591906157c4565b50565b50805460008255906000526020600020908101906156b591906157c4565b828054828255906000526020600020908101928215615559579160200282018281111561555957825182559160200191906001019061553e565b828054828255906000526020600020908101928215615559579160200282015b82811115615559578251829060ff16905591602001919060010190615730565b815481835581811115611d6457600083815260209020611d649181019083016157c4565b815481835581811115611d6457600602816006028360005260206000209182019101611d6491906157de565b612a2591905b808211156154e75780546001600160a01b03191681556001016157a6565b612a2591905b808211156154e757600081556001016157ca565b612a2591905b808211156154e7576000808255600182018190556002820181905561580c60038301826156b8565b5060006004820181905560058201556006016157e456fe8d1108e10bcb7c27dddfc02ed9d693a074039d026cf4ea4240b40f7d581ac803516d6241556436356b54354c7445697170653675786d696358344b483571487873356a6e43516263634732376d488d1108e10bcb7c27dddfc02ed9d693a074039d026cf4ea4240b40f7d581ac802a265627a7a72315820911f39fb6d3a0a787fec28775ffe9b49359830f3f85febc369becce650ea8c2764736f6c63430005100032",
  "source": "pragma solidity >=0.4.21 <0.7.0;\r\n\r\nimport \"./PaymentManage.sol\";\r\n\r\ncontract AllContract is PaymentManage {\r\n\r\n\r\n}",
  "sourcePath": "C:\\Users\\\\demo1\\contracts\\AllContract.sol",
  "compiler": {
    "name": "solc",
    "version": "0.5.16+commit.9c3226ce.Emscripten.clang"
  },
  "schemaVersion": "3.4.8",
  "updatedAt": "2023-01-29T21:13:33.773Z",
  "networkType": "ethereum",
  "devdoc": {
    "methods": {}
  },
  "userdoc": {
    "methods": {}
  }
}