{
  "contractName": "FileCrypto",
  "abi": [
    {
      "constant": true,
      "inputs": [
        {
          "internalType": "address",
          "name": "",
          "type": "address"
        }
      ],
      "name": "cryptoidnow",
      "outputs": [
        {
          "internalType": "uint256",
          "name": "",
          "type": "uint256"
        }
      ],
      "payable": false,
      "stateMutability": "view",
      "type": "function"
    },
    {
      "constant": true,
      "inputs": [
        {
          "internalType": "uint256",
          "name": "",
          "type": "uint256"
        }
      ],
      "name": "cryptoinfos",
      "outputs": [
        {
          "internalType": "uint256",
          "name": "CryptoType",
          "type": "uint256"
        }
      ],
      "payable": false,
      "stateMutability": "view",
      "type": "function"
    },
    {
      "constant": false,
      "inputs": [
        {
          "internalType": "address",
          "name": "_uploader",
          "type": "address"
        },
        {
          "internalType": "string",
          "name": "_KeyData1",
          "type": "string"
        }
      ],
      "name": "settype1",
      "outputs": [],
      "payable": false,
      "stateMutability": "nonpayable",
      "type": "function"
    },
    {
      "constant": false,
      "inputs": [
        {
          "internalType": "address",
          "name": "_uploader",
          "type": "address"
        },
        {
          "internalType": "string",
          "name": "_KeyData1",
          "type": "string"
        },
        {
          "internalType": "string",
          "name": "_KeyData2",
          "type": "string"
        },
        {
          "internalType": "string",
          "name": "_KeyData3",
          "type": "string"
        },
        {
          "internalType": "string",
          "name": "_KeyData4",
          "type": "string"
        }
      ],
      "name": "settype2",
      "outputs": [],
      "payable": false,
      "stateMutability": "nonpayable",
      "type": "function"
    },
    {
      "constant": true,
      "inputs": [
        {
          "internalType": "address",
          "name": "_uploader",
          "type": "address"
        }
      ],
      "name": "getcid",
      "outputs": [
        {
          "internalType": "uint256",
          "name": "",
          "type": "uint256"
        }
      ],
      "payable": false,
      "stateMutability": "view",
      "type": "function"
    },
    {
      "constant": true,
      "inputs": [
        {
          "internalType": "uint256",
          "name": "_cryptoid",
          "type": "uint256"
        }
      ],
      "name": "gettype1",
      "outputs": [
        {
          "internalType": "string",
          "name": "",
          "type": "string"
        }
      ],
      "payable": false,
      "stateMutability": "view",
      "type": "function"
    },
    {
      "constant": true,
      "inputs": [
        {
          "internalType": "uint256",
          "name": "_cryptoid",
          "type": "uint256"
        }
      ],
      "name": "gettype2",
      "outputs": [
        {
          "internalType": "string",
          "name": "",
          "type": "string"
        }
      ],
      "payable": false,
      "stateMutability": "view",
      "type": "function"
    },
    {
      "constant": true,
      "inputs": [
        {
          "internalType": "uint256",
          "name": "_cryptoid",
          "type": "uint256"
        }
      ],
      "name": "gettype3",
      "outputs": [
        {
          "internalType": "string",
          "name": "",
          "type": "string"
        }
      ],
      "payable": false,
      "stateMutability": "view",
      "type": "function"
    },
    {
      "constant": true,
      "inputs": [
        {
          "internalType": "uint256",
          "name": "_cryptoid",
          "type": "uint256"
        }
      ],
      "name": "gettype4",
      "outputs": [
        {
          "internalType": "string",
          "name": "",
          "type": "string"
        }
      ],
      "payable": false,
      "stateMutability": "view",
      "type": "function"
    }
  ],
  "bytecode": "0x608060405234801561001057600080fd5b506109fe806100206000396000f3fe608060405234801561001057600080fd5b50600436106100935760003560e01c8063bafa385a11610066578063bafa385a146101a5578063d10e22311461025b578063e754a8c014610278578063f0817e87146104bb578063f9d041f3146104d857610093565b80634373b197146100985780635ac8c6651461012a57806377b02e20146101625780639716412114610188575b600080fd5b6100b5600480360360208110156100ae57600080fd5b50356104f5565b6040805160208082528351818301528351919283929083019185019080838360005b838110156100ef5781810151838201526020016100d7565b50505050905090810190601f16801561011c5780820380516001836020036101000a031916815260200191505b509250505060405180910390f35b6101506004803603602081101561014057600080fd5b50356001600160a01b03166105b2565b60408051918252519081900360200190f35b6101506004803603602081101561017857600080fd5b50356001600160a01b03166105c4565b6100b56004803603602081101561019e57600080fd5b50356105df565b610259600480360360408110156101bb57600080fd5b6001600160a01b038235169190810190604081016020820135600160201b8111156101e557600080fd5b8201836020820111156101f757600080fd5b803590602001918460018302840111600160201b8311171561021857600080fd5b91908080601f016020809104026020016040519081016040528093929190818152602001838380828437600092019190915250929550610606945050505050565b005b6100b56004803603602081101561027157600080fd5b50356106fb565b610259600480360360a081101561028e57600080fd5b6001600160a01b038235169190810190604081016020820135600160201b8111156102b857600080fd5b8201836020820111156102ca57600080fd5b803590602001918460018302840111600160201b831117156102eb57600080fd5b91908080601f0160208091040260200160405190810160405280939291908181526020018383808284376000920191909152509295949360208101935035915050600160201b81111561033d57600080fd5b82018360208201111561034f57600080fd5b803590602001918460018302840111600160201b8311171561037057600080fd5b91908080601f0160208091040260200160405190810160405280939291908181526020018383808284376000920191909152509295949360208101935035915050600160201b8111156103c257600080fd5b8201836020820111156103d457600080fd5b803590602001918460018302840111600160201b831117156103f557600080fd5b91908080601f0160208091040260200160405190810160405280939291908181526020018383808284376000920191909152509295949360208101935035915050600160201b81111561044757600080fd5b82018360208201111561045957600080fd5b803590602001918460018302840111600160201b8311171561047a57600080fd5b91908080601f016020809104026020016040519081016040528093929190818152602001838380828437600092019190915250929550610727945050505050565b610150600480360360208110156104d157600080fd5b5035610802565b6100b5600480360360208110156104ee57600080fd5b5035610825565b60606000828154811061050457fe5b906000526020600020906005020160010160016004811061052157fe5b01805460408051602060026001851615610100026000190190941693909304601f810184900484028201840190925281815292918301828280156105a65780601f1061057b576101008083540402835291602001916105a6565b820191906000526020600020905b81548152906001019060200180831161058957829003601f168201915b50505050509050919050565b60016020526000908152604090205481565b6001600160a01b031660009081526001602052604090205490565b6060600082815481106105ee57fe5b60009182526020822060016005909202010190610521565b61060e610851565b50604080516080810182528281528151602081810184526000808352818401929092528351808201855282815283850152835180820185528281526060840152835180850190945260018085529084018381528254808301808555848052865160059092027f290decd9548b62a8d60345a988386fc84ba6bc95484008f6362f93160ef3e56381019283559251959694959394909390926106d5917f290decd9548b62a8d60345a988386fc84ba6bc95484008f6362f93160ef3e564909101906004610878565b5050506001600160a01b0390951660009081526001602052604090209403909355505050565b60606000828154811061070a57fe5b906000526020600020906005020160010160026004811061052157fe5b61072f610851565b50604080516080810182528581526020808201869052818301859052606082018490528251808401909352600283528201818152600080546001818101808455838052865160059093027f290decd9548b62a8d60345a988386fc84ba6bc95484008f6362f93160ef3e56381019384559451959693959194909392916107d9917f290decd9548b62a8d60345a988386fc84ba6bc95484008f6362f93160ef3e56401906004610878565b5050506001600160a01b0390981660009081526001602052604090209703909655505050505050565b6000818154811061080f57fe5b6000918252602090912060059091020154905081565b60606000828154811061083457fe5b906000526020600020906005020160010160036004811061052157fe5b60405180608001604052806004905b60608152602001906001900390816108605790505090565b82600481019282156108b8579160200282015b828111156108b857825180516108a89184916020909101906108c8565b509160200191906001019061088b565b506108c4929150610942565b5090565b828054600181600116156101000203166002900490600052602060002090601f016020900481019282601f1061090957805160ff1916838001178555610936565b82800160010185558215610936579182015b8281111561093657825182559160200191906001019061091b565b506108c4929150610968565b61096591905b808211156108c457600061095c8282610982565b50600101610948565b90565b61096591905b808211156108c4576000815560010161096e565b50805460018160011615610100020316600290046000825580601f106109a857506109c6565b601f0160209004906000526020600020908101906109c69190610968565b5056fea265627a7a7231582099f4d5fe93f5a18071c7ec93133b06d5bac46e72a569203966df14b70cb79e9564736f6c63430005100032",
  "source": "pragma solidity >=0.4.21 <0.7.0;\r\n\r\ncontract FileCrypto  {\r\n\r\n\r\n    struct cryptoinfo{\r\n        \r\n        uint CryptoType;\r\n        string[4] KeyData;\r\n        \r\n    }\r\n\r\n    cryptoinfo[] public cryptoinfos;\r\n    mapping (address => uint) public cryptoidnow;\r\n\r\n    function settype1(address _uploader, string memory _KeyData1 ) public  {\r\n\r\n//        uint cid = cryptoinfos.push(cryptoinfo(1, _KeyData1,\"\",\"\",\"\")) - 1;\r\n        string[4] memory kd = [_KeyData1,\"\",\"\",\"\"] ;\r\n        uint cid = cryptoinfos.push(cryptoinfo(1, kd)) - 1;\r\n        cryptoidnow[_uploader] = cid;        \r\n        \r\n    }\r\n\r\n    function settype2(address _uploader, string memory _KeyData1, string memory _KeyData2, string memory _KeyData3, string memory _KeyData4 ) public  {\r\n        \r\n        string[4] memory kd = [_KeyData1, _KeyData2, _KeyData3, _KeyData4] ;\r\n        uint cid = cryptoinfos.push(cryptoinfo(2, kd)) - 1;\r\n        cryptoidnow[_uploader] = cid;       \r\n        \r\n    }\r\n\r\n    function getcid(address _uploader) public view  returns (uint) {\r\n\r\n        return (cryptoidnow[_uploader]);       \r\n        \r\n    }\r\n\r\n    function gettype1(uint _cryptoid) public view  returns (string memory){\r\n    \r\n        return (cryptoinfos[_cryptoid].KeyData[0]);\r\n        \r\n    }\r\n\r\n    function gettype2(uint _cryptoid) public view  returns (string memory){\r\n    \r\n        return (cryptoinfos[_cryptoid].KeyData[1]);\r\n        \r\n    }\r\n\r\n    function gettype3(uint _cryptoid) public view  returns (string memory){\r\n    \r\n        return (cryptoinfos[_cryptoid].KeyData[2]);\r\n        \r\n    }\r\n\r\n    function gettype4(uint _cryptoid) public view  returns (string memory){\r\n    \r\n        return (cryptoinfos[_cryptoid].KeyData[3]);\r\n        \r\n    }\r\n\r\n\r\n\r\n}",
  "sourcePath": "C:\\Users\\陳彥澤\\demo1\\contracts\\FileCrypto.sol",
  "compiler": {
    "name": "solc",
    "version": "0.5.16+commit.9c3226ce.Emscripten.clang"
  },
  "schemaVersion": "3.4.8",
  "updatedAt": "2023-01-29T21:13:33.768Z",
  "networkType": "ethereum",
  "devdoc": {
    "methods": {}
  },
  "userdoc": {
    "methods": {}
  }
}