{
  "contractName": "FileInfo",
  "abi": [
    {
      "constant": true,
      "inputs": [
        {
          "internalType": "address",
          "name": "",
          "type": "address"
        }
      ],
      "name": "fileidnow",
      "outputs": [
        {
          "internalType": "uint256",
          "name": "",
          "type": "uint256"
        }
      ],
      "payable": false,
      "stateMutability": "view",
      "type": "function"
    },
    {
      "constant": true,
      "inputs": [
        {
          "internalType": "address",
          "name": "",
          "type": "address"
        },
        {
          "internalType": "uint256",
          "name": "",
          "type": "uint256"
        }
      ],
      "name": "ownerfile",
      "outputs": [
        {
          "internalType": "uint256",
          "name": "",
          "type": "uint256"
        }
      ],
      "payable": false,
      "stateMutability": "view",
      "type": "function"
    },
    {
      "constant": true,
      "inputs": [
        {
          "internalType": "address",
          "name": "",
          "type": "address"
        },
        {
          "internalType": "uint256",
          "name": "",
          "type": "uint256"
        }
      ],
      "name": "sharedfile",
      "outputs": [
        {
          "internalType": "uint256",
          "name": "",
          "type": "uint256"
        }
      ],
      "payable": false,
      "stateMutability": "view",
      "type": "function"
    },
    {
      "constant": false,
      "inputs": [
        {
          "internalType": "string",
          "name": "_name",
          "type": "string"
        },
        {
          "internalType": "address",
          "name": "_uploader",
          "type": "address"
        },
        {
          "internalType": "string",
          "name": "_keyword",
          "type": "string"
        },
        {
          "internalType": "uint256",
          "name": "_filesize",
          "type": "uint256"
        },
        {
          "internalType": "string",
          "name": "_hash",
          "type": "string"
        },
        {
          "internalType": "uint256",
          "name": "_sharetype",
          "type": "uint256"
        },
        {
          "internalType": "address[]",
          "name": "_shareaddress",
          "type": "address[]"
        },
        {
          "internalType": "uint256",
          "name": "_cryptoid",
          "type": "uint256"
        }
      ],
      "name": "createinfo",
      "outputs": [],
      "payable": false,
      "stateMutability": "nonpayable",
      "type": "function"
    },
    {
      "constant": false,
      "inputs": [
        {
          "internalType": "uint256",
          "name": "_fid",
          "type": "uint256"
        }
      ],
      "name": "deletefile",
      "outputs": [],
      "payable": false,
      "stateMutability": "nonpayable",
      "type": "function"
    },
    {
      "constant": true,
      "inputs": [
        {
          "internalType": "uint256",
          "name": "_id",
          "type": "uint256"
        }
      ],
      "name": "getname",
      "outputs": [
        {
          "internalType": "string",
          "name": "",
          "type": "string"
        }
      ],
      "payable": false,
      "stateMutability": "view",
      "type": "function"
    },
    {
      "constant": true,
      "inputs": [
        {
          "internalType": "uint256",
          "name": "_id",
          "type": "uint256"
        }
      ],
      "name": "getkword",
      "outputs": [
        {
          "internalType": "string",
          "name": "",
          "type": "string"
        }
      ],
      "payable": false,
      "stateMutability": "view",
      "type": "function"
    },
    {
      "constant": true,
      "inputs": [
        {
          "internalType": "uint256",
          "name": "_id",
          "type": "uint256"
        }
      ],
      "name": "getaddr",
      "outputs": [
        {
          "internalType": "address",
          "name": "",
          "type": "address"
        }
      ],
      "payable": false,
      "stateMutability": "view",
      "type": "function"
    },
    {
      "constant": true,
      "inputs": [
        {
          "internalType": "uint256",
          "name": "_id",
          "type": "uint256"
        }
      ],
      "name": "gettime",
      "outputs": [
        {
          "internalType": "uint256",
          "name": "",
          "type": "uint256"
        }
      ],
      "payable": false,
      "stateMutability": "view",
      "type": "function"
    },
    {
      "constant": true,
      "inputs": [
        {
          "internalType": "uint256",
          "name": "_id",
          "type": "uint256"
        }
      ],
      "name": "getsize",
      "outputs": [
        {
          "internalType": "uint256",
          "name": "",
          "type": "uint256"
        }
      ],
      "payable": false,
      "stateMutability": "view",
      "type": "function"
    },
    {
      "constant": true,
      "inputs": [
        {
          "internalType": "uint256",
          "name": "_id",
          "type": "uint256"
        }
      ],
      "name": "ownerhash",
      "outputs": [
        {
          "internalType": "string",
          "name": "",
          "type": "string"
        }
      ],
      "payable": false,
      "stateMutability": "view",
      "type": "function"
    },
    {
      "constant": true,
      "inputs": [
        {
          "internalType": "uint256",
          "name": "_id",
          "type": "uint256"
        }
      ],
      "name": "getsharetype",
      "outputs": [
        {
          "internalType": "uint256",
          "name": "",
          "type": "uint256"
        }
      ],
      "payable": false,
      "stateMutability": "view",
      "type": "function"
    },
    {
      "constant": true,
      "inputs": [
        {
          "internalType": "uint256",
          "name": "_id",
          "type": "uint256"
        },
        {
          "internalType": "uint256",
          "name": "_index",
          "type": "uint256"
        }
      ],
      "name": "getshare",
      "outputs": [
        {
          "internalType": "address",
          "name": "",
          "type": "address"
        }
      ],
      "payable": false,
      "stateMutability": "view",
      "type": "function"
    },
    {
      "constant": true,
      "inputs": [
        {
          "internalType": "uint256",
          "name": "_id",
          "type": "uint256"
        }
      ],
      "name": "getcrypto",
      "outputs": [
        {
          "internalType": "uint256",
          "name": "",
          "type": "uint256"
        }
      ],
      "payable": false,
      "stateMutability": "view",
      "type": "function"
    },
    {
      "constant": true,
      "inputs": [],
      "name": "flength",
      "outputs": [
        {
          "internalType": "uint256",
          "name": "",
          "type": "uint256"
        }
      ],
      "payable": false,
      "stateMutability": "view",
      "type": "function"
    },
    {
      "constant": true,
      "inputs": [
        {
          "internalType": "address",
          "name": "_owner",
          "type": "address"
        }
      ],
      "name": "getownfile",
      "outputs": [
        {
          "internalType": "uint256[]",
          "name": "",
          "type": "uint256[]"
        }
      ],
      "payable": false,
      "stateMutability": "view",
      "type": "function"
    },
    {
      "constant": true,
      "inputs": [
        {
          "internalType": "address",
          "name": "_owner",
          "type": "address"
        }
      ],
      "name": "getsharedfile",
      "outputs": [
        {
          "internalType": "uint256[]",
          "name": "",
          "type": "uint256[]"
        }
      ],
      "payable": false,
      "stateMutability": "view",
      "type": "function"
    },
    {
      "constant": true,
      "inputs": [
        {
          "internalType": "address",
          "name": "_owner",
          "type": "address"
        }
      ],
      "name": "getidnow",
      "outputs": [
        {
          "internalType": "uint256",
          "name": "",
          "type": "uint256"
        }
      ],
      "payable": false,
      "stateMutability": "view",
      "type": "function"
    }
  ],
  "bytecode": "0x608060405234801561001057600080fd5b506111a6806100206000396000f3fe608060405234801561001057600080fd5b50600436106101165760003560e01c806365173543116100a2578063a0f76f7311610071578063a0f76f73146105e1578063af535a63146105fe578063bef90ade14610606578063de57e9b71461062c578063fcd2f5fa1461065857610116565b8063651735431461056457806374c626ec1461058a57806383cb313f146105a75780639bfdb269146105c457610116565b806344a8d93f116100e957806344a8d93f1461021f5780634a176ba5146102955780634c7ee854146102ce5780634dada7b3146102f157806360cdb0ff1461054757610116565b80630202ace11461011b5780630f95a3db146101ad57806317aaa74e146101dc578063276b08c3146101f9575b600080fd5b6101386004803603602081101561013157600080fd5b5035610684565b6040805160208082528351818301528351919283929083019185019080838360005b8381101561017257818101518382015260200161015a565b50505050905090810190601f16801561019f5780820380516001836020036101000a031916815260200191505b509250505060405180910390f35b6101ca600480360360208110156101c357600080fd5b5035610732565b60408051918252519081900360200190f35b6101ca600480360360208110156101f257600080fd5b5035610759565b6101ca6004803603602081101561020f57600080fd5b50356001600160a01b0316610780565b6102456004803603602081101561023557600080fd5b50356001600160a01b0316610792565b60408051602080825283518183015283519192839290830191858101910280838360005b83811015610281578181015183820152602001610269565b505050509050019250505060405180910390f35b6102b2600480360360208110156102ab57600080fd5b50356107fd565b604080516001600160a01b039092168252519081900360200190f35b6102b2600480360360408110156102e457600080fd5b508035906020013561082e565b610545600480360361010081101561030857600080fd5b810190602081018135600160201b81111561032257600080fd5b82018360208201111561033457600080fd5b803590602001918460018302840111600160201b8311171561035557600080fd5b91908080601f01602080910402602001604051908101604052809392919081815260200183838082843760009201919091525092956001600160a01b03853516959094909350604081019250602001359050600160201b8111156103b857600080fd5b8201836020820111156103ca57600080fd5b803590602001918460018302840111600160201b831117156103eb57600080fd5b91908080601f01602080910402602001604051908101604052809392919081815260200183838082843760009201919091525092958435959094909350604081019250602001359050600160201b81111561044557600080fd5b82018360208201111561045757600080fd5b803590602001918460018302840111600160201b8311171561047857600080fd5b91908080601f01602080910402602001604051908101604052809392919081815260200183838082843760009201919091525092958435959094909350604081019250602001359050600160201b8111156104d257600080fd5b8201836020820111156104e457600080fd5b803590602001918460208302840111600160201b8311171561050557600080fd5b919080806020026020016040519081016040528093929190818152602001838360200280828437600092019190915250929550509135925061087d915050565b005b6101ca6004803603602081101561055d57600080fd5b5035610c99565b6102456004803603602081101561057a57600080fd5b50356001600160a01b0316610cc0565b610545600480360360208110156105a057600080fd5b5035610d2a565b610138600480360360208110156105bd57600080fd5b5035610df8565b6101ca600480360360208110156105da57600080fd5b5035610ea7565b610138600480360360208110156105f757600080fd5b5035610ece565b6101ca610f4a565b6101ca6004803603602081101561061c57600080fd5b50356001600160a01b0316610f51565b6101ca6004803603604081101561064257600080fd5b506001600160a01b038135169060200135610f6c565b6101ca6004803603604081101561066e57600080fd5b506001600160a01b038135169060200135610f9a565b60606000828154811061069357fe5b6000918252602091829020600990910201805460408051601f60026000196101006001871615020190941693909304928301859004850281018501909152818152928301828280156107265780601f106106fb57610100808354040283529160200191610726565b820191906000526020600020905b81548152906001019060200180831161070957829003601f168201915b50505050509050919050565b600080828154811061074057fe5b9060005260206000209060090201600401549050919050565b600080828154811061076757fe5b9060005260206000209060090201600601549050919050565b60036020526000908152604090205481565b6001600160a01b03811660009081526001602090815260409182902080548351818402810184019094528084526060939283018282801561072657602002820191906000526020600020905b8154815260200190600101908083116107de5750505050509050919050565b600080828154811061080b57fe5b60009182526020909120600990910201600101546001600160a01b031692915050565b6000806000848154811061083e57fe5b90600052602060002090600902019050600081600701848154811061085f57fe5b6000918252602090912001546001600160a01b031695945050505050565b60408051610120810182528981526001600160a01b03891660208083019190915291810188905242606082018190526080820188905260a0820187905260c0820186905260e08201859052610100820184905260008054600181810180845583805285518051959794969295919492936009027f290decd9548b62a8d60345a988386fc84ba6bc95484008f6362f93160ef3e563019261092292849290910190610fb3565b506020828101516001830180546001600160a01b0319166001600160a01b03909216919091179055604083015180516109619260028501920190610fb3565b50606082015160038201556080820151600482015560a08201518051610991916005840191602090910190610fb3565b5060c0820151600682015560e082015180516109b7916007840191602090910190611031565b5061010091909101516008909101556001600160a01b038b16600081815260016020818152604083208054928301815580845290832095909403940184905552805491925090610a0a9082908190611092565b508560031415610c715784600181518110610a2157fe5b60200260200101516001600160a01b03168a6001600160a01b031614610adc5760006002600087600181518110610a5457fe5b6020908102919091018101516001600160a01b031682528181019290925260400160009081208054600181810183558284529383200186905588519093508392600292918a91908110610aa357fe5b60200260200101516001600160a01b03166001600160a01b03168152602001908152602001600020908054610ad9929190611092565b50505b84600281518110610ae957fe5b60200260200101516001600160a01b03168a6001600160a01b031614610ba65760006002600087600281518110610b1c57fe5b6020908102919091018101516001600160a01b0316825281810192909252604001600090812080546001810182558183529282209092018590558751919250829160029190899083908110610b6d57fe5b60200260200101516001600160a01b03166001600160a01b03168152602001908152602001600020908054610ba3929190611092565b50505b84600381518110610bb357fe5b60200260200101516001600160a01b03168a6001600160a01b031614610c715760006002600087600381518110610be657fe5b6020908102919091018101516001600160a01b031682528181019290925260400160009081208054600181018255818352928220909201859055875191925082916002919089906003908110610c3857fe5b60200260200101516001600160a01b03166001600160a01b03168152602001908152602001600020908054610c6e929190611092565b50505b506001600160a01b039098166000908152600360205260409020979097555050505050505050565b6000808281548110610ca757fe5b9060005260206000209060090201600801549050919050565b6001600160a01b03811660009081526002602090815260409182902080548351818402810184019094528084526060939283018282801561072657602002820191906000526020600020908154815260200190600101908083116107de5750505050509050919050565b6000808281548110610d3857fe5b6000918252602090912060099091020160018101549091506001600160a01b03163314610d6457600080fd5b60008281548110610d7157fe5b60009182526020822060099091020190610d8b82826110d2565b6001820180546001600160a01b0319169055610dab6002830160006110d2565b60038201600090556004820160009055600582016000610dcb91906110d2565b6006820160009055600782016000610de39190611119565b50600060089190910181905560069091015550565b606060008281548110610e0757fe5b60009182526020909120600990910201600101546001600160a01b03163314610e2f57600080fd5b60008281548110610e3c57fe5b6000918252602091829020600560099092020101805460408051601f60026000196101006001871615020190941693909304928301859004850281018501909152818152928301828280156107265780601f106106fb57610100808354040283529160200191610726565b6000808281548110610eb557fe5b9060005260206000209060090201600301549050919050565b606060008281548110610edd57fe5b600091825260209182902060026009909202018101805460408051601f6000196101006001861615020190931694909404918201859004850284018501905280835291929091908301828280156107265780601f106106fb57610100808354040283529160200191610726565b6000545b90565b6001600160a01b031660009081526003602052604090205490565b60016020528160005260406000208181548110610f8557fe5b90600052602060002001600091509150505481565b60026020528160005260406000208181548110610f8557fe5b828054600181600116156101000203166002900490600052602060002090601f016020900481019282601f10610ff457805160ff1916838001178555611021565b82800160010185558215611021579182015b82811115611021578251825591602001919060010190611006565b5061102d929150611133565b5090565b828054828255906000526020600020908101928215611086579160200282015b8281111561108657825182546001600160a01b0319166001600160a01b03909116178255602090920191600190910190611051565b5061102d92915061114d565b8280548282559060005260206000209081019282156110215760005260206000209182015b828111156110215782548255916001019190600101906110b7565b50805460018160011615610100020316600290046000825580601f106110f85750611116565b601f0160209004906000526020600020908101906111169190611133565b50565b508054600082559060005260206000209081019061111691905b610f4e91905b8082111561102d5760008155600101611139565b610f4e91905b8082111561102d5780546001600160a01b031916815560010161115356fea265627a7a72315820c5dcab52f7050ccd161f8b0c2e63dbe906c4b38939dab2ca7ba55ef59d3a917764736f6c63430005100032",
  "source": "pragma solidity >=0.4.21 <0.7.0;\r\n\r\n\r\ncontract FileInfo {\r\n    \r\n    struct file{\r\n        \r\n        string name;\r\n        address uploader;\r\n        string keyword;\r\n        uint256 time;\r\n        uint filesize;\r\n        string hash;\r\n        uint sharetype;\r\n        address[] shareaddress;\r\n        uint cryptoid;\r\n\r\n    }\r\n    \r\n    file[] internal files;\r\n    \r\n    mapping (address => uint[]) public ownerfile;\r\n    mapping (address => uint[]) public sharedfile;\r\n    mapping (address => uint) public fileidnow;\r\n\r\n    \r\n    function createinfo(string memory _name, address _uploader, string memory _keyword, uint _filesize, string memory _hash, uint _sharetype, address[] memory _shareaddress, uint _cryptoid) public  {\r\n        \r\n        uint256 _time = now;\r\n        uint id = files.push(file(_name, _uploader, _keyword, _time, _filesize, _hash, _sharetype, _shareaddress, _cryptoid)) - 1;\r\n\r\n        uint[] storage filelist = ownerfile[_uploader];\r\n        filelist.push(id);\r\n        ownerfile[_uploader] = filelist;\r\n        if(_sharetype==3){\r\n          if(_uploader!=_shareaddress[1]){\r\n          uint[] storage slist1 = sharedfile[_shareaddress[1]];\r\n          slist1.push(id);\r\n          sharedfile[_shareaddress[1]] = slist1;\r\n          }\r\n\r\n\r\n          if(_uploader!=_shareaddress[2]){\r\n          uint[] storage slist2 = sharedfile[_shareaddress[2]];\r\n          slist2.push(id);\r\n          sharedfile[_shareaddress[2]] = slist2;\r\n          }\r\n\r\n\r\n          if(_uploader!=_shareaddress[3]){\r\n          uint[] storage slist3 = sharedfile[_shareaddress[3]];\r\n          slist3.push(id);\r\n          sharedfile[_shareaddress[3]] = slist3;\r\n          }\r\n\r\n        }\r\n\r\n        fileidnow[_uploader] = id;\r\n        \r\n    }\r\n\r\n    function deletefile(uint _fid)  public  {\r\n        \r\n        file storage target = files[_fid];\r\n        require(msg.sender==target.uploader);\r\n        delete files[_fid];\r\n        target.sharetype = 0;\r\n\r\n    }\r\n    \r\n    function getname(uint _id) public view  returns (string memory) {\r\n    \r\n\t\t  return (files[_id].name) ;\r\n\r\n  \t}\r\n\r\n    function getkword(uint _id) public view  returns (string memory) {\r\n    \r\n\t\t  return (files[_id].keyword) ;\r\n\r\n  \t}\r\n\r\n    function getaddr(uint _id) public view  returns (address) {\r\n    \r\n\t\t  return (files[_id].uploader) ;\r\n\r\n  \t}\r\n    \r\n    function gettime(uint _id) public view  returns (uint256) {\r\n    \r\n\t\t  return (files[_id].time) ;\r\n\r\n  \t}\r\n\r\n    function getsize(uint _id) public view  returns (uint) {\r\n    \r\n\t\t  return (files[_id].filesize) ;\r\n\r\n  \t}\r\n\r\n    function gethash(uint _id) internal view  returns (string memory) {\r\n\r\n\t\t  return (files[_id].hash) ;\r\n\r\n  \t}\r\n\r\n    function ownerhash(uint _id) public view  returns (string memory) {\r\n      require(msg.sender==files[_id].uploader);\r\n\t\t  return (files[_id].hash) ;\r\n\r\n  \t}\r\n\r\n    function getsharetype(uint _id) public view returns(uint){\r\n\r\n        return (files[_id].sharetype);\r\n    }\r\n\r\n    function getshare(uint _id, uint _index) public view returns(address){\r\n\r\n        file storage target = files[_id];\r\n        address sa = target.shareaddress[_index];\r\n\r\n        return sa;\r\n    }\r\n\r\n    function getcrypto(uint _id) public view returns(uint){\r\n\r\n        return (files[_id].cryptoid);\r\n    }\r\n\r\n    function flength() public view  returns (uint) {\r\n\r\n\t\t    return (files.length) ;\r\n\r\n  \t}\r\n\r\n    function getownfile(address _owner) public view  returns (uint[] memory) {\r\n\r\n\t\t    return (ownerfile[_owner]) ;\r\n\r\n  \t}\r\n\r\n    function getsharedfile(address _owner) public view  returns (uint[] memory) {\r\n\r\n\t\t    return (sharedfile[_owner]) ;\r\n\r\n  \t}\r\n\r\n    function getidnow(address _owner) public view  returns (uint) {\r\n\r\n\t\t    return (fileidnow[_owner]) ;\r\n\r\n  \t}\r\n \r\n    \r\n}",
  "sourcePath": "C:\\Users\\陳彥澤\\demo1\\contracts\\FileInfo.sol",
  "compiler": {
    "name": "solc",
    "version": "0.5.16+commit.9c3226ce.Emscripten.clang"
  },
  "schemaVersion": "3.4.8",
  "updatedAt": "2023-01-29T21:13:27.719Z",
  "devdoc": {
    "methods": {}
  },
  "userdoc": {
    "methods": {}
  }
}