{
  "contractName": "FileLog",
  "abi": [
    {
      "constant": true,
      "inputs": [
        {
          "internalType": "address",
          "name": "",
          "type": "address"
        }
      ],
      "name": "DLRcheck",
      "outputs": [
        {
          "internalType": "uint256",
          "name": "",
          "type": "uint256"
        }
      ],
      "payable": false,
      "stateMutability": "view",
      "type": "function"
    },
    {
      "constant": false,
      "inputs": [
        {
          "internalType": "string",
          "name": "_name",
          "type": "string"
        },
        {
          "internalType": "address",
          "name": "_uploader",
          "type": "address"
        },
        {
          "internalType": "string",
          "name": "_keyword",
          "type": "string"
        },
        {
          "internalType": "uint256",
          "name": "_filesize",
          "type": "uint256"
        },
        {
          "internalType": "string",
          "name": "_hash",
          "type": "string"
        },
        {
          "internalType": "uint256",
          "name": "_sharetype",
          "type": "uint256"
        },
        {
          "internalType": "address[]",
          "name": "_shareaddress",
          "type": "address[]"
        },
        {
          "internalType": "uint256",
          "name": "_cryptoid",
          "type": "uint256"
        }
      ],
      "name": "createinfo",
      "outputs": [],
      "payable": false,
      "stateMutability": "nonpayable",
      "type": "function"
    },
    {
      "constant": false,
      "inputs": [
        {
          "internalType": "uint256",
          "name": "_fid",
          "type": "uint256"
        }
      ],
      "name": "deletefile",
      "outputs": [],
      "payable": false,
      "stateMutability": "nonpayable",
      "type": "function"
    },
    {
      "constant": true,
      "inputs": [
        {
          "internalType": "address",
          "name": "",
          "type": "address"
        }
      ],
      "name": "fileidnow",
      "outputs": [
        {
          "internalType": "uint256",
          "name": "",
          "type": "uint256"
        }
      ],
      "payable": false,
      "stateMutability": "view",
      "type": "function"
    },
    {
      "constant": true,
      "inputs": [
        {
          "internalType": "uint256",
          "name": "",
          "type": "uint256"
        },
        {
          "internalType": "uint256",
          "name": "",
          "type": "uint256"
        }
      ],
      "name": "fileidtolog",
      "outputs": [
        {
          "internalType": "uint256",
          "name": "",
          "type": "uint256"
        }
      ],
      "payable": false,
      "stateMutability": "view",
      "type": "function"
    },
    {
      "constant": true,
      "inputs": [],
      "name": "flength",
      "outputs": [
        {
          "internalType": "uint256",
          "name": "",
          "type": "uint256"
        }
      ],
      "payable": false,
      "stateMutability": "view",
      "type": "function"
    },
    {
      "constant": true,
      "inputs": [
        {
          "internalType": "uint256",
          "name": "_id",
          "type": "uint256"
        }
      ],
      "name": "getaddr",
      "outputs": [
        {
          "internalType": "address",
          "name": "",
          "type": "address"
        }
      ],
      "payable": false,
      "stateMutability": "view",
      "type": "function"
    },
    {
      "constant": true,
      "inputs": [
        {
          "internalType": "uint256",
          "name": "_id",
          "type": "uint256"
        }
      ],
      "name": "getcrypto",
      "outputs": [
        {
          "internalType": "uint256",
          "name": "",
          "type": "uint256"
        }
      ],
      "payable": false,
      "stateMutability": "view",
      "type": "function"
    },
    {
      "constant": true,
      "inputs": [
        {
          "internalType": "address",
          "name": "_owner",
          "type": "address"
        }
      ],
      "name": "getidnow",
      "outputs": [
        {
          "internalType": "uint256",
          "name": "",
          "type": "uint256"
        }
      ],
      "payable": false,
      "stateMutability": "view",
      "type": "function"
    },
    {
      "constant": true,
      "inputs": [
        {
          "internalType": "uint256",
          "name": "_id",
          "type": "uint256"
        }
      ],
      "name": "getkword",
      "outputs": [
        {
          "internalType": "string",
          "name": "",
          "type": "string"
        }
      ],
      "payable": false,
      "stateMutability": "view",
      "type": "function"
    },
    {
      "constant": true,
      "inputs": [
        {
          "internalType": "uint256",
          "name": "_id",
          "type": "uint256"
        }
      ],
      "name": "getname",
      "outputs": [
        {
          "internalType": "string",
          "name": "",
          "type": "string"
        }
      ],
      "payable": false,
      "stateMutability": "view",
      "type": "function"
    },
    {
      "constant": true,
      "inputs": [
        {
          "internalType": "address",
          "name": "_owner",
          "type": "address"
        }
      ],
      "name": "getownfile",
      "outputs": [
        {
          "internalType": "uint256[]",
          "name": "",
          "type": "uint256[]"
        }
      ],
      "payable": false,
      "stateMutability": "view",
      "type": "function"
    },
    {
      "constant": true,
      "inputs": [
        {
          "internalType": "uint256",
          "name": "_id",
          "type": "uint256"
        },
        {
          "internalType": "uint256",
          "name": "_index",
          "type": "uint256"
        }
      ],
      "name": "getshare",
      "outputs": [
        {
          "internalType": "address",
          "name": "",
          "type": "address"
        }
      ],
      "payable": false,
      "stateMutability": "view",
      "type": "function"
    },
    {
      "constant": true,
      "inputs": [
        {
          "internalType": "address",
          "name": "_owner",
          "type": "address"
        }
      ],
      "name": "getsharedfile",
      "outputs": [
        {
          "internalType": "uint256[]",
          "name": "",
          "type": "uint256[]"
        }
      ],
      "payable": false,
      "stateMutability": "view",
      "type": "function"
    },
    {
      "constant": true,
      "inputs": [
        {
          "internalType": "uint256",
          "name": "_id",
          "type": "uint256"
        }
      ],
      "name": "getsharetype",
      "outputs": [
        {
          "internalType": "uint256",
          "name": "",
          "type": "uint256"
        }
      ],
      "payable": false,
      "stateMutability": "view",
      "type": "function"
    },
    {
      "constant": true,
      "inputs": [
        {
          "internalType": "uint256",
          "name": "_id",
          "type": "uint256"
        }
      ],
      "name": "getsize",
      "outputs": [
        {
          "internalType": "uint256",
          "name": "",
          "type": "uint256"
        }
      ],
      "payable": false,
      "stateMutability": "view",
      "type": "function"
    },
    {
      "constant": true,
      "inputs": [
        {
          "internalType": "uint256",
          "name": "_id",
          "type": "uint256"
        }
      ],
      "name": "gettime",
      "outputs": [
        {
          "internalType": "uint256",
          "name": "",
          "type": "uint256"
        }
      ],
      "payable": false,
      "stateMutability": "view",
      "type": "function"
    },
    {
      "constant": true,
      "inputs": [
        {
          "internalType": "address",
          "name": "",
          "type": "address"
        }
      ],
      "name": "loginfonow",
      "outputs": [
        {
          "internalType": "uint256",
          "name": "",
          "type": "uint256"
        }
      ],
      "payable": false,
      "stateMutability": "view",
      "type": "function"
    },
    {
      "constant": true,
      "inputs": [
        {
          "internalType": "address",
          "name": "",
          "type": "address"
        },
        {
          "internalType": "uint256",
          "name": "",
          "type": "uint256"
        }
      ],
      "name": "ownerfile",
      "outputs": [
        {
          "internalType": "uint256",
          "name": "",
          "type": "uint256"
        }
      ],
      "payable": false,
      "stateMutability": "view",
      "type": "function"
    },
    {
      "constant": true,
      "inputs": [
        {
          "internalType": "uint256",
          "name": "_id",
          "type": "uint256"
        }
      ],
      "name": "ownerhash",
      "outputs": [
        {
          "internalType": "string",
          "name": "",
          "type": "string"
        }
      ],
      "payable": false,
      "stateMutability": "view",
      "type": "function"
    },
    {
      "constant": true,
      "inputs": [
        {
          "internalType": "address",
          "name": "",
          "type": "address"
        },
        {
          "internalType": "uint256",
          "name": "",
          "type": "uint256"
        }
      ],
      "name": "sharedfile",
      "outputs": [
        {
          "internalType": "uint256",
          "name": "",
          "type": "uint256"
        }
      ],
      "payable": false,
      "stateMutability": "view",
      "type": "function"
    },
    {
      "constant": false,
      "inputs": [
        {
          "internalType": "uint256[]",
          "name": "_LogFileId",
          "type": "uint256[]"
        },
        {
          "internalType": "address",
          "name": "_LogUser",
          "type": "address"
        }
      ],
      "name": "setlog",
      "outputs": [],
      "payable": false,
      "stateMutability": "nonpayable",
      "type": "function"
    },
    {
      "constant": false,
      "inputs": [
        {
          "internalType": "uint256",
          "name": "_LogFileId",
          "type": "uint256"
        },
        {
          "internalType": "address",
          "name": "_LogUser",
          "type": "address"
        }
      ],
      "name": "setdownloadlog",
      "outputs": [],
      "payable": false,
      "stateMutability": "nonpayable",
      "type": "function"
    },
    {
      "constant": false,
      "inputs": [
        {
          "internalType": "address",
          "name": "_LogUser",
          "type": "address"
        },
        {
          "internalType": "uint256",
          "name": "_DLResult",
          "type": "uint256"
        }
      ],
      "name": "setDLresult",
      "outputs": [],
      "payable": false,
      "stateMutability": "nonpayable",
      "type": "function"
    },
    {
      "constant": true,
      "inputs": [
        {
          "internalType": "address",
          "name": "_LogUser",
          "type": "address"
        }
      ],
      "name": "getinfohash",
      "outputs": [
        {
          "internalType": "string",
          "name": "",
          "type": "string"
        }
      ],
      "payable": false,
      "stateMutability": "view",
      "type": "function"
    },
    {
      "constant": true,
      "inputs": [
        {
          "internalType": "address",
          "name": "_LogUser",
          "type": "address"
        }
      ],
      "name": "getinfocrypto",
      "outputs": [
        {
          "internalType": "uint256",
          "name": "",
          "type": "uint256"
        }
      ],
      "payable": false,
      "stateMutability": "view",
      "type": "function"
    },
    {
      "constant": true,
      "inputs": [],
      "name": "loglength",
      "outputs": [
        {
          "internalType": "uint256",
          "name": "",
          "type": "uint256"
        }
      ],
      "payable": false,
      "stateMutability": "view",
      "type": "function"
    },
    {
      "constant": true,
      "inputs": [
        {
          "internalType": "uint256",
          "name": "_logid",
          "type": "uint256"
        }
      ],
      "name": "getlogid",
      "outputs": [
        {
          "internalType": "uint256",
          "name": "",
          "type": "uint256"
        }
      ],
      "payable": false,
      "stateMutability": "view",
      "type": "function"
    },
    {
      "constant": true,
      "inputs": [
        {
          "internalType": "uint256",
          "name": "_logid",
          "type": "uint256"
        }
      ],
      "name": "getloguser",
      "outputs": [
        {
          "internalType": "address",
          "name": "",
          "type": "address"
        }
      ],
      "payable": false,
      "stateMutability": "view",
      "type": "function"
    },
    {
      "constant": true,
      "inputs": [
        {
          "internalType": "uint256",
          "name": "_logid",
          "type": "uint256"
        }
      ],
      "name": "getlogtime",
      "outputs": [
        {
          "internalType": "uint256",
          "name": "",
          "type": "uint256"
        }
      ],
      "payable": false,
      "stateMutability": "view",
      "type": "function"
    },
    {
      "constant": true,
      "inputs": [
        {
          "internalType": "uint256",
          "name": "_logid",
          "type": "uint256"
        }
      ],
      "name": "getlogtype",
      "outputs": [
        {
          "internalType": "uint256",
          "name": "",
          "type": "uint256"
        }
      ],
      "payable": false,
      "stateMutability": "view",
      "type": "function"
    },
    {
      "constant": true,
      "inputs": [
        {
          "internalType": "uint256",
          "name": "_logid",
          "type": "uint256"
        }
      ],
      "name": "getdlresult",
      "outputs": [
        {
          "internalType": "uint256",
          "name": "",
          "type": "uint256"
        }
      ],
      "payable": false,
      "stateMutability": "view",
      "type": "function"
    },
    {
      "constant": true,
      "inputs": [
        {
          "internalType": "uint256",
          "name": "_fid",
          "type": "uint256"
        }
      ],
      "name": "getfileidtolog",
      "outputs": [
        {
          "internalType": "uint256[]",
          "name": "",
          "type": "uint256[]"
        }
      ],
      "payable": false,
      "stateMutability": "view",
      "type": "function"
    },
    {
      "constant": true,
      "inputs": [
        {
          "internalType": "uint256",
          "name": "_fid",
          "type": "uint256"
        },
        {
          "internalType": "uint256",
          "name": "_t1",
          "type": "uint256"
        },
        {
          "internalType": "uint256",
          "name": "_t2",
          "type": "uint256"
        },
        {
          "internalType": "uint256",
          "name": "_day",
          "type": "uint256"
        }
      ],
      "name": "getrefundhour",
      "outputs": [
        {
          "internalType": "uint256",
          "name": "",
          "type": "uint256"
        }
      ],
      "payable": false,
      "stateMutability": "view",
      "type": "function"
    },
    {
      "constant": false,
      "inputs": [
        {
          "internalType": "address payable",
          "name": "_user3",
          "type": "address"
        }
      ],
      "name": "ctestlog",
      "outputs": [],
      "payable": false,
      "stateMutability": "nonpayable",
      "type": "function"
    }
  ],
  "bytecode": "0x608060405234801561001057600080fd5b5061241f806100206000396000f3fe608060405234801561001057600080fd5b50600436106102115760003560e01c806374c626ec11610125578063b63453ae116100ad578063cc1c50341161007c578063cc1c503414610991578063d30b2f98146109b7578063de57e9b7146109d4578063f18c304914610a00578063fcd2f5fa14610a1d57610211565b8063b63453ae146108f3578063bef90ade14610910578063c12ced0c14610936578063cbfb9dd41461096557610211565b806395a7a544116100f457806395a7a5441461086e5780639bfdb269146108945780639f1bb069146108b1578063a0f76f73146108ce578063af535a63146108eb57610211565b806374c626ec146107e857806375112cbb1461080557806383cb313f1461082b57806395839f421461084857610211565b80634a8a26df116101a85780635f0f38bb116101775780635f0f38bb146106b957806360cdb0ff146106d657806365173543146106f35780636e1979091461071957806373d48b631461073c57610211565b80634a8a26df146104145780634c7ee8541461043a5780634dada7b31461045d5780635ec8bbc8146106b157610211565b8063276b08c3116101e4578063276b08c31461031157806330ec7e3d1461033757806344a8d93f146103655780634a176ba5146103db57610211565b80630202ace1146102165780630f95a3db146102a857806317aaa74e146102d75780631d4fa6df146102f4575b600080fd5b6102336004803603602081101561022c57600080fd5b5035610a49565b6040805160208082528351818301528351919283929083019185019080838360005b8381101561026d578181015183820152602001610255565b50505050905090810190601f16801561029a5780820380516001836020036101000a031916815260200191505b509250505060405180910390f35b6102c5600480360360208110156102be57600080fd5b5035610af7565b60408051918252519081900360200190f35b6102c5600480360360208110156102ed57600080fd5b5035610b1e565b6102c56004803603602081101561030a57600080fd5b5035610b45565b6102c56004803603602081101561032757600080fd5b50356001600160a01b0316610b6d565b6103636004803603604081101561034d57600080fd5b506001600160a01b038135169060200135610b7f565b005b61038b6004803603602081101561037b57600080fd5b50356001600160a01b0316610c02565b60408051602080825283518183015283519192839290830191858101910280838360005b838110156103c75781810151838201526020016103af565b505050509050019250505060405180910390f35b6103f8600480360360208110156103f157600080fd5b5035610c6d565b604080516001600160a01b039092168252519081900360200190f35b6102c56004803603602081101561042a57600080fd5b50356001600160a01b0316610c9e565b6103f86004803603604081101561045057600080fd5b5080359060200135610cb0565b610363600480360361010081101561047457600080fd5b810190602081018135600160201b81111561048e57600080fd5b8201836020820111156104a057600080fd5b803590602001918460018302840111600160201b831117156104c157600080fd5b91908080601f01602080910402602001604051908101604052809392919081815260200183838082843760009201919091525092956001600160a01b03853516959094909350604081019250602001359050600160201b81111561052457600080fd5b82018360208201111561053657600080fd5b803590602001918460018302840111600160201b8311171561055757600080fd5b91908080601f01602080910402602001604051908101604052809392919081815260200183838082843760009201919091525092958435959094909350604081019250602001359050600160201b8111156105b157600080fd5b8201836020820111156105c357600080fd5b803590602001918460018302840111600160201b831117156105e457600080fd5b91908080601f01602080910402602001604051908101604052809392919081815260200183838082843760009201919091525092958435959094909350604081019250602001359050600160201b81111561063e57600080fd5b82018360208201111561065057600080fd5b803590602001918460208302840111600160201b8311171561067157600080fd5b9190808060200260200160405190810160405280939291908181526020018383602002808284376000920191909152509295505091359250610cff915050565b6102c561111b565b61038b600480360360208110156106cf57600080fd5b5035611122565b6102c5600480360360208110156106ec57600080fd5b5035611182565b61038b6004803603602081101561070957600080fd5b50356001600160a01b03166111a9565b6102c56004803603604081101561072f57600080fd5b5080359060200135611213565b6103636004803603604081101561075257600080fd5b810190602081018135600160201b81111561076c57600080fd5b82018360208201111561077e57600080fd5b803590602001918460208302840111600160201b8311171561079f57600080fd5b919080806020026020016040519081016040528093929190818152602001838360200280828437600092019190915250929550505090356001600160a01b031691506112419050565b610363600480360360208110156107fe57600080fd5b50356113b3565b6102c56004803603602081101561081b57600080fd5b50356001600160a01b0316611481565b6102336004803603602081101561084157600080fd5b5035611493565b6103636004803603602081101561085e57600080fd5b50356001600160a01b0316611542565b6102336004803603602081101561088457600080fd5b50356001600160a01b03166119ea565b6102c5600480360360208110156108aa57600080fd5b5035611a3e565b6102c5600480360360208110156108c757600080fd5b5035611a65565b610233600480360360208110156108e457600080fd5b5035611a8d565b6102c5611b09565b6102c56004803603602081101561090957600080fd5b5035611b0f565b6102c56004803603602081101561092657600080fd5b50356001600160a01b0316611b37565b6102c56004803603608081101561094c57600080fd5b5080359060208101359060408101359060600135611b52565b6103636004803603604081101561097b57600080fd5b50803590602001356001600160a01b0316611f82565b6102c5600480360360208110156109a757600080fd5b50356001600160a01b0316612108565b6102c5600480360360208110156109cd57600080fd5b503561214d565b6102c5600480360360408110156109ea57600080fd5b506001600160a01b038135169060200135612175565b6103f860048036036020811015610a1657600080fd5b503561218e565b6102c560048036036040811015610a3357600080fd5b506001600160a01b0381351690602001356121c0565b606060008281548110610a5857fe5b6000918252602091829020600990910201805460408051601f6002600019610100600187161502019094169390930492830185900485028101850190915281815292830182828015610aeb5780601f10610ac057610100808354040283529160200191610aeb565b820191906000526020600020905b815481529060010190602001808311610ace57829003601f168201915b50505050509050919050565b6000808281548110610b0557fe5b9060005260206000209060090201600401549050919050565b6000808281548110610b2c57fe5b9060005260206000209060090201600601549050919050565b600060048281548110610b5457fe5b9060005260206000209060050201600201549050919050565b60036020526000908152604090205481565b6001600160a01b038216600090815260076020526040902054600114610ba457600080fd5b6001600160a01b0382166000908152600660205260408120546004805491929183908110610bce57fe5b60009182526020808320600460059093020191909101949094556001600160a01b0390941684525050600790526040812055565b6001600160a01b038116600090815260016020908152604091829020805483518184028101840190945280845260609392830182828015610aeb57602002820191906000526020600020905b815481526020019060010190808311610c4e5750505050509050919050565b6000808281548110610c7b57fe5b60009182526020909120600990910201600101546001600160a01b031692915050565b60076020526000908152604090205481565b60008060008481548110610cc057fe5b906000526020600020906009020190506000816007018481548110610ce157fe5b6000918252602090912001546001600160a01b031695945050505050565b60408051610120810182528981526001600160a01b03891660208083019190915291810188905242606082018190526080820188905260a0820187905260c0820186905260e08201859052610100820184905260008054600181810180845583805285518051959794969295919492936009027f290decd9548b62a8d60345a988386fc84ba6bc95484008f6362f93160ef3e5630192610da4928492909101906121e8565b506020828101516001830180546001600160a01b0319166001600160a01b0390921691909117905560408301518051610de392600285019201906121e8565b50606082015160038201556080820151600482015560a08201518051610e139160058401916020909101906121e8565b5060c0820151600682015560e08201518051610e39916007840191602090910190612266565b5061010091909101516008909101556001600160a01b038b16600081815260016020818152604083208054928301815580845290832095909403940184905552805491925090610e8c90829081906122c7565b5085600314156110f35784600181518110610ea357fe5b60200260200101516001600160a01b03168a6001600160a01b031614610f5e5760006002600087600181518110610ed657fe5b6020908102919091018101516001600160a01b031682528181019290925260400160009081208054600181810183558284529383200186905588519093508392600292918a91908110610f2557fe5b60200260200101516001600160a01b03166001600160a01b03168152602001908152602001600020908054610f5b9291906122c7565b50505b84600281518110610f6b57fe5b60200260200101516001600160a01b03168a6001600160a01b0316146110285760006002600087600281518110610f9e57fe5b6020908102919091018101516001600160a01b0316825281810192909252604001600090812080546001810182558183529282209092018590558751919250829160029190899083908110610fef57fe5b60200260200101516001600160a01b03166001600160a01b031681526020019081526020016000209080546110259291906122c7565b50505b8460038151811061103557fe5b60200260200101516001600160a01b03168a6001600160a01b0316146110f3576000600260008760038151811061106857fe5b6020908102919091018101516001600160a01b0316825281810192909252604001600090812080546001810182558183529282209092018590558751919250829160029190899060039081106110ba57fe5b60200260200101516001600160a01b03166001600160a01b031681526020019081526020016000209080546110f09291906122c7565b50505b506001600160a01b039098166000908152600360205260409020979097555050505050505050565b6004545b90565b600081815260056020908152604091829020805483518184028101840190945280845260609392830182828015610aeb5760200282019190600052602060002090815481526020019060010190808311610c4e5750505050509050919050565b600080828154811061119057fe5b9060005260206000209060090201600801549050919050565b6001600160a01b038116600090815260026020908152604091829020805483518184028101840190945280845260609392830182828015610aeb5760200282019190600052602060002090815481526020019060010190808311610c4e5750505050509050919050565b6005602052816000526040600020818154811061122c57fe5b90600052602060002001600091509150505481565b4260005b60058110156113ad5783818151811061125a57fe5b6020026020010151600114156113a5576000600160046040518060a0016040528088866005018151811061128a57fe5b60209081029190910181015182526001600160a01b038981168383015260408084018a9052600160608086018290526000608096870181905288548084018a5598815285812088516005808c029092019081559689015187850180546001600160a01b0319169190971617909555928701516002860155860151600385015594909301516004909201919091558951949093039091019350918290889086840190811061133357fe5b602090810291909101810151825281810192909252604001600090812080546001810182558183529282209092018490558751919250829160059190899087840190811061137d57fe5b602002602001015181526020019081526020016000209080546113a19291906122c7565b5050505b600101611245565b50505050565b60008082815481106113c157fe5b6000918252602090912060099091020160018101549091506001600160a01b031633146113ed57600080fd5b600082815481106113fa57fe5b600091825260208220600990910201906114148282612307565b6001820180546001600160a01b0319169055611434600283016000612307565b600382016000905560048201600090556005820160006114549190612307565b600682016000905560078201600061146c919061234e565b50600060089190910181905560069091015550565b60066020526000908152604090205481565b6060600082815481106114a257fe5b60009182526020909120600990910201600101546001600160a01b031633146114ca57600080fd5b600082815481106114d757fe5b6000918252602091829020600560099092020101805460408051601f6002600019610100600187161502019094169390930492830185900485028101850190915281815292830182828015610aeb5780601f10610ac057610100808354040283529160200191610aeb565b6000600160046040518060a0016040528060008152602001856001600160a01b031681526020016363143ee08152602001600281526020016001815250908060018154018082558091505090600182039060005260206000209060050201600090919290919091506000820151816000015560208201518160010160006101000a8154816001600160a01b0302191690836001600160a01b0316021790555060408201518160020155606082015181600301556080820151816004015550500390506000600160046040518060a0016040528060008152602001866001600160a01b0316815260200163631445e88152602001600281526020016002815250908060018154018082558091505090600182039060005260206000209060050201600090919290919091506000820151816000015560208201518160010160006101000a8154816001600160a01b0302191690836001600160a01b0316021790555060408201518160020155606082015181600301556080820151816004015550500390506000600160046040518060a0016040528060008152602001876001600160a01b0316815260200163631574408152602001600281526020016001815250908060018154018082558091505090600182039060005260206000209060050201600090919290919091506000820151816000015560208201518160010160006101000a8154816001600160a01b0302191690836001600160a01b0316021790555060408201518160020155606082015181600301556080820151816004015550500390506000600160046040518060a0016040528060008152602001886001600160a01b0316815260200163631582508152602001600281526020016002815250908060018154018082558091505090600182039060005260206000209060050201600090919290919091506000820151816000015560208201518160010160006101000a8154816001600160a01b0302191690836001600160a01b0316021790555060408201518160020155606082015181600301556080820151816004015550500390506000600160046040518060a0016040528060008152602001896001600160a01b03168152602001636316b7b08152602001600281526020016002815250908060018154018082558091505090600182039060005260206000209060050201600090919290919091506000820151816000015560208201518160010160006101000a8154816001600160a01b0302191690836001600160a01b0316021790555060408201518160020155606082015181600301556080820151816004015550500390506040518060400160405280600060ff168152602001600160ff168152506005600080815260200190815260200160002090600261194a92919061236c565b506040805180820190915260028082526003602080840191909152600160005260059052611999917f1471eb6eb2c5e789fc3de43f8ce62938c7d1836ec861730447e2ada8fd81017b9161236c565b5060408051602080820190925260048152600260005260059091526119e1907f89832631fb3c3307a103ba2c84ab569c64d6182a18893dcd163f0f1c2090733a90600161236c565b50505050505050565b6001600160a01b03811660009081526006602052604081205460048054606093919083908110611a1657fe5b90600052602060002090600502016000015490506060611a35826121d9565b95945050505050565b6000808281548110611a4c57fe5b9060005260206000209060090201600301549050919050565b600060048281548110611a7457fe5b9060005260206000209060050201600401549050919050565b606060008281548110611a9c57fe5b600091825260209182902060026009909202018101805460408051601f600019610100600186161502019093169490940491820185900485028401850190528083529192909190830182828015610aeb5780601f10610ac057610100808354040283529160200191610aeb565b60005490565b600060048281548110611b1e57fe5b9060005260206000209060050201600001549050919050565b6001600160a01b031660009081526003602052604090205490565b600084815260056020526040812062015180830280860390850383805b8454811015611f75576004858281548110611b8657fe5b906000526020600020015481548110611b9b57fe5b90600052602060002090600502016004015460021415611f6d5760008080805b8a600101811015611f6157806201518002880160048a8781548110611bdc57fe5b906000526020600020015481548110611bf157fe5b90600052602060002090600502016002015410158015611c4c5750806201518002870160048a8781548110611c2257fe5b906000526020600020015481548110611c3757fe5b90600052602060002090600502016002015411155b15611f595760009350610e1088880304925060015b83600101811015611cc85780610e10028262015180028a010160048b8881548110611c8857fe5b906000526020600020015481548110611c9d57fe5b9060005260206000209060050201600201541015611cc057600019019150600183015b600101611c61565b508415801590611d0f57506004896001870381548110611ce457fe5b906000526020600020015481548110611cf957fe5b9060005260206000209060050201600401546001145b15611de05760015b83600101811015611dde57816201518002890160048b6001890381548110611d3b57fe5b906000526020600020015481548110611d5057fe5b90600052602060002090600502016002015410158015611db3575080610e10028262015180028a010160048b6001890381548110611d8a57fe5b906000526020600020015481548110611d9f57fe5b906000526020600020906005020160020154105b15611dd6576000198101945082851415611dd05760009450600093505b50600183015b600101611d17565b505b60015b8954869003811015611f5257816201518002880160048b83890181548110611e0757fe5b906000526020600020015481548110611e1c57fe5b90600052602060002090600502016002015411611f465760048a82880181548110611e4357fe5b906000526020600020015481548110611e5857fe5b90600052602060002090600502016004015460021415611e7d57600190950194600019015b60048a82880181548110611e8d57fe5b906000526020600020015481548110611ea257fe5b90600052602060002090600502016004015460011415611f415760015b84600101811015611f3f5780610e10028362015180028b010160048c848a0181548110611ee857fe5b906000526020600020015481548110611efd57fe5b9060005260206000209060050201600201541015611f37578a5460001982019550915083851415611f315760009550600094505b50600184015b600101611ebf565b505b611f4a565b5088545b600101611de3565b505060018a015b600101611bbb565b50828286010394505050505b600101611b6f565b5098975050505050505050565b6040805160a0810182528381526001600160a01b03808416602080840191825242848601818152600260608701908152600160808801818152600480548084018255600091825299516005808c027f8a35acfbc15ff81a39ae7d344fd709f28e8600b4aa8c65c6b64bfe7fe36bd19b81019290925598517f8a35acfbc15ff81a39ae7d344fd709f28e8600b4aa8c65c6b64bfe7fe36bd19c8201805491909b166001600160a01b03199091161790995593517f8a35acfbc15ff81a39ae7d344fd709f28e8600b4aa8c65c6b64bfe7fe36bd19d89015591517f8a35acfbc15ff81a39ae7d344fd709f28e8600b4aa8c65c6b64bfe7fe36bd19e88015590517f8a35acfbc15ff81a39ae7d344fd709f28e8600b4aa8c65c6b64bfe7fe36bd19f909601959095558881529282529482208054938401815580835290822090920183905585905280546120d690829081906122c7565b50506001600160a01b039092166000908152600660209081526040808320949094556007905291909120600190555050565b6001600160a01b038116600090815260066020526040812054600480548391908390811061213257fe5b600091825260208220600590910201549150611a3582611182565b60006004828154811061215c57fe5b9060005260206000209060050201600301549050919050565b6001602052816000526040600020818154811061122c57fe5b60006004828154811061219d57fe5b60009182526020909120600590910201600101546001600160a01b031692915050565b6002602052816000526040600020818154811061122c57fe5b6060600082815481106114d757fe5b828054600181600116156101000203166002900490600052602060002090601f016020900481019282601f1061222957805160ff1916838001178555612256565b82800160010185558215612256579182015b8281111561225657825182559160200191906001019061223b565b506122629291506123ac565b5090565b8280548282559060005260206000209081019282156122bb579160200282015b828111156122bb57825182546001600160a01b0319166001600160a01b03909116178255602090920191600190910190612286565b506122629291506123c6565b8280548282559060005260206000209081019282156122565760005260206000209182015b828111156122565782548255916001019190600101906122ec565b50805460018160011615610100020316600290046000825580601f1061232d575061234b565b601f01602090049060005260206000209081019061234b91906123ac565b50565b508054600082559060005260206000209081019061234b91906123ac565b828054828255906000526020600020908101928215612256579160200282015b82811115612256578251829060ff1690559160200191906001019061238c565b61111f91905b8082111561226257600081556001016123b2565b61111f91905b808211156122625780546001600160a01b03191681556001016123cc56fea265627a7a72315820bbd551b5a8e0ae9ce304a217b61cd47d72de30c6b739d40e35ad219af3f1f0ab64736f6c63430005100032",
  "source": "pragma solidity >=0.4.21 <0.7.0;\r\n\r\nimport \"./FileInfo.sol\";\r\n\r\ncontract FileLog is FileInfo {\r\n\r\n\r\n    struct loginfo{\r\n        \r\n        uint LogFileId;\r\n        address LogUser;\r\n        uint256 LogTime;\r\n        uint LogType;  \r\n        uint DLResult; \r\n        \r\n    }\r\n\r\n    loginfo[] internal loginfos;\r\n\r\n    mapping (uint => uint[]) public fileidtolog;\r\n    mapping (address => uint) public loginfonow;\r\n    mapping (address => uint) public DLRcheck;\r\n\r\n    function setlog(uint[] memory _LogFileId, address _LogUser) public  {\r\n        \r\n        uint256 _LogTime = now;\r\n        for (uint i= 0;i<5;i++){\r\n          if(_LogFileId[i]==1){\r\n            uint itid = loginfos.push(loginfo(_LogFileId[i+5], _LogUser, _LogTime, 1, 0)) - 1;\r\n\r\n            uint[] storage loglist = fileidtolog[_LogFileId[i+5]];\r\n            loglist.push(itid);\r\n            fileidtolog[_LogFileId[i+5]] = loglist;\r\n          }\r\n        }\r\n        \r\n    } \r\n\r\n    function setdownloadlog(uint _LogFileId, address _LogUser) public  {\r\n        \r\n        uint256 _LogTime = now;\r\n        uint itid = loginfos.push(loginfo(_LogFileId, _LogUser, _LogTime, 2, 1)) - 1;\r\n\r\n        uint[] storage loglist = fileidtolog[_LogFileId];\r\n        loglist.push(itid);\r\n        fileidtolog[_LogFileId] = loglist;\r\n\r\n        loginfonow[_LogUser] = itid;\r\n        DLRcheck[_LogUser] = 1;\r\n         \r\n        \r\n    }\r\n\r\n    function setDLresult(address _LogUser, uint _DLResult) public {\r\n\r\n      require(DLRcheck[_LogUser] == 1);\r\n      uint lid = loginfonow[_LogUser];\r\n      loginfo storage target = loginfos[lid];\r\n      target.DLResult = _DLResult;\r\n      DLRcheck[_LogUser] = 0;\r\n\r\n    }\r\n\r\n    function getinfohash(address _LogUser) public view  returns (string memory) {\r\n\r\n      uint lid = loginfonow[_LogUser];\r\n      uint fid = loginfos[lid].LogFileId;\r\n\r\n      string memory h = FileInfo.gethash(fid);\r\n    \r\n\t\t  return h ;\r\n\r\n    }\r\n\r\n    function getinfocrypto(address _LogUser) public view  returns (uint) {\r\n\r\n      uint lid = loginfonow[_LogUser];\r\n      uint fid = loginfos[lid].LogFileId;\r\n\r\n      uint c = FileInfo.getcrypto(fid);\r\n    \r\n\t\t  return c ;\r\n\r\n    }  \r\n\r\n    function loglength() public view  returns (uint) {\r\n\r\n\t\t  return (loginfos.length) ;\r\n\r\n  \t}  \r\n    \r\n  \r\n\r\n    function getlogid(uint _logid) public view  returns (uint){\r\n        \r\n      return (loginfos[_logid].LogFileId);\r\n        \r\n    }  \r\n\r\n    function getloguser(uint _logid) public view  returns (address){\r\n        \r\n      return (loginfos[_logid].LogUser);\r\n        \r\n    }\r\n\r\n    function getlogtime(uint _logid) public view  returns (uint256){\r\n        \r\n      return (loginfos[_logid].LogTime);\r\n        \r\n    }\r\n\r\n    function getlogtype(uint _logid) public view  returns (uint256){\r\n        \r\n      return (loginfos[_logid].LogType);\r\n        \r\n    }\r\n\r\n    function getdlresult(uint _logid) public view  returns (uint){\r\n        \r\n      return (loginfos[_logid].DLResult);\r\n        \r\n    }\r\n\r\n    function getfileidtolog(uint _fid) public view  returns (uint[] memory){\r\n        \r\n      return fileidtolog[_fid];\r\n        \r\n    }\r\n\r\n    function getrefundhour(uint _fid, uint256 _t1, uint256 _t2, uint _day) public view  returns (uint){\r\n      \r\n      uint[] storage loglist = fileidtolog[_fid];\r\n      uint256 st1 = _t1 - (86400*_day);\r\n      uint256 st2 = _t2 - (86400*_day);\r\n\r\n      uint rfhour = 0;\r\n      \r\n      for(uint i=0 ; i<loglist.length ; i++){\r\n        if(loginfos[loglist[i]].DLResult==2){\r\n          uint rh1 = 0;\r\n          uint rh2 = 0;\r\n          uint th = 0;\r\n\r\n          for(uint j=0; j< _day+1; j++ ){\r\n              if(loginfos[loglist[i]].LogTime >= (st1+86400*j) && loginfos[loglist[i]].LogTime <= (st2+86400*j)){\r\n\r\n                rh1 = 0;\r\n                rh2 = (st2-st1)/3600;\r\n\r\n                for(uint h=1; h<rh2+1; h++){\r\n                    if(loginfos[loglist[i]].LogTime < (st1+86400*j)+3600*h){\r\n                      th = h-1 ;\r\n                      h = rh2+1;\r\n                    }\r\n\r\n                }\r\n\r\n                if( i != 0 && loginfos[loglist[i-1]].DLResult==1){\r\n                  for(uint k=1; k<rh2+1; k++){\r\n                    if(loginfos[loglist[i-1]].LogTime >= (st1+86400*j) && loginfos[loglist[i-1]].LogTime < (st1+86400*j)+3600*k){\r\n                      rh1 = k-1 ;\r\n                      if (th == k-1){\r\n                        rh1 = 0;\r\n                        rh2 = 0;\r\n                      }\r\n                      k = rh2+1;\r\n                    }\r\n\r\n                  }\r\n                }\r\n\r\n                for(uint m=1;m<loglist.length-i;m++){\r\n                  if(loginfos[loglist[i+m]].LogTime <= (st2+86400*j)){\r\n                    if(loginfos[loglist[i+m]].DLResult==2){\r\n                      i = i+1;\r\n                      m = m-1;\r\n                    }\r\n\r\n                    if(loginfos[loglist[i+m]].DLResult==1){\r\n                      for(uint n=1; n<rh2+1; n++){\r\n                        if(loginfos[loglist[i+m]].LogTime < (st1+86400*j)+3600*n){\r\n                          rh2 = n-1 ;\r\n                          m = loglist.length;\r\n                          if (th == n-1){\r\n                            rh1 = 0;\r\n                            rh2 = 0;\r\n                          }\r\n                          n = rh2+1;\r\n                        }\r\n                      }\r\n                    }\r\n                  }else{\r\n                      m = loglist.length;\r\n                  }\r\n\r\n                }\r\n\r\n                j = _day+1;\r\n              }\r\n\r\n          }\r\n\r\n          rfhour = rfhour + rh2 - rh1;\r\n        }\r\n\r\n      }\r\n\r\n      return rfhour;\r\n        \r\n    }\r\n\r\n    function ctestlog(address payable _user3) public  {\r\n\r\n      uint id5 = loginfos.push(loginfo(0, _user3, 1662271200, 2, 1)) - 1;\r\n      uint id6 = loginfos.push(loginfo(0, _user3, 1662273000, 2, 2)) - 1;\r\n      uint id7 = loginfos.push(loginfo(0, _user3, 1662350400, 2, 1)) - 1;\r\n      uint id8 = loginfos.push(loginfo(0, _user3, 1662354000, 2, 2)) - 1;\r\n      uint id9 = loginfos.push(loginfo(0, _user3, 1662433200, 2, 2)) - 1;\r\n\r\n      fileidtolog[0] = [0, 1];\r\n      fileidtolog[1] = [2, 3];\r\n      fileidtolog[2] = [4];\r\n\r\n    }\r\n  \r\n\r\n}",
  "sourcePath": "C:\\Users\\\\demo1\\contracts\\FileLog.sol",
  "compiler": {
    "name": "solc",
    "version": "0.5.16+commit.9c3226ce.Emscripten.clang"
  },
  "schemaVersion": "3.4.8",
  "updatedAt": "2023-01-29T21:13:27.732Z",
  "devdoc": {
    "methods": {}
  },
  "userdoc": {
    "methods": {}
  }
}