{
  "contractName": "Identity",
  "abi": [
    {
      "constant": true,
      "inputs": [
        {
          "internalType": "address",
          "name": "",
          "type": "address"
        }
      ],
      "name": "UserPublicKey",
      "outputs": [
        {
          "internalType": "string",
          "name": "",
          "type": "string"
        }
      ],
      "payable": false,
      "stateMutability": "view",
      "type": "function"
    },
    {
      "constant": true,
      "inputs": [
        {
          "internalType": "address",
          "name": "",
          "type": "address"
        }
      ],
      "name": "isRegister",
      "outputs": [
        {
          "internalType": "uint256",
          "name": "",
          "type": "uint256"
        }
      ],
      "payable": false,
      "stateMutability": "view",
      "type": "function"
    },
    {
      "constant": false,
      "inputs": [
        {
          "internalType": "address",
          "name": "_user",
          "type": "address"
        },
        {
          "internalType": "string",
          "name": "publickey",
          "type": "string"
        }
      ],
      "name": "register",
      "outputs": [],
      "payable": false,
      "stateMutability": "nonpayable",
      "type": "function"
    },
    {
      "constant": true,
      "inputs": [
        {
          "internalType": "address",
          "name": "_user",
          "type": "address"
        }
      ],
      "name": "check",
      "outputs": [
        {
          "internalType": "uint256",
          "name": "",
          "type": "uint256"
        }
      ],
      "payable": false,
      "stateMutability": "view",
      "type": "function"
    },
    {
      "constant": true,
      "inputs": [
        {
          "internalType": "address",
          "name": "_user",
          "type": "address"
        }
      ],
      "name": "getpublickey",
      "outputs": [
        {
          "internalType": "string",
          "name": "",
          "type": "string"
        }
      ],
      "payable": false,
      "stateMutability": "view",
      "type": "function"
    }
  ],
  "bytecode": "0x608060405234801561001057600080fd5b506104d3806100206000396000f3fe608060405234801561001057600080fd5b50600436106100575760003560e01c806322fdef941461005c57806332434a2e146100945780634ad63b261461014c578063a4849d2c146101e7578063c23697a81461020d575b600080fd5b6100826004803603602081101561007257600080fd5b50356001600160a01b0316610233565b60408051918252519081900360200190f35b61014a600480360360408110156100aa57600080fd5b6001600160a01b0382351691908101906040810160208201356401000000008111156100d557600080fd5b8201836020820111156100e757600080fd5b8035906020019184600183028401116401000000008311171561010957600080fd5b91908080601f016020809104026020016040519081016040528093929190818152602001838380828437600092019190915250929550610245945050505050565b005b6101726004803603602081101561016257600080fd5b50356001600160a01b03166102a2565b6040805160208082528351818301528351919283929083019185019080838360005b838110156101ac578181015183820152602001610194565b50505050905090810190601f1680156101d95780820380516001836020036101000a031916815260200191505b509250505060405180910390f35b610172600480360360208110156101fd57600080fd5b50356001600160a01b031661034e565b6100826004803603602081101561022357600080fd5b50356001600160a01b03166103e8565b60006020819052908152604090205481565b6001600160a01b0382166000908152602081905260409020546001141561026b57600080fd5b6001600160a01b0382166000908152602081815260408083206001908190558252909120825161029d92840190610403565b505050565b6001600160a01b03811660009081526001602081815260409283902080548451600294821615610100026000190190911693909304601f81018390048302840183019094528383526060938493928301828280156103415780601f1061031657610100808354040283529160200191610341565b820191906000526020600020905b81548152906001019060200180831161032457829003601f168201915b5093979650505050505050565b60016020818152600092835260409283902080548451600294821615610100026000190190911693909304601f81018390048302840183019094528383529192908301828280156103e05780601f106103b5576101008083540402835291602001916103e0565b820191906000526020600020905b8154815290600101906020018083116103c357829003601f168201915b505050505081565b6001600160a01b031660009081526020819052604090205490565b828054600181600116156101000203166002900490600052602060002090601f016020900481019282601f1061044457805160ff1916838001178555610471565b82800160010185558215610471579182015b82811115610471578251825591602001919060010190610456565b5061047d929150610481565b5090565b61049b91905b8082111561047d5760008155600101610487565b9056fea265627a7a723158203a63247ce629222a2fff301ee93133975f8f94ed846c88581dd7e10812866fb064736f6c63430005100032",
  "source": "pragma solidity >=0.4.21 <0.7.0;\n\ncontract Identity {\n\n  \n\tmapping(address => uint) public isRegister;\n\tmapping(address => string) public UserPublicKey;\n\n\n\tfunction register(address _user, string memory publickey) public  {\n\t\t\n\t\t\n\t\trequire(isRegister[_user] != 1);\n\t\t\t\n\t\t\tisRegister[_user] = 1;\n\t\t\tUserPublicKey[_user] = publickey;\n\n\n  \t}\n\n  \tfunction check(address _user) public view returns (uint) {\n\t\t\n\t\tuint usercheck = isRegister[_user] ;\n\t\t\n\t\treturn usercheck ;\n\n  \t}\n\n\tfunction getpublickey(address _user) public view returns (string memory) {\n\t\t\n\t\tstring memory pubkey = UserPublicKey[_user];\n\t\t\n\t\treturn pubkey ;\n\n  \t}\n\n}\n",
  "sourcePath": "C:\\Users\\陳彥澤\\demo1\\contracts\\Identity.sol",
  "compiler": {
    "name": "solc",
    "version": "0.5.16+commit.9c3226ce.Emscripten.clang"
  },
  "schemaVersion": "3.4.8",
  "updatedAt": "2023-01-29T21:13:33.764Z",
  "networkType": "ethereum",
  "devdoc": {
    "methods": {}
  },
  "userdoc": {
    "methods": {}
  }
}