{
  "contractName": "StorageJob",
  "abi": [
    {
      "constant": true,
      "inputs": [],
      "name": "Availablelength",
      "outputs": [
        {
          "internalType": "uint256",
          "name": "",
          "type": "uint256"
        }
      ],
      "payable": false,
      "stateMutability": "view",
      "type": "function"
    },
    {
      "constant": true,
      "inputs": [
        {
          "internalType": "address",
          "name": "",
          "type": "address"
        }
      ],
      "name": "DLRcheck",
      "outputs": [
        {
          "internalType": "uint256",
          "name": "",
          "type": "uint256"
        }
      ],
      "payable": false,
      "stateMutability": "view",
      "type": "function"
    },
    {
      "constant": true,
      "inputs": [
        {
          "internalType": "address",
          "name": "",
          "type": "address"
        }
      ],
      "name": "Jobidnow",
      "outputs": [
        {
          "internalType": "uint256",
          "name": "",
          "type": "uint256"
        }
      ],
      "payable": false,
      "stateMutability": "view",
      "type": "function"
    },
    {
      "constant": true,
      "inputs": [
        {
          "internalType": "address",
          "name": "",
          "type": "address"
        },
        {
          "internalType": "uint256",
          "name": "",
          "type": "uint256"
        }
      ],
      "name": "OwnJobID",
      "outputs": [
        {
          "internalType": "uint256",
          "name": "",
          "type": "uint256"
        }
      ],
      "payable": false,
      "stateMutability": "view",
      "type": "function"
    },
    {
      "constant": true,
      "inputs": [
        {
          "internalType": "address",
          "name": "",
          "type": "address"
        },
        {
          "internalType": "uint256",
          "name": "",
          "type": "uint256"
        }
      ],
      "name": "OwnProjectID",
      "outputs": [
        {
          "internalType": "uint256",
          "name": "",
          "type": "uint256"
        }
      ],
      "payable": false,
      "stateMutability": "view",
      "type": "function"
    },
    {
      "constant": true,
      "inputs": [
        {
          "internalType": "uint256",
          "name": "",
          "type": "uint256"
        },
        {
          "internalType": "uint256",
          "name": "",
          "type": "uint256"
        }
      ],
      "name": "ProjectOwnJobID",
      "outputs": [
        {
          "internalType": "uint256",
          "name": "",
          "type": "uint256"
        }
      ],
      "payable": false,
      "stateMutability": "view",
      "type": "function"
    },
    {
      "constant": false,
      "inputs": [
        {
          "internalType": "uint256",
          "name": "_ProjectType",
          "type": "uint256"
        },
        {
          "internalType": "address payable",
          "name": "_ProjectOwnerID",
          "type": "address"
        },
        {
          "internalType": "uint256",
          "name": "_Capacity",
          "type": "uint256"
        },
        {
          "internalType": "uint256",
          "name": "_Price",
          "type": "uint256"
        },
        {
          "internalType": "uint256[]",
          "name": "_ServiceTime",
          "type": "uint256[]"
        },
        {
          "internalType": "uint256",
          "name": "_ServiceEnd",
          "type": "uint256"
        },
        {
          "internalType": "uint256",
          "name": "_EndStamp",
          "type": "uint256"
        },
        {
          "internalType": "uint256",
          "name": "_Area",
          "type": "uint256"
        }
      ],
      "name": "createProject",
      "outputs": [],
      "payable": false,
      "stateMutability": "nonpayable",
      "type": "function"
    },
    {
      "constant": false,
      "inputs": [
        {
          "internalType": "string",
          "name": "_name",
          "type": "string"
        },
        {
          "internalType": "address",
          "name": "_uploader",
          "type": "address"
        },
        {
          "internalType": "string",
          "name": "_keyword",
          "type": "string"
        },
        {
          "internalType": "uint256",
          "name": "_filesize",
          "type": "uint256"
        },
        {
          "internalType": "string",
          "name": "_hash",
          "type": "string"
        },
        {
          "internalType": "uint256",
          "name": "_sharetype",
          "type": "uint256"
        },
        {
          "internalType": "address[]",
          "name": "_shareaddress",
          "type": "address[]"
        },
        {
          "internalType": "uint256",
          "name": "_cryptoid",
          "type": "uint256"
        }
      ],
      "name": "createinfo",
      "outputs": [],
      "payable": false,
      "stateMutability": "nonpayable",
      "type": "function"
    },
    {
      "constant": false,
      "inputs": [
        {
          "internalType": "address payable",
          "name": "_user3",
          "type": "address"
        }
      ],
      "name": "ctestlog",
      "outputs": [],
      "payable": false,
      "stateMutability": "nonpayable",
      "type": "function"
    },
    {
      "constant": false,
      "inputs": [
        {
          "internalType": "address payable",
          "name": "_user1",
          "type": "address"
        },
        {
          "internalType": "uint256[]",
          "name": "_testat",
          "type": "uint256[]"
        }
      ],
      "name": "ctestproject",
      "outputs": [],
      "payable": false,
      "stateMutability": "nonpayable",
      "type": "function"
    },
    {
      "constant": false,
      "inputs": [
        {
          "internalType": "uint256",
          "name": "_fid",
          "type": "uint256"
        }
      ],
      "name": "deletefile",
      "outputs": [],
      "payable": false,
      "stateMutability": "nonpayable",
      "type": "function"
    },
    {
      "constant": true,
      "inputs": [
        {
          "internalType": "address",
          "name": "",
          "type": "address"
        }
      ],
      "name": "fileidnow",
      "outputs": [
        {
          "internalType": "uint256",
          "name": "",
          "type": "uint256"
        }
      ],
      "payable": false,
      "stateMutability": "view",
      "type": "function"
    },
    {
      "constant": true,
      "inputs": [
        {
          "internalType": "uint256",
          "name": "",
          "type": "uint256"
        },
        {
          "internalType": "uint256",
          "name": "",
          "type": "uint256"
        }
      ],
      "name": "fileidtolog",
      "outputs": [
        {
          "internalType": "uint256",
          "name": "",
          "type": "uint256"
        }
      ],
      "payable": false,
      "stateMutability": "view",
      "type": "function"
    },
    {
      "constant": true,
      "inputs": [],
      "name": "flength",
      "outputs": [
        {
          "internalType": "uint256",
          "name": "",
          "type": "uint256"
        }
      ],
      "payable": false,
      "stateMutability": "view",
      "type": "function"
    },
    {
      "constant": true,
      "inputs": [
        {
          "internalType": "uint256",
          "name": "_indexID",
          "type": "uint256"
        },
        {
          "internalType": "uint256",
          "name": "_FileSize",
          "type": "uint256"
        },
        {
          "internalType": "uint256",
          "name": "_StorageEnd",
          "type": "uint256"
        },
        {
          "internalType": "uint256",
          "name": "_Area",
          "type": "uint256"
        },
        {
          "internalType": "uint256",
          "name": "_HourNow",
          "type": "uint256"
        }
      ],
      "name": "getAvailable",
      "outputs": [
        {
          "internalType": "uint256",
          "name": "",
          "type": "uint256"
        },
        {
          "internalType": "uint256",
          "name": "",
          "type": "uint256"
        },
        {
          "internalType": "uint256",
          "name": "",
          "type": "uint256"
        },
        {
          "internalType": "uint256[]",
          "name": "",
          "type": "uint256[]"
        },
        {
          "internalType": "uint256",
          "name": "",
          "type": "uint256"
        },
        {
          "internalType": "uint256",
          "name": "",
          "type": "uint256"
        }
      ],
      "payable": false,
      "stateMutability": "view",
      "type": "function"
    },
    {
      "constant": true,
      "inputs": [
        {
          "internalType": "uint256",
          "name": "_pid",
          "type": "uint256"
        }
      ],
      "name": "getCap",
      "outputs": [
        {
          "internalType": "uint256",
          "name": "",
          "type": "uint256"
        }
      ],
      "payable": false,
      "stateMutability": "view",
      "type": "function"
    },
    {
      "constant": true,
      "inputs": [
        {
          "internalType": "uint256",
          "name": "_pid",
          "type": "uint256"
        }
      ],
      "name": "getEndStamp",
      "outputs": [
        {
          "internalType": "uint256",
          "name": "",
          "type": "uint256"
        }
      ],
      "payable": false,
      "stateMutability": "view",
      "type": "function"
    },
    {
      "constant": true,
      "inputs": [
        {
          "internalType": "uint256",
          "name": "_pid",
          "type": "uint256"
        }
      ],
      "name": "getPrice",
      "outputs": [
        {
          "internalType": "uint256",
          "name": "",
          "type": "uint256"
        }
      ],
      "payable": false,
      "stateMutability": "view",
      "type": "function"
    },
    {
      "constant": true,
      "inputs": [
        {
          "internalType": "uint256",
          "name": "_pid",
          "type": "uint256"
        }
      ],
      "name": "getProjectOwner",
      "outputs": [
        {
          "internalType": "address payable",
          "name": "",
          "type": "address"
        }
      ],
      "payable": false,
      "stateMutability": "view",
      "type": "function"
    },
    {
      "constant": true,
      "inputs": [
        {
          "internalType": "uint256",
          "name": "_pid",
          "type": "uint256"
        }
      ],
      "name": "getProjectType",
      "outputs": [
        {
          "internalType": "uint256",
          "name": "",
          "type": "uint256"
        }
      ],
      "payable": false,
      "stateMutability": "view",
      "type": "function"
    },
    {
      "constant": true,
      "inputs": [
        {
          "internalType": "uint256",
          "name": "_pid",
          "type": "uint256"
        }
      ],
      "name": "getRemianCap",
      "outputs": [
        {
          "internalType": "uint256",
          "name": "",
          "type": "uint256"
        }
      ],
      "payable": false,
      "stateMutability": "view",
      "type": "function"
    },
    {
      "constant": true,
      "inputs": [
        {
          "internalType": "uint256",
          "name": "_pid",
          "type": "uint256"
        }
      ],
      "name": "getServiceEnd",
      "outputs": [
        {
          "internalType": "uint256",
          "name": "",
          "type": "uint256"
        }
      ],
      "payable": false,
      "stateMutability": "view",
      "type": "function"
    },
    {
      "constant": true,
      "inputs": [
        {
          "internalType": "uint256",
          "name": "_pid",
          "type": "uint256"
        }
      ],
      "name": "getServiceTime",
      "outputs": [
        {
          "internalType": "uint256[]",
          "name": "",
          "type": "uint256[]"
        }
      ],
      "payable": false,
      "stateMutability": "view",
      "type": "function"
    },
    {
      "constant": true,
      "inputs": [
        {
          "internalType": "uint256",
          "name": "_id",
          "type": "uint256"
        }
      ],
      "name": "getaddr",
      "outputs": [
        {
          "internalType": "address",
          "name": "",
          "type": "address"
        }
      ],
      "payable": false,
      "stateMutability": "view",
      "type": "function"
    },
    {
      "constant": true,
      "inputs": [
        {
          "internalType": "uint256",
          "name": "_id",
          "type": "uint256"
        }
      ],
      "name": "getcrypto",
      "outputs": [
        {
          "internalType": "uint256",
          "name": "",
          "type": "uint256"
        }
      ],
      "payable": false,
      "stateMutability": "view",
      "type": "function"
    },
    {
      "constant": true,
      "inputs": [
        {
          "internalType": "uint256",
          "name": "_logid",
          "type": "uint256"
        }
      ],
      "name": "getdlresult",
      "outputs": [
        {
          "internalType": "uint256",
          "name": "",
          "type": "uint256"
        }
      ],
      "payable": false,
      "stateMutability": "view",
      "type": "function"
    },
    {
      "constant": true,
      "inputs": [
        {
          "internalType": "uint256",
          "name": "_fid",
          "type": "uint256"
        }
      ],
      "name": "getfileidtolog",
      "outputs": [
        {
          "internalType": "uint256[]",
          "name": "",
          "type": "uint256[]"
        }
      ],
      "payable": false,
      "stateMutability": "view",
      "type": "function"
    },
    {
      "constant": true,
      "inputs": [
        {
          "internalType": "address",
          "name": "_owner",
          "type": "address"
        }
      ],
      "name": "getidnow",
      "outputs": [
        {
          "internalType": "uint256",
          "name": "",
          "type": "uint256"
        }
      ],
      "payable": false,
      "stateMutability": "view",
      "type": "function"
    },
    {
      "constant": true,
      "inputs": [
        {
          "internalType": "address",
          "name": "_LogUser",
          "type": "address"
        }
      ],
      "name": "getinfocrypto",
      "outputs": [
        {
          "internalType": "uint256",
          "name": "",
          "type": "uint256"
        }
      ],
      "payable": false,
      "stateMutability": "view",
      "type": "function"
    },
    {
      "constant": true,
      "inputs": [
        {
          "internalType": "address",
          "name": "_LogUser",
          "type": "address"
        }
      ],
      "name": "getinfohash",
      "outputs": [
        {
          "internalType": "string",
          "name": "",
          "type": "string"
        }
      ],
      "payable": false,
      "stateMutability": "view",
      "type": "function"
    },
    {
      "constant": true,
      "inputs": [
        {
          "internalType": "uint256",
          "name": "_id",
          "type": "uint256"
        }
      ],
      "name": "getkword",
      "outputs": [
        {
          "internalType": "string",
          "name": "",
          "type": "string"
        }
      ],
      "payable": false,
      "stateMutability": "view",
      "type": "function"
    },
    {
      "constant": true,
      "inputs": [
        {
          "internalType": "uint256",
          "name": "_logid",
          "type": "uint256"
        }
      ],
      "name": "getlogid",
      "outputs": [
        {
          "internalType": "uint256",
          "name": "",
          "type": "uint256"
        }
      ],
      "payable": false,
      "stateMutability": "view",
      "type": "function"
    },
    {
      "constant": true,
      "inputs": [
        {
          "internalType": "uint256",
          "name": "_logid",
          "type": "uint256"
        }
      ],
      "name": "getlogtime",
      "outputs": [
        {
          "internalType": "uint256",
          "name": "",
          "type": "uint256"
        }
      ],
      "payable": false,
      "stateMutability": "view",
      "type": "function"
    },
    {
      "constant": true,
      "inputs": [
        {
          "internalType": "uint256",
          "name": "_logid",
          "type": "uint256"
        }
      ],
      "name": "getlogtype",
      "outputs": [
        {
          "internalType": "uint256",
          "name": "",
          "type": "uint256"
        }
      ],
      "payable": false,
      "stateMutability": "view",
      "type": "function"
    },
    {
      "constant": true,
      "inputs": [
        {
          "internalType": "uint256",
          "name": "_logid",
          "type": "uint256"
        }
      ],
      "name": "getloguser",
      "outputs": [
        {
          "internalType": "address",
          "name": "",
          "type": "address"
        }
      ],
      "payable": false,
      "stateMutability": "view",
      "type": "function"
    },
    {
      "constant": true,
      "inputs": [
        {
          "internalType": "uint256",
          "name": "_id",
          "type": "uint256"
        }
      ],
      "name": "getname",
      "outputs": [
        {
          "internalType": "string",
          "name": "",
          "type": "string"
        }
      ],
      "payable": false,
      "stateMutability": "view",
      "type": "function"
    },
    {
      "constant": false,
      "inputs": [
        {
          "internalType": "address",
          "name": "_owner",
          "type": "address"
        }
      ],
      "name": "getownProject",
      "outputs": [
        {
          "internalType": "uint256[]",
          "name": "",
          "type": "uint256[]"
        }
      ],
      "payable": false,
      "stateMutability": "nonpayable",
      "type": "function"
    },
    {
      "constant": true,
      "inputs": [
        {
          "internalType": "address",
          "name": "_owner",
          "type": "address"
        }
      ],
      "name": "getownfile",
      "outputs": [
        {
          "internalType": "uint256[]",
          "name": "",
          "type": "uint256[]"
        }
      ],
      "payable": false,
      "stateMutability": "view",
      "type": "function"
    },
    {
      "constant": true,
      "inputs": [
        {
          "internalType": "uint256",
          "name": "_fid",
          "type": "uint256"
        },
        {
          "internalType": "uint256",
          "name": "_t1",
          "type": "uint256"
        },
        {
          "internalType": "uint256",
          "name": "_t2",
          "type": "uint256"
        },
        {
          "internalType": "uint256",
          "name": "_day",
          "type": "uint256"
        }
      ],
      "name": "getrefundhour",
      "outputs": [
        {
          "internalType": "uint256",
          "name": "",
          "type": "uint256"
        }
      ],
      "payable": false,
      "stateMutability": "view",
      "type": "function"
    },
    {
      "constant": true,
      "inputs": [
        {
          "internalType": "uint256",
          "name": "_id",
          "type": "uint256"
        },
        {
          "internalType": "uint256",
          "name": "_index",
          "type": "uint256"
        }
      ],
      "name": "getshare",
      "outputs": [
        {
          "internalType": "address",
          "name": "",
          "type": "address"
        }
      ],
      "payable": false,
      "stateMutability": "view",
      "type": "function"
    },
    {
      "constant": true,
      "inputs": [
        {
          "internalType": "address",
          "name": "_owner",
          "type": "address"
        }
      ],
      "name": "getsharedfile",
      "outputs": [
        {
          "internalType": "uint256[]",
          "name": "",
          "type": "uint256[]"
        }
      ],
      "payable": false,
      "stateMutability": "view",
      "type": "function"
    },
    {
      "constant": true,
      "inputs": [
        {
          "internalType": "uint256",
          "name": "_id",
          "type": "uint256"
        }
      ],
      "name": "getsharetype",
      "outputs": [
        {
          "internalType": "uint256",
          "name": "",
          "type": "uint256"
        }
      ],
      "payable": false,
      "stateMutability": "view",
      "type": "function"
    },
    {
      "constant": true,
      "inputs": [
        {
          "internalType": "uint256",
          "name": "_id",
          "type": "uint256"
        }
      ],
      "name": "getsize",
      "outputs": [
        {
          "internalType": "uint256",
          "name": "",
          "type": "uint256"
        }
      ],
      "payable": false,
      "stateMutability": "view",
      "type": "function"
    },
    {
      "constant": true,
      "inputs": [
        {
          "internalType": "uint256",
          "name": "_id",
          "type": "uint256"
        }
      ],
      "name": "gettime",
      "outputs": [
        {
          "internalType": "uint256",
          "name": "",
          "type": "uint256"
        }
      ],
      "payable": false,
      "stateMutability": "view",
      "type": "function"
    },
    {
      "constant": true,
      "inputs": [
        {
          "internalType": "address",
          "name": "",
          "type": "address"
        }
      ],
      "name": "loginfonow",
      "outputs": [
        {
          "internalType": "uint256",
          "name": "",
          "type": "uint256"
        }
      ],
      "payable": false,
      "stateMutability": "view",
      "type": "function"
    },
    {
      "constant": true,
      "inputs": [],
      "name": "loglength",
      "outputs": [
        {
          "internalType": "uint256",
          "name": "",
          "type": "uint256"
        }
      ],
      "payable": false,
      "stateMutability": "view",
      "type": "function"
    },
    {
      "constant": true,
      "inputs": [
        {
          "internalType": "address",
          "name": "",
          "type": "address"
        },
        {
          "internalType": "uint256",
          "name": "",
          "type": "uint256"
        }
      ],
      "name": "ownerfile",
      "outputs": [
        {
          "internalType": "uint256",
          "name": "",
          "type": "uint256"
        }
      ],
      "payable": false,
      "stateMutability": "view",
      "type": "function"
    },
    {
      "constant": true,
      "inputs": [
        {
          "internalType": "uint256",
          "name": "_id",
          "type": "uint256"
        }
      ],
      "name": "ownerhash",
      "outputs": [
        {
          "internalType": "string",
          "name": "",
          "type": "string"
        }
      ],
      "payable": false,
      "stateMutability": "view",
      "type": "function"
    },
    {
      "constant": false,
      "inputs": [
        {
          "internalType": "address",
          "name": "_LogUser",
          "type": "address"
        },
        {
          "internalType": "uint256",
          "name": "_DLResult",
          "type": "uint256"
        }
      ],
      "name": "setDLresult",
      "outputs": [],
      "payable": false,
      "stateMutability": "nonpayable",
      "type": "function"
    },
    {
      "constant": false,
      "inputs": [
        {
          "internalType": "uint256",
          "name": "_LogFileId",
          "type": "uint256"
        },
        {
          "internalType": "address",
          "name": "_LogUser",
          "type": "address"
        }
      ],
      "name": "setdownloadlog",
      "outputs": [],
      "payable": false,
      "stateMutability": "nonpayable",
      "type": "function"
    },
    {
      "constant": false,
      "inputs": [
        {
          "internalType": "uint256[]",
          "name": "_LogFileId",
          "type": "uint256[]"
        },
        {
          "internalType": "address",
          "name": "_LogUser",
          "type": "address"
        }
      ],
      "name": "setlog",
      "outputs": [],
      "payable": false,
      "stateMutability": "nonpayable",
      "type": "function"
    },
    {
      "constant": true,
      "inputs": [
        {
          "internalType": "address",
          "name": "",
          "type": "address"
        },
        {
          "internalType": "uint256",
          "name": "",
          "type": "uint256"
        }
      ],
      "name": "sharedfile",
      "outputs": [
        {
          "internalType": "uint256",
          "name": "",
          "type": "uint256"
        }
      ],
      "payable": false,
      "stateMutability": "view",
      "type": "function"
    },
    {
      "constant": false,
      "inputs": [
        {
          "internalType": "uint256",
          "name": "_ProjectID",
          "type": "uint256"
        },
        {
          "internalType": "uint256",
          "name": "_FileID",
          "type": "uint256"
        },
        {
          "internalType": "uint256",
          "name": "_FileSize",
          "type": "uint256"
        },
        {
          "internalType": "string",
          "name": "_hash",
          "type": "string"
        },
        {
          "internalType": "uint256",
          "name": "_StorageStart",
          "type": "uint256"
        },
        {
          "internalType": "uint256",
          "name": "_StorageEnd",
          "type": "uint256"
        },
        {
          "internalType": "address payable",
          "name": "_Jobowner",
          "type": "address"
        }
      ],
      "name": "createJob",
      "outputs": [],
      "payable": false,
      "stateMutability": "nonpayable",
      "type": "function"
    },
    {
      "constant": true,
      "inputs": [
        {
          "internalType": "uint256",
          "name": "_ProjectID",
          "type": "uint256"
        },
        {
          "internalType": "uint256",
          "name": "_FileSize",
          "type": "uint256"
        },
        {
          "internalType": "uint256",
          "name": "_StorageEnd",
          "type": "uint256"
        }
      ],
      "name": "Jobcomfirm",
      "outputs": [
        {
          "internalType": "uint256",
          "name": "",
          "type": "uint256"
        }
      ],
      "payable": false,
      "stateMutability": "view",
      "type": "function"
    },
    {
      "constant": true,
      "inputs": [
        {
          "internalType": "uint256",
          "name": "_ProjectID",
          "type": "uint256"
        },
        {
          "internalType": "uint256",
          "name": "_StorageEnd",
          "type": "uint256"
        }
      ],
      "name": "CalAT",
      "outputs": [
        {
          "internalType": "uint256[4]",
          "name": "",
          "type": "uint256[4]"
        }
      ],
      "payable": false,
      "stateMutability": "view",
      "type": "function"
    },
    {
      "constant": false,
      "inputs": [
        {
          "internalType": "uint256",
          "name": "_pid",
          "type": "uint256"
        },
        {
          "internalType": "uint256",
          "name": "_jid",
          "type": "uint256"
        },
        {
          "internalType": "uint256",
          "name": "_datetime",
          "type": "uint256"
        }
      ],
      "name": "UpdateProjectOwnJob",
      "outputs": [],
      "payable": false,
      "stateMutability": "nonpayable",
      "type": "function"
    },
    {
      "constant": true,
      "inputs": [
        {
          "internalType": "uint256",
          "name": "_tid",
          "type": "uint256"
        }
      ],
      "name": "getJobProject",
      "outputs": [
        {
          "internalType": "uint256",
          "name": "",
          "type": "uint256"
        }
      ],
      "payable": false,
      "stateMutability": "view",
      "type": "function"
    },
    {
      "constant": true,
      "inputs": [
        {
          "internalType": "uint256",
          "name": "_tid",
          "type": "uint256"
        }
      ],
      "name": "getFileID",
      "outputs": [
        {
          "internalType": "uint256",
          "name": "",
          "type": "uint256"
        }
      ],
      "payable": false,
      "stateMutability": "view",
      "type": "function"
    },
    {
      "constant": true,
      "inputs": [
        {
          "internalType": "uint256",
          "name": "_tid",
          "type": "uint256"
        }
      ],
      "name": "getFileSize",
      "outputs": [
        {
          "internalType": "uint256",
          "name": "",
          "type": "uint256"
        }
      ],
      "payable": false,
      "stateMutability": "view",
      "type": "function"
    },
    {
      "constant": true,
      "inputs": [
        {
          "internalType": "uint256",
          "name": "_tid",
          "type": "uint256"
        }
      ],
      "name": "getJobhash",
      "outputs": [
        {
          "internalType": "string",
          "name": "",
          "type": "string"
        }
      ],
      "payable": false,
      "stateMutability": "view",
      "type": "function"
    },
    {
      "constant": true,
      "inputs": [
        {
          "internalType": "uint256",
          "name": "_tid",
          "type": "uint256"
        }
      ],
      "name": "getStorageStart",
      "outputs": [
        {
          "internalType": "uint256",
          "name": "",
          "type": "uint256"
        }
      ],
      "payable": false,
      "stateMutability": "view",
      "type": "function"
    },
    {
      "constant": true,
      "inputs": [
        {
          "internalType": "uint256",
          "name": "_tid",
          "type": "uint256"
        }
      ],
      "name": "getStorageEnd",
      "outputs": [
        {
          "internalType": "uint256",
          "name": "",
          "type": "uint256"
        }
      ],
      "payable": false,
      "stateMutability": "view",
      "type": "function"
    },
    {
      "constant": true,
      "inputs": [
        {
          "internalType": "uint256",
          "name": "_tid",
          "type": "uint256"
        }
      ],
      "name": "getAccessTime",
      "outputs": [
        {
          "internalType": "uint256[4]",
          "name": "",
          "type": "uint256[4]"
        }
      ],
      "payable": false,
      "stateMutability": "view",
      "type": "function"
    },
    {
      "constant": true,
      "inputs": [
        {
          "internalType": "uint256",
          "name": "_tid",
          "type": "uint256"
        }
      ],
      "name": "getParticipant",
      "outputs": [
        {
          "internalType": "address payable[2]",
          "name": "",
          "type": "address[2]"
        }
      ],
      "payable": false,
      "stateMutability": "view",
      "type": "function"
    },
    {
      "constant": true,
      "inputs": [
        {
          "internalType": "uint256",
          "name": "_tid",
          "type": "uint256"
        }
      ],
      "name": "getEstablished",
      "outputs": [
        {
          "internalType": "uint256",
          "name": "",
          "type": "uint256"
        }
      ],
      "payable": false,
      "stateMutability": "view",
      "type": "function"
    },
    {
      "constant": true,
      "inputs": [
        {
          "internalType": "uint256",
          "name": "_pid",
          "type": "uint256"
        }
      ],
      "name": "getProjectOwnJobID",
      "outputs": [
        {
          "internalType": "uint256[]",
          "name": "",
          "type": "uint256[]"
        }
      ],
      "payable": false,
      "stateMutability": "view",
      "type": "function"
    },
    {
      "constant": true,
      "inputs": [
        {
          "internalType": "address",
          "name": "_owner",
          "type": "address"
        }
      ],
      "name": "getOwnJobID",
      "outputs": [
        {
          "internalType": "uint256[]",
          "name": "",
          "type": "uint256[]"
        }
      ],
      "payable": false,
      "stateMutability": "view",
      "type": "function"
    },
    {
      "constant": true,
      "inputs": [
        {
          "internalType": "address",
          "name": "_owner",
          "type": "address"
        }
      ],
      "name": "getjobid",
      "outputs": [
        {
          "internalType": "uint256",
          "name": "",
          "type": "uint256"
        }
      ],
      "payable": false,
      "stateMutability": "view",
      "type": "function"
    },
    {
      "constant": false,
      "inputs": [
        {
          "internalType": "address payable",
          "name": "_user2",
          "type": "address"
        }
      ],
      "name": "ctestjob",
      "outputs": [],
      "payable": false,
      "stateMutability": "nonpayable",
      "type": "function"
    }
  ],
  "bytecode": "0x608060405234801561001057600080fd5b5061481e806100206000396000f3fe608060405234801561001057600080fd5b50600436106104065760003560e01c806373d48b6311610220578063b38770eb11610130578063d3693715116100b8578063e9eebfc711610087578063e9eebfc7146111de578063f18c304914611207578063f5c743b414611224578063f99a619e146112f2578063fcd2f5fa1461131857610406565b8063d36937151461116a578063da0a82951461118d578063de57e9b714611195578063e7572230146111c157610406565b8063c12ced0c116100ff578063c12ced0c146110a0578063c54e7f3c146110cf578063cbfb9dd4146110fb578063cc1c503414611127578063d30b2f981461114d57610406565b8063b38770eb14611017578063b63453ae14611034578063bc34cd6214611051578063bef90ade1461107a57610406565b806392256aec116101b35780639bfdb269116101825780639bfdb26914610f0c5780639f1bb06914610f29578063a0f76f7314610f46578063ad93b23b14610f63578063af535a631461100f57610406565b806392256aec14610df2578063937b482614610e0f57806395839f4214610ec057806395a7a54414610ee657610406565b80637fa7dcb7116101ef5780637fa7dcb714610d755780638174f40714610d9b57806383cb313f14610db857806385e47c9f14610dd557610406565b806373d48b6314610c6957806374c626ec14610d1557806375112cbb14610d32578063774ddf1b14610d5857610406565b806344a8d93f1161031b578063520f7741116102ae57806360cdb0ff1161027d57806360cdb0ff14610bba5780636517354314610bd75780636957b1a914610bfd57806369d4437114610c205780636e19790914610c4657610406565b8063520f774114610b465780635ec8bbc814610b635780635f0f38bb14610b6b578063603c882e14610b8857610406565b80634a8a26df116102ea5780634a8a26df1461088c5780634b4249e1146108b25780634c7ee854146108cf5780634dada7b3146108f257610406565b806344a8d93f146107db5780634850362a1461080157806348fa728c1461082d5780634a176ba51461085357610406565b80631eecd2531161039e57806327aefd691161036d57806327aefd691461068257806329a358241461069f5780632b56a4ad146106bc57806330ec7e3d146107895780634300f9ca146107b557610406565b80631eecd25314610605578063223b0af3146106225780632249c7c11461063f578063276b08c31461065c57610406565b8063174113de116103da578063174113de1461055657806317aaa74e146105735780631b9db2ef146105905780631d4fa6df146105e857610406565b80627a21381461040b5780630202ace11461043a5780630f95a3db146104cc578063117c705c146104e9575b600080fd5b6104286004803603602081101561042157600080fd5b5035611344565b60408051918252519081900360200190f35b6104576004803603602081101561045057600080fd5b503561136c565b6040805160208082528351818301528351919283929083019185019080838360005b83811015610491578181015183820152602001610479565b50505050905090810190601f1680156104be5780820380516001836020036101000a031916815260200191505b509250505060405180910390f35b610428600480360360208110156104e257600080fd5b503561141a565b610506600480360360208110156104ff57600080fd5b5035611441565b60408051602080825283518183015283519192839290830191858101910280838360005b8381101561054257818101518382015260200161052a565b505050509050019250505060405180910390f35b6104286004803603602081101561056c57600080fd5b50356114a2565b6104286004803603602081101561058957600080fd5b50356114ca565b6105ad600480360360208110156105a657600080fd5b50356114f1565b6040518082600260200280838360005b838110156105d55781810151838201526020016105bd565b5050505090500191505060405180910390f35b610428600480360360208110156105fe57600080fd5b5035611555565b6104576004803603602081101561061b57600080fd5b503561157d565b6104286004803603602081101561063857600080fd5b50356115f7565b6104286004803603602081101561065557600080fd5b503561161f565b6104286004803603602081101561067257600080fd5b50356001600160a01b0316611647565b6104286004803603602081101561069857600080fd5b5035611659565b610428600480360360208110156106b557600080fd5b5035611681565b610787600480360360e08110156106d257600080fd5b81359160208101359160408201359190810190608081016060820135600160201b8111156106ff57600080fd5b82018360208201111561071157600080fd5b803590602001918460018302840111600160201b8311171561073257600080fd5b91908080601f01602080910402602001604051908101604052809392919081815260200183838082843760009201919091525092955050823593505050602081013590604001356001600160a01b0316611690565b005b6107876004803603604081101561079f57600080fd5b506001600160a01b03813516906020013561187d565b610428600480360360208110156107cb57600080fd5b50356001600160a01b0316611900565b610506600480360360208110156107f157600080fd5b50356001600160a01b031661191b565b6104286004803603604081101561081757600080fd5b506001600160a01b038135169060200135611985565b6105066004803603602081101561084357600080fd5b50356001600160a01b03166119b3565b6108706004803603602081101561086957600080fd5b5035611a1d565b604080516001600160a01b039092168252519081900360200190f35b610428600480360360208110156108a257600080fd5b50356001600160a01b0316611a4e565b610428600480360360208110156108c857600080fd5b5035611a60565b610870600480360360408110156108e557600080fd5b5080359060200135611a88565b610787600480360361010081101561090957600080fd5b810190602081018135600160201b81111561092357600080fd5b82018360208201111561093557600080fd5b803590602001918460018302840111600160201b8311171561095657600080fd5b91908080601f01602080910402602001604051908101604052809392919081815260200183838082843760009201919091525092956001600160a01b03853516959094909350604081019250602001359050600160201b8111156109b957600080fd5b8201836020820111156109cb57600080fd5b803590602001918460018302840111600160201b831117156109ec57600080fd5b91908080601f01602080910402602001604051908101604052809392919081815260200183838082843760009201919091525092958435959094909350604081019250602001359050600160201b811115610a4657600080fd5b820183602082011115610a5857600080fd5b803590602001918460018302840111600160201b83111715610a7957600080fd5b91908080601f01602080910402602001604051908101604052809392919081815260200183838082843760009201919091525092958435959094909350604081019250602001359050600160201b811115610ad357600080fd5b820183602082011115610ae557600080fd5b803590602001918460208302840111600160201b83111715610b0657600080fd5b9190808060200260200160405190810160405280939291908181526020018383602002808284376000920191909152509295505091359250611ad7915050565b61042860048036036020811015610b5c57600080fd5b5035611ef3565b610428611f1b565b61050660048036036020811015610b8157600080fd5b5035611f22565b610ba560048036036020811015610b9e57600080fd5b5035611f82565b604051815181528082608080838360206105bd565b61042860048036036020811015610bd057600080fd5b5035611fdd565b61050660048036036020811015610bed57600080fd5b50356001600160a01b0316612004565b610ba560048036036040811015610c1357600080fd5b508035906020013561206e565b61050660048036036020811015610c3657600080fd5b50356001600160a01b0316612142565b61042860048036036040811015610c5c57600080fd5b50803590602001356121ac565b61078760048036036040811015610c7f57600080fd5b810190602081018135600160201b811115610c9957600080fd5b820183602082011115610cab57600080fd5b803590602001918460208302840111600160201b83111715610ccc57600080fd5b919080806020026020016040519081016040528093929190818152602001838360200280828437600092019190915250929550505090356001600160a01b031691506121c59050565b61078760048036036020811015610d2b57600080fd5b5035612337565b61042860048036036020811015610d4857600080fd5b50356001600160a01b0316612405565b61050660048036036020811015610d6e57600080fd5b5035612417565b61042860048036036020811015610d8b57600080fd5b50356001600160a01b031661248b565b61042860048036036020811015610db157600080fd5b503561249d565b61045760048036036020811015610dce57600080fd5b50356124c5565b61042860048036036020811015610deb57600080fd5b5035612574565b61087060048036036020811015610e0857600080fd5b503561259c565b61078760048036036040811015610e2557600080fd5b6001600160a01b038235169190810190604081016020820135600160201b811115610e4f57600080fd5b820183602082011115610e6157600080fd5b803590602001918460208302840111600160201b83111715610e8257600080fd5b9190808060200260200160405190810160405280939291908181526020018383602002808284376000920191909152509295506125ab945050505050565b61078760048036036020811015610ed657600080fd5b50356001600160a01b0316612788565b61045760048036036020811015610efc57600080fd5b50356001600160a01b0316612c30565b61042860048036036020811015610f2257600080fd5b5035612c84565b61042860048036036020811015610f3f57600080fd5b5035612c92565b61045760048036036020811015610f5c57600080fd5b5035612cba565b610f98600480360360a0811015610f7957600080fd5b5080359060208101359060408101359060608101359060800135612d36565b6040518087815260200186815260200185815260200180602001848152602001838152602001828103825285818151815260200191508051906020019060200280838360005b83811015610ff6578181015183820152602001610fde565b5050505090500197505050505050505060405180910390f35b610428612ec7565b6104286004803603602081101561102d57600080fd5b5035612ecd565b6104286004803603602081101561104a57600080fd5b5035612ef5565b6107876004803603606081101561106757600080fd5b5080359060208101359060400135612f1d565b6104286004803603602081101561109057600080fd5b50356001600160a01b0316613023565b610428600480360360808110156110b657600080fd5b508035906020810135906040810135906060013561303e565b610428600480360360408110156110e557600080fd5b506001600160a01b03813516906020013561346e565b6107876004803603604081101561111157600080fd5b50803590602001356001600160a01b0316613487565b6104286004803603602081101561113d57600080fd5b50356001600160a01b031661360d565b6104286004803603602081101561116357600080fd5b5035613652565b6104286004803603604081101561118057600080fd5b508035906020013561367a565b610428613693565b610428600480360360408110156111ab57600080fd5b506001600160a01b038135169060200135613699565b610428600480360360208110156111d757600080fd5b50356136b2565b610428600480360360608110156111f457600080fd5b50803590602081013590604001356136c1565b6108706004803603602081101561121d57600080fd5b5035613701565b610787600480360361010081101561123b57600080fd5b8135916001600160a01b036020820135169160408201359160608101359181019060a081016080820135600160201b81111561127657600080fd5b82018360208201111561128857600080fd5b803590602001918460208302840111600160201b831117156112a957600080fd5b9190808060200260200160405190810160405280939291908181526020018383602002808284376000920191909152509295505082359350505060208101359060400135613733565b6107876004803603602081101561130857600080fd5b50356001600160a01b0316613b11565b6104286004803603604081101561132e57600080fd5b506001600160a01b038135169060200135614010565b60006008828154811061135357fe5b9060005260206000209060090201600701549050919050565b60606000828154811061137b57fe5b6000918252602091829020600990910201805460408051601f600260001961010060018716150201909416939093049283018590048502810185019091528181529283018282801561140e5780601f106113e35761010080835404028352916020019161140e565b820191906000526020600020905b8154815290600101906020018083116113f157829003601f168201915b50505050509050919050565b600080828154811061142857fe5b9060005260206000209060090201600401549050919050565b6000818152600e602090815260409182902080548351818402810184019094528084526060939283018282801561140e57602002820191906000526020600020905b8154815260200190600101908083116114835750505050509050919050565b6000600b82815481106114b157fe5b90600052602060002090600d0201600301549050919050565b60008082815481106114d857fe5b9060005260206000209060090201600601549050919050565b6114f9614435565b600b828154811061150657fe5b60009182526020909120604080518082019182905292600d029091016001019060029082845b81546001600160a01b0316815260019091019060200180831161152c5750505050509050919050565b60006004828154811061156457fe5b9060005260206000209060050201600201549050919050565b6060600b828154811061158c57fe5b60009182526020918290206005600d9092020101805460408051601f600260001961010060018716150201909416939093049283018590048502810185019091528181529283018282801561140e5780601f106113e35761010080835404028352916020019161140e565b60006008828154811061160657fe5b9060005260206000209060090201600301549050919050565b60006008828154811061162e57fe5b9060005260206000209060090201600201549050919050565b60036020526000908152604090205481565b6000600b828154811061166857fe5b90600052602060002090600d0201600001549050919050565b6000600882815481106114d857fe5b600061169d8887856136c1565b9050806001146116ac57600080fd5b6116b4614453565b6116be898561206e565b905060006116cb8a61259c565b90506116d5614435565b506040805180820182526001600160a01b03808716825283166020808301919091528251610120810184528d81529081018281529281018c9052606081018b9052608081018a905260a0810189905260c0810188905260e0810185905260006101008201819052600b805460018181018084559284528451600d9092027f0175b7a638427703f0dbe7bb9bbf987a2551717b34e79f33b5b1008d1fa01db98101928355965195969395909492936117b2917f0175b7a638427703f0dbe7bb9bbf987a2551717b34e79f33b5b1008d1fa01dba909101906002614471565b506040820151600382015560608201516004820155608082015180516117e29160058401916020909101906144c9565b5060a0820151600682015560c0820151600782015560e082015161180c9060088301906004614543565b506101009190910151600c918201556001600160a01b0389166000818152602092835260408082209590940394859055600d8352928320805460018101825581855292842090920184905590915280549192509061186d9082908190614570565b5050505050505050505050505050565b6001600160a01b0382166000908152600760205260409020546001146118a257600080fd5b6001600160a01b03821660009081526006602052604081205460048054919291839081106118cc57fe5b60009182526020808320600460059093020191909101949094556001600160a01b0390941684525050600790526040812055565b6001600160a01b03166000908152600c602052604090205490565b6001600160a01b03811660009081526001602090815260409182902080548351818402810184019094528084526060939283018282801561140e57602002820191906000526020600020908154815260200190600101908083116114835750505050509050919050565b600a602052816000526040600020818154811061199e57fe5b90600052602060002001600091509150505481565b6001600160a01b0381166000908152600d602090815260409182902080548351818402810184019094528084526060939283018282801561140e57602002820191906000526020600020908154815260200190600101908083116114835750505050509050919050565b6000808281548110611a2b57fe5b60009182526020909120600990910201600101546001600160a01b031692915050565b60076020526000908152604090205481565b6000600b8281548110611a6f57fe5b90600052602060002090600d0201600401549050919050565b60008060008481548110611a9857fe5b906000526020600020906009020190506000816007018481548110611ab957fe5b6000918252602090912001546001600160a01b031695945050505050565b60408051610120810182528981526001600160a01b03891660208083019190915291810188905242606082018190526080820188905260a0820187905260c0820186905260e08201859052610100820184905260008054600181810180845583805285518051959794969295919492936009027f290decd9548b62a8d60345a988386fc84ba6bc95484008f6362f93160ef3e5630192611b7c928492909101906144c9565b506020828101516001830180546001600160a01b0319166001600160a01b0390921691909117905560408301518051611bbb92600285019201906144c9565b50606082015160038201556080820151600482015560a08201518051611beb9160058401916020909101906144c9565b5060c0820151600682015560e08201518051611c119160078401916020909101906145b0565b5061010091909101516008909101556001600160a01b038b16600081815260016020818152604083208054928301815580845290832095909403940184905552805491925090611c649082908190614570565b508560031415611ecb5784600181518110611c7b57fe5b60200260200101516001600160a01b03168a6001600160a01b031614611d365760006002600087600181518110611cae57fe5b6020908102919091018101516001600160a01b031682528181019290925260400160009081208054600181810183558284529383200186905588519093508392600292918a91908110611cfd57fe5b60200260200101516001600160a01b03166001600160a01b03168152602001908152602001600020908054611d33929190614570565b50505b84600281518110611d4357fe5b60200260200101516001600160a01b03168a6001600160a01b031614611e005760006002600087600281518110611d7657fe5b6020908102919091018101516001600160a01b0316825281810192909252604001600090812080546001810182558183529282209092018590558751919250829160029190899083908110611dc757fe5b60200260200101516001600160a01b03166001600160a01b03168152602001908152602001600020908054611dfd929190614570565b50505b84600381518110611e0d57fe5b60200260200101516001600160a01b03168a6001600160a01b031614611ecb5760006002600087600381518110611e4057fe5b6020908102919091018101516001600160a01b031682528181019290925260400160009081208054600181018255818352928220909201859055875191925082916002919089906003908110611e9257fe5b60200260200101516001600160a01b03166001600160a01b03168152602001908152602001600020908054611ec8929190614570565b50505b506001600160a01b039098166000908152600360205260409020979097555050505050505050565b600060088281548110611f0257fe5b9060005260206000209060090201600001549050919050565b6004545b90565b60008181526005602090815260409182902080548351818402810184019094528084526060939283018282801561140e57602002820191906000526020600020908154815260200190600101908083116114835750505050509050919050565b611f8a614453565b600b8281548110611f9757fe5b6000918252602091829020604080516080810191829052600d90930290910160088101805484529293600492916009019085018083116114835750505050509050919050565b6000808281548110611feb57fe5b9060005260206000209060090201600801549050919050565b6001600160a01b03811660009081526002602090815260409182902080548351818402810184019094528084526060939283018282801561140e57602002820191906000526020600020908154815260200190600101908083116114835750505050509050919050565b612076614453565b606061208184612417565b905060008160008151811061209257fe5b6020026020010151610e10026201518085030190506000826001815181106120b657fe5b6020026020010151610e10026201518086030190506000836002815181106120da57fe5b6020026020010151610e10026201518087030190506000846003815181106120fe57fe5b6020026020010151610e100262015180880301905061211b614453565b50604080516080810182529485526020850193909352918301526060820152949350505050565b6001600160a01b0381166000908152600a602090815260409182902080548351818402810184019094528084526060939283018282801561140e57602002820191906000526020600020908154815260200190600101908083116114835750505050509050919050565b6005602052816000526040600020818154811061199e57fe5b4260005b6005811015612331578381815181106121de57fe5b602002602001015160011415612329576000600160046040518060a0016040528088866005018151811061220e57fe5b60209081029190910181015182526001600160a01b038981168383015260408084018a9052600160608086018290526000608096870181905288548084018a5598815285812088516005808c029092019081559689015187850180546001600160a01b031916919097161790955592870151600286015586015160038501559490930151600490920191909155895194909303909101935091829088908684019081106122b757fe5b602090810291909101810151825281810192909252604001600090812080546001810182558183529282209092018490558751919250829160059190899087840190811061230157fe5b60200260200101518152602001908152602001600020908054612325929190614570565b5050505b6001016121c9565b50505050565b600080828154811061234557fe5b6000918252602090912060099091020160018101549091506001600160a01b0316331461237157600080fd5b6000828154811061237e57fe5b600091825260208220600990910201906123988282614604565b6001820180546001600160a01b03191690556123b8600283016000614604565b600382016000905560048201600090556005820160006123d89190614604565b60068201600090556007820160006123f0919061464b565b50600060089190910181905560069091015550565b60066020526000908152604090205481565b60606008828154811061242657fe5b906000526020600020906009020160050180548060200260200160405190810160405280929190818152602001828054801561140e57602002820191906000526020600020908154815260200190600101908083116114835750505050509050919050565b600c6020526000908152604090205481565b6000600b82815481106124ac57fe5b90600052602060002090600d0201600701549050919050565b6060600082815481106124d457fe5b60009182526020909120600990910201600101546001600160a01b031633146124fc57600080fd5b6000828154811061250957fe5b6000918252602091829020600560099092020101805460408051601f600260001961010060018716150201909416939093049283018590048502810185019091528181529283018282801561140e5780601f106113e35761010080835404028352916020019161140e565b6000600b828154811061258357fe5b90600052602060002090600d0201600601549050919050565b600060088281548110611a2b57fe5b604080516101208101825260028082526001600160a01b0385811660208085019182526103e89585019586526103ca606086019081526080860194855260a086018881526301348bf860c0880152636328920060e0880152600161010088018190526008805480830180835560009283528a517ff3f7a9fe364faab93b216da50a3214154f22a0a2b415b23a84c8169e8b636ee3600990930292830190815597517ff3f7a9fe364faab93b216da50a3214154f22a0a2b415b23a84c8169e8b636ee4830180546001600160a01b03191691909a161790985599517ff3f7a9fe364faab93b216da50a3214154f22a0a2b415b23a84c8169e8b636ee58b015592517ff3f7a9fe364faab93b216da50a3214154f22a0a2b415b23a84c8169e8b636ee68a015595517ff3f7a9fe364faab93b216da50a3214154f22a0a2b415b23a84c8169e8b636ee789015551805191979596949561272f937ff3f7a9fe364faab93b216da50a3214154f22a0a2b415b23a84c8169e8b636ee890910192910190614669565b5060c0820151600682015560e08201516007820155610100909101516008909101556040805160208082018352939092038083526001600160a01b0387166000908152600a909452922091925061233191906001614669565b6000600160046040518060a0016040528060008152602001856001600160a01b031681526020016363143ee08152602001600281526020016001815250908060018154018082558091505090600182039060005260206000209060050201600090919290919091506000820151816000015560208201518160010160006101000a8154816001600160a01b0302191690836001600160a01b0316021790555060408201518160020155606082015181600301556080820151816004015550500390506000600160046040518060a0016040528060008152602001866001600160a01b0316815260200163631445e88152602001600281526020016002815250908060018154018082558091505090600182039060005260206000209060050201600090919290919091506000820151816000015560208201518160010160006101000a8154816001600160a01b0302191690836001600160a01b0316021790555060408201518160020155606082015181600301556080820151816004015550500390506000600160046040518060a0016040528060008152602001876001600160a01b0316815260200163631574408152602001600281526020016001815250908060018154018082558091505090600182039060005260206000209060050201600090919290919091506000820151816000015560208201518160010160006101000a8154816001600160a01b0302191690836001600160a01b0316021790555060408201518160020155606082015181600301556080820151816004015550500390506000600160046040518060a0016040528060008152602001886001600160a01b0316815260200163631582508152602001600281526020016002815250908060018154018082558091505090600182039060005260206000209060050201600090919290919091506000820151816000015560208201518160010160006101000a8154816001600160a01b0302191690836001600160a01b0316021790555060408201518160020155606082015181600301556080820151816004015550500390506000600160046040518060a0016040528060008152602001896001600160a01b03168152602001636316b7b08152602001600281526020016002815250908060018154018082558091505090600182039060005260206000209060050201600090919290919091506000820151816000015560208201518160010160006101000a8154816001600160a01b0302191690836001600160a01b0316021790555060408201518160020155606082015181600301556080820151816004015550500390506040518060400160405280600060ff168152602001600160ff1681525060056000808152602001908152602001600020906002612b909291906146a3565b506040805180820190915260028082526003602080840191909152600160005260059052612bdf917f1471eb6eb2c5e789fc3de43f8ce62938c7d1836ec861730447e2ada8fd81017b916146a3565b506040805160208082019092526004815260026000526005909152612c27907f89832631fb3c3307a103ba2c84ab569c64d6182a18893dcd163f0f1c2090733a9060016146a3565b50505050505050565b6001600160a01b03811660009081526006602052604081205460048054606093919083908110612c5c57fe5b90600052602060002090600502016000015490506060612c7b82614029565b95945050505050565b600080828154811061160657fe5b600060048281548110612ca157fe5b9060005260206000209060050201600401549050919050565b606060008281548110612cc957fe5b600091825260209182902060026009909202018101805460408051601f60001961010060018616150201909316949094049182018590048502840185019052808352919290919083018282801561140e5780601f106113e35761010080835404028352916020019161140e565b60008060006060600080600060098c81548110612d4f57fe5b906000526020600020906006020190508a81600101541015612d7057600080fd5b8981600401541015612d8157600080fd5b88816005015414612d9157600080fd5b600080905081600301600081548110612da657fe5b90600052602060002001548910158015612dda575081600301600181548110612dcb57fe5b90600052602060002001548911155b15612de3575060015b81600301600281548110612df357fe5b90600052602060002001548910158015612e27575081600301600381548110612e1857fe5b90600052602060002001548911155b15612e30575060015b80600114612e3d57600080fd5b816000015482600101548360020154846003018560040154866005015482805480602002602001604051908101604052809291908181526020018280548015612ea557602002820191906000526020600020905b815481526020019060010190808311612e91575b5050505050925097509750975097509750975050509550955095509550955095565b60005490565b6000600b8281548110612edc57fe5b90600052602060002090600d0201600c01549050919050565b600060048281548110612f0457fe5b9060005260206000209060050201600001549050919050565b6000612f2883611a60565b6000858152600e60205260408120919250805b8254811015612fe75785838281548110612f5157fe5b90600052602060002001541415612fdf57805b835460001901811015612fab57838160010181548110612f8057fe5b9060005260206000200154848281548110612f9757fe5b600091825260209091200155600101612f64565b50825483906000198101908110612fbe57fe5b60009182526020822001558254612fd98460001983016146e3565b50600191505b600101612f3b565b50806001141561301b576000868152600e60205260409020825461300d91908490614570565b5061301b8684600287614038565b505050505050565b6001600160a01b031660009081526003602052604090205490565b600084815260056020526040812062015180830280860390850383805b845481101561346157600485828154811061307257fe5b90600052602060002001548154811061308757fe5b906000526020600020906005020160040154600214156134595760008080805b8a60010181101561344d57806201518002880160048a87815481106130c857fe5b9060005260206000200154815481106130dd57fe5b906000526020600020906005020160020154101580156131385750806201518002870160048a878154811061310e57fe5b90600052602060002001548154811061312357fe5b90600052602060002090600502016002015411155b156134455760009350610e1088880304925060015b836001018110156131b45780610e10028262015180028a010160048b888154811061317457fe5b90600052602060002001548154811061318957fe5b90600052602060002090600502016002015410156131ac57600019019150600183015b60010161314d565b5084158015906131fb575060048960018703815481106131d057fe5b9060005260206000200154815481106131e557fe5b9060005260206000209060050201600401546001145b156132cc5760015b836001018110156132ca57816201518002890160048b600189038154811061322757fe5b90600052602060002001548154811061323c57fe5b9060005260206000209060050201600201541015801561329f575080610e10028262015180028a010160048b600189038154811061327657fe5b90600052602060002001548154811061328b57fe5b906000526020600020906005020160020154105b156132c25760001981019450828514156132bc5760009450600093505b50600183015b600101613203565b505b60015b895486900381101561343e57816201518002880160048b838901815481106132f357fe5b90600052602060002001548154811061330857fe5b906000526020600020906005020160020154116134325760048a8288018154811061332f57fe5b90600052602060002001548154811061334457fe5b9060005260206000209060050201600401546002141561336957600190950194600019015b60048a8288018154811061337957fe5b90600052602060002001548154811061338e57fe5b9060005260206000209060050201600401546001141561342d5760015b8460010181101561342b5780610e10028362015180028b010160048c848a01815481106133d457fe5b9060005260206000200154815481106133e957fe5b9060005260206000209060050201600201541015613423578a546000198201955091508385141561341d5760009550600094505b50600184015b6001016133ab565b505b613436565b5088545b6001016132cf565b505060018a015b6001016130a7565b50828286010394505050505b60010161305b565b5098975050505050505050565b600d602052816000526040600020818154811061199e57fe5b6040805160a0810182528381526001600160a01b03808416602080840191825242848601818152600260608701908152600160808801818152600480548084018255600091825299516005808c027f8a35acfbc15ff81a39ae7d344fd709f28e8600b4aa8c65c6b64bfe7fe36bd19b81019290925598517f8a35acfbc15ff81a39ae7d344fd709f28e8600b4aa8c65c6b64bfe7fe36bd19c8201805491909b166001600160a01b03199091161790995593517f8a35acfbc15ff81a39ae7d344fd709f28e8600b4aa8c65c6b64bfe7fe36bd19d89015591517f8a35acfbc15ff81a39ae7d344fd709f28e8600b4aa8c65c6b64bfe7fe36bd19e88015590517f8a35acfbc15ff81a39ae7d344fd709f28e8600b4aa8c65c6b64bfe7fe36bd19f909601959095558881529282529482208054938401815580835290822090920183905585905280546135db9082908190614570565b50506001600160a01b039092166000908152600660209081526040808320949094556007905291909120600190555050565b6001600160a01b038116600090815260066020526040812054600480548391908390811061363757fe5b600091825260208220600590910201549150612c7b82611fdd565b60006004828154811061366157fe5b9060005260206000209060050201600301549050919050565b600e602052816000526040600020818154811061199e57fe5b60095490565b6001602052816000526040600020818154811061199e57fe5b60006008828154811061142857fe5b6000806136cd8561161f565b90506001848210156136dd575060005b60006136e887611344565b9050848110156136f757600091505b5095945050505050565b60006004828154811061371057fe5b60009182526020909120600590910201600101546001600160a01b031692915050565b6001600160a01b0387166000908152600a602052604090208054156137a057600060088260018480549050038154811061376957fe5b90600052602060002001548154811061377e57fe5b906000526020600020906009020190504281600701541061379e57600080fd5b505b600087116137ad57600080fd5b8860011461381f57846000815181106137c257fe5b6020026020010151856001815181106137d757fe5b602002602001015110156137ea57600080fd5b846002815181106137f757fe5b60200260200101518560038151811061380c57fe5b6020026020010151101561381f57600080fd5b60408051610120810182528a81526001600160a01b03808b1660208084019182529383018b8152606084018c8152608085018c815260a086018c815260c087018c905260e087018b905261010087018a905260088054600181810180845560009384528a5160099093027ff3f7a9fe364faab93b216da50a3214154f22a0a2b415b23a84c8169e8b636ee3810193845598517ff3f7a9fe364faab93b216da50a3214154f22a0a2b415b23a84c8169e8b636ee48a01805491909b166001600160a01b03199091161790995595517ff3f7a9fe364faab93b216da50a3214154f22a0a2b415b23a84c8169e8b636ee588015593517ff3f7a9fe364faab93b216da50a3214154f22a0a2b415b23a84c8169e8b636ee687015591517ff3f7a9fe364faab93b216da50a3214154f22a0a2b415b23a84c8169e8b636ee78601555180518f989297949695613996937ff3f7a9fe364faab93b216da50a3214154f22a0a2b415b23a84c8169e8b636ee8909101920190614669565b5060c0820151600682015560e082015160078201556101009091015160089091015584546001810186556000868152602080822094909303939091018390556001600160a01b038d168152600a9091526040902084549192506139fa918590614570565b506040805160c08101825282815260208082018581529282018b8152606083018b8152608084018b905260a084018990526009805460018101808355600092909252855160069091027f6e1540171b6c0c960b71a7020d9f60077f6af931a8bbf590da0223dacf75c7af810191825596517f6e1540171b6c0c960b71a7020d9f60077f6af931a8bbf590da0223dacf75c7b088015592517f6e1540171b6c0c960b71a7020d9f60077f6af931a8bbf590da0223dacf75c7b18701559051805191959293613aec937f6e1540171b6c0c960b71a7020d9f60077f6af931a8bbf590da0223dacf75c7b20192910190614669565b506080820151816004015560a082015181600501555050505050505050505050505050565b6000613b1d600061259c565b905063631a901063631ae47063631a1180613b36614453565b604051806080016040528085815260200184815260200183815260200183815250905060006001600b6040518061012001604052806000815260200160405180604001604052808c6001600160a01b03166001600160a01b031681526020018b6001600160a01b03166001600160a01b0316815250815260200160008152602001600a81526020016040518060600160405280602e81526020016147bc602e91398152636310041060208083019190915263631b63006040830152606082018790526001608090920182905283548083018086556000958652948290208451600d90920201908155908301519091613c3391908301906002614471565b50604082015160038201556060820151600482015560808201518051613c639160058401916020909101906144c9565b5060a0820151600682015560c0820151600782015560e0820151613c8d9060088301906004614543565b5061010082015181600c0155505003905060006001600b6040518061012001604052806000815260200160405180604001604052808d6001600160a01b03166001600160a01b031681526020018c6001600160a01b03166001600160a01b0316815250815260200160018152602001600a81526020016040518060600160405280602e81526020016147bc602e91398152636310041060208083019190915263631b63006040830152606082018890526001608090920182905283548083018086556000958652948290208451600d90920201908155908301519091613d7891908301906002614471565b50604082015160038201556060820151600482015560808201518051613da89160058401916020909101906144c9565b5060a0820151600682015560c0820151600782015560e0820151613dd29060088301906004614543565b5061010082015181600c0155505003905060006001600b6040518061012001604052806000815260200160405180604001604052808e6001600160a01b03166001600160a01b031681526020018d6001600160a01b03166001600160a01b0316815250815260200160028152602001600a81526020016040518060600160405280602e81526020016147bc602e91398152636310041060208083019190915263631b63006040830152606082018990526001608090920182905283548083018086556000958652948290208451600d90920201908155908301519091613ebd91908301906002614471565b50604082015160038201556060820151600482015560808201518051613eed9160058401916020909101906144c9565b5060a0820151600682015560c0820151600782015560e0820151613f179060088301906004614543565b506101009190910151600c9091015560408051606081018252600080825260016020808401919091526002838501526001600160a01b038e168252600d905291909120929091039250613f6c919060036146a3565b5060408051606081018252600080825260016020808401919091526002838501526001600160a01b038d168252600d905291909120613fac9160036146a3565b5060408051606081018252600080825260016020808401919091526002938301939093528052600e909152614004907fe710864318d4a32f37d6ce54cb3fadbef648dd12d8dbdf53973564d56b7f881c9060036146a3565b50505050505050505050565b6002602052816000526040600020818154811061199e57fe5b60606000828154811061250957fe5b60006008858154811061404757fe5b60009182526020822060036009909202019081015490925090600182101561406d575060015b846001141561408d5785820391506001821015614088575060025b614092565b908501905b6003830182905560018114156141a05760096040518060c0016040528089815260200185600301548152602001856004015481526020018560050180548060200260200160405190810160405280929190818152602001828054801561411757602002820191906000526020600020905b815481526020019060010190808311614103575b5050509183525050600680870154602080840191909152600888015460409384015284546001818101808855600097885296839020865192909402909301908155848201519281019290925591830151600282015560608301518051919261418792600385019290910190614669565b506080820151816004015560a082015181600501555050505b60005b60095481101561442b576000600982815481106141bc57fe5b90600052602060002090600602019050600060088260000154815481106141df57fe5b6000918252602082206007600990920201015483549092508b14156143115760018301869055600285141561431157835b600954600019018110156142a7576009816001018154811061422e57fe5b90600052602060002090600602016009828154811061424957fe5b9060005260206000209060060201600082015481600001556001820154816001015560028201548160020155600382018160030190805461428b929190614570565b5060048281015490820155600591820154910155600101614210565b506009805460001981019081106142ba57fe5b6000918252602082206006909102018181556001810182905560028101829055906142e8600383018261464b565b50600060048201819055600590910155600980549061430b90600019830161470c565b50600190505b4282101561441c57835b600954600019018110156143b2576009816001018154811061433957fe5b90600052602060002090600602016009828154811061435457fe5b90600052602060002090600602016000820154816000015560018201548160010155600282015481600201556003820181600301908054614396929190614570565b506004828101549082015560059182015491015560010161431b565b506009805460001981019081106143c557fe5b6000918252602082206006909102018181556001810182905560028101829055906143f3600383018261464b565b50600060048201819055600590910155600980549061441690600019830161470c565b50600190505b90920360010191506141a39050565b5050505050505050565b60405180604001604052806002906020820280388339509192915050565b60405180608001604052806004906020820280388339509192915050565b82600281019282156144b9579160200282015b828111156144b957825182546001600160a01b0319166001600160a01b03909116178255602090920191600190910190614484565b506144c5929150614738565b5090565b828054600181600116156101000203166002900490600052602060002090601f016020900481019282601f1061450a57805160ff1916838001178555614537565b82800160010185558215614537579182015b8281111561453757825182559160200191906001019061451c565b506144c592915061475c565b8260048101928215614537579160200282018281111561453757825182559160200191906001019061451c565b8280548282559060005260206000209081019282156145375760005260206000209182015b82811115614537578254825591600101919060010190614595565b8280548282559060005260206000209081019282156144b957916020028201828111156144b957825182546001600160a01b0319166001600160a01b03909116178255602090920191600190910190614484565b50805460018160011615610100020316600290046000825580601f1061462a5750614648565b601f016020900490600052602060002090810190614648919061475c565b50565b5080546000825590600052602060002090810190614648919061475c565b828054828255906000526020600020908101928215614537579160200282018281111561453757825182559160200191906001019061451c565b828054828255906000526020600020908101928215614537579160200282015b82811115614537578251829060ff169055916020019190600101906146c3565b8154818355818111156147075760008381526020902061470791810190830161475c565b505050565b815481835581811115614707576006028160060283600052602060002091820191016147079190614776565b611f1f91905b808211156144c55780546001600160a01b031916815560010161473e565b611f1f91905b808211156144c55760008155600101614762565b611f1f91905b808211156144c557600080825560018201819055600282018190556147a4600383018261464b565b50600060048201819055600582015560060161477c56fe516d6241556436356b54354c7445697170653675786d696358344b483571487873356a6e43516263634732376d48a265627a7a72315820265d48023cf81e21ac007e5d3ef7ec99a9189ea292dd8e45fd544066405a71f964736f6c63430005100032",
  "source": "pragma solidity >=0.4.21 <0.7.0;\r\n\r\nimport \"./StorageProject.sol\";\r\n\r\ncontract StorageJob is StorageProject  {\r\n\r\n     struct Job{\r\n        \r\n        uint ProjectID;\r\n        address payable [2] Participant;\r\n        uint FileID;\r\n        uint FileSize;\r\n        string hash;\r\n        uint256 StorageStart;\r\n        uint256 StorageEnd;\r\n        uint256[4] AccessTime;\r\n        uint Established;\r\n    }\r\n\r\n    Job[] internal Jobs;\r\n    mapping (address => uint) public Jobidnow;\r\n    mapping (address => uint[]) public OwnJobID;\r\n    mapping (uint => uint[]) public ProjectOwnJobID;\r\n\r\n    function createJob(uint _ProjectID, uint _FileID, uint _FileSize, string memory _hash, uint256 _StorageStart, uint256 _StorageEnd, address payable _Jobowner) public  {\r\n\r\n\r\n        uint comfirm = Jobcomfirm(_ProjectID, _FileSize, _StorageEnd);\r\n        require(comfirm==1);\r\n        \r\n        uint[4] memory AccessTime = CalAT(_ProjectID, _StorageEnd); \r\n\r\n        address payable projectowner = StorageProject.getProjectOwner(_ProjectID);\r\n        address payable [2] memory Participant = [_Jobowner, projectowner];\r\n\r\n        uint id = Jobs.push(Job(_ProjectID, Participant, _FileID, _FileSize, _hash, _StorageStart, _StorageEnd, AccessTime, 0)) - 1;\r\n        Jobidnow[_Jobowner] = id;\r\n\r\n        uint[] storage ownjob = OwnJobID[_Jobowner];\r\n        ownjob.push(id);\r\n        OwnJobID[_Jobowner] = ownjob;\r\n\r\n\r\n    }\r\n\r\n    function Jobcomfirm(uint _ProjectID, uint _FileSize, uint256 _StorageEnd) public view  returns (uint){\r\n\r\n        uint nowcap = StorageProject.getCap(_ProjectID);\r\n        uint check = 1;\r\n        if(nowcap < _FileSize){     \r\n            check = 0;\r\n        }\r\n        uint sttime = StorageProject.getEndStamp(_ProjectID);\r\n        if(sttime < _StorageEnd){     \r\n            check = 0;\r\n        }\r\n\r\n        return check;\r\n\r\n    }\r\n\r\n    function CalAT(uint _ProjectID, uint256 _StorageEnd) public view  returns (uint[4] memory){\r\n\r\n        uint[] memory service = StorageProject.getServiceTime(_ProjectID);\r\n        uint a1 = (_StorageEnd - 86400) + (service[0]*3600);\r\n        uint a2 = (_StorageEnd - 86400) + (service[1]*3600);\r\n        uint a3 = (_StorageEnd - 86400) + (service[2]*3600);\r\n        uint a4 = (_StorageEnd - 86400) + (service[3]*3600);\r\n        uint[4] memory _AccessTime = [a1, a2, a3, a4]; \r\n        return _AccessTime;\r\n    }\r\n\r\n    function establishJob(uint _tid, uint _datetime)  internal  {\r\n        \r\n        Job storage target = Jobs[_tid];\r\n        target.Established = 1;\r\n        uint pid = target.ProjectID;\r\n\r\n        uint[] storage joblist = ProjectOwnJobID[pid];\r\n        joblist.push(_tid);\r\n        ProjectOwnJobID[pid] = joblist;\r\n\r\n        uint[] storage ownjob = OwnJobID[target.Participant[1]];\r\n        ownjob.push(_tid);\r\n        OwnJobID[target.Participant[1]] = ownjob;\r\n\r\n        StorageProject.updateProject(pid, target.FileSize, 1 , _datetime);\r\n\r\n    }\r\n\r\n    function UpdateProjectOwnJob(uint _pid, uint _jid, uint _datetime)  public  {\r\n\r\n      uint fsize = getFileSize(_jid);\r\n      uint[] storage joblist = ProjectOwnJobID[_pid];\r\n      uint check = 0 ;\r\n      for(uint i=0 ; i<joblist.length ;i++){\r\n        if(joblist[i]==_jid){\r\n          for (uint j = i; j<joblist.length-1; j++){\r\n            joblist[j] = joblist[j+1];\r\n          }\r\n          delete joblist[joblist.length-1];\r\n          joblist.length--;\r\n          check = 1;\r\n        }\r\n      }\r\n      if(check == 1){\r\n        ProjectOwnJobID[_pid] = joblist;\r\n        StorageProject.updateProject(_pid, fsize, 2, _datetime);\r\n      }     \r\n    }\r\n\r\n    function getJobProject(uint _tid) public view  returns (uint) {\r\n    \r\n    \r\n\t\treturn (Jobs[_tid].ProjectID) ;\r\n\r\n  \t}\r\n\r\n    function getFileID(uint _tid) public view  returns (uint) {\r\n    \r\n    \r\n\t\treturn (Jobs[_tid].FileID) ;\r\n\r\n  \t}\r\n\r\n    function getFileSize(uint _tid) public view  returns (uint) {\r\n    \r\n    \r\n\t\treturn (Jobs[_tid].FileSize) ;\r\n\r\n  \t}\r\n\r\n    function getJobhash(uint _tid) public view  returns (string memory) {\r\n    \r\n    \r\n\t\treturn (Jobs[_tid].hash) ;\r\n\r\n  \t}\r\n\r\n    function getStorageStart(uint _tid) public view  returns (uint256) {\r\n    \r\n\t\treturn (Jobs[_tid].StorageStart) ;\r\n\r\n  \t}\r\n\r\n    function getStorageEnd(uint _tid) public view  returns (uint256) {\r\n    \r\n\t\treturn (Jobs[_tid].StorageEnd) ;\r\n\r\n  \t}\r\n\r\n    function getAccessTime(uint _tid) public view  returns (uint256[4] memory) {\r\n    \r\n\t\treturn (Jobs[_tid].AccessTime) ;\r\n\r\n  \t}\r\n\r\n    function getParticipant(uint _tid) public view  returns (address payable [2] memory) {\r\n    \r\n\t\treturn (Jobs[_tid].Participant) ;\r\n\r\n  \t}\r\n\r\n\r\n\r\n    function getEstablished(uint _tid) public view  returns (uint) {\r\n    \r\n\t\treturn (Jobs[_tid].Established) ;\r\n\r\n  \t}\r\n\r\n    function getProjectOwnJobID(uint _pid) public view  returns (uint[] memory) {\r\n       \r\n\t\treturn ProjectOwnJobID[_pid];\r\n\r\n  \t}\r\n\r\n    function getOwnJobID(address _owner) public view  returns (uint[] memory) {\r\n       \r\n\t\treturn OwnJobID[_owner];\r\n\r\n  \t}\r\n\r\n    function getjobid(address _owner) public view  returns (uint) {\r\n\r\n\t\t    return (Jobidnow[_owner]) ;\r\n\r\n  \t}\r\n\r\n    function ctestjob(address payable _user2) public  {\r\n\r\n        address payable _user1 = StorageProject.getProjectOwner(0);\r\n        uint256 A1 = 1662685200 ;\r\n        uint256 A2 = 1662706800 ;\r\n        uint256 A34 = 1662652800 ;\r\n        uint256[4] memory ATA = [A1, A2, A34, A34];\r\n\r\n        uint id1 = Jobs.push(Job(0, [_user2, _user1], 0, 10, \"QmbAUd65kT5LtEiqpe6uxmicX4KH5qHxs5jnCQbccG27mH\", 1661994000, 1662739200, ATA, 1)) - 1;\r\n        uint id2 = Jobs.push(Job(0, [_user2, _user1], 1, 10, \"QmbAUd65kT5LtEiqpe6uxmicX4KH5qHxs5jnCQbccG27mH\", 1661994000, 1662739200, ATA, 1)) - 1;\r\n        uint id3 = Jobs.push(Job(0, [_user2, _user1], 2, 10, \"QmbAUd65kT5LtEiqpe6uxmicX4KH5qHxs5jnCQbccG27mH\", 1661994000, 1662739200, ATA, 1)) - 1;\r\n\r\n        OwnJobID[_user1] = [0,1,2];\r\n        OwnJobID[_user2] = [0,1,2];\r\n        ProjectOwnJobID[0] = [0,1,2];\r\n\r\n\r\n    }\r\n\r\n    \r\n\r\n}\r\n",
  "sourcePath": "C:\\Users\\\\demo1\\contracts\\StorageJob.sol",
  "compiler": {
    "name": "solc",
    "version": "0.5.16+commit.9c3226ce.Emscripten.clang"
  },
  "schemaVersion": "3.4.8",
  "updatedAt": "2023-01-29T21:13:27.776Z",
  "devdoc": {
    "methods": {}
  },
  "userdoc": {
    "methods": {}
  }
}