{
  "contractName": "StorageProject",
  "abi": [
    {
      "constant": true,
      "inputs": [
        {
          "internalType": "address",
          "name": "",
          "type": "address"
        }
      ],
      "name": "DLRcheck",
      "outputs": [
        {
          "internalType": "uint256",
          "name": "",
          "type": "uint256"
        }
      ],
      "payable": false,
      "stateMutability": "view",
      "type": "function"
    },
    {
      "constant": true,
      "inputs": [
        {
          "internalType": "address",
          "name": "",
          "type": "address"
        },
        {
          "internalType": "uint256",
          "name": "",
          "type": "uint256"
        }
      ],
      "name": "OwnProjectID",
      "outputs": [
        {
          "internalType": "uint256",
          "name": "",
          "type": "uint256"
        }
      ],
      "payable": false,
      "stateMutability": "view",
      "type": "function"
    },
    {
      "constant": false,
      "inputs": [
        {
          "internalType": "string",
          "name": "_name",
          "type": "string"
        },
        {
          "internalType": "address",
          "name": "_uploader",
          "type": "address"
        },
        {
          "internalType": "string",
          "name": "_keyword",
          "type": "string"
        },
        {
          "internalType": "uint256",
          "name": "_filesize",
          "type": "uint256"
        },
        {
          "internalType": "string",
          "name": "_hash",
          "type": "string"
        },
        {
          "internalType": "uint256",
          "name": "_sharetype",
          "type": "uint256"
        },
        {
          "internalType": "address[]",
          "name": "_shareaddress",
          "type": "address[]"
        },
        {
          "internalType": "uint256",
          "name": "_cryptoid",
          "type": "uint256"
        }
      ],
      "name": "createinfo",
      "outputs": [],
      "payable": false,
      "stateMutability": "nonpayable",
      "type": "function"
    },
    {
      "constant": false,
      "inputs": [
        {
          "internalType": "address payable",
          "name": "_user3",
          "type": "address"
        }
      ],
      "name": "ctestlog",
      "outputs": [],
      "payable": false,
      "stateMutability": "nonpayable",
      "type": "function"
    },
    {
      "constant": false,
      "inputs": [
        {
          "internalType": "uint256",
          "name": "_fid",
          "type": "uint256"
        }
      ],
      "name": "deletefile",
      "outputs": [],
      "payable": false,
      "stateMutability": "nonpayable",
      "type": "function"
    },
    {
      "constant": true,
      "inputs": [
        {
          "internalType": "address",
          "name": "",
          "type": "address"
        }
      ],
      "name": "fileidnow",
      "outputs": [
        {
          "internalType": "uint256",
          "name": "",
          "type": "uint256"
        }
      ],
      "payable": false,
      "stateMutability": "view",
      "type": "function"
    },
    {
      "constant": true,
      "inputs": [
        {
          "internalType": "uint256",
          "name": "",
          "type": "uint256"
        },
        {
          "internalType": "uint256",
          "name": "",
          "type": "uint256"
        }
      ],
      "name": "fileidtolog",
      "outputs": [
        {
          "internalType": "uint256",
          "name": "",
          "type": "uint256"
        }
      ],
      "payable": false,
      "stateMutability": "view",
      "type": "function"
    },
    {
      "constant": true,
      "inputs": [],
      "name": "flength",
      "outputs": [
        {
          "internalType": "uint256",
          "name": "",
          "type": "uint256"
        }
      ],
      "payable": false,
      "stateMutability": "view",
      "type": "function"
    },
    {
      "constant": true,
      "inputs": [
        {
          "internalType": "uint256",
          "name": "_id",
          "type": "uint256"
        }
      ],
      "name": "getaddr",
      "outputs": [
        {
          "internalType": "address",
          "name": "",
          "type": "address"
        }
      ],
      "payable": false,
      "stateMutability": "view",
      "type": "function"
    },
    {
      "constant": true,
      "inputs": [
        {
          "internalType": "uint256",
          "name": "_id",
          "type": "uint256"
        }
      ],
      "name": "getcrypto",
      "outputs": [
        {
          "internalType": "uint256",
          "name": "",
          "type": "uint256"
        }
      ],
      "payable": false,
      "stateMutability": "view",
      "type": "function"
    },
    {
      "constant": true,
      "inputs": [
        {
          "internalType": "uint256",
          "name": "_logid",
          "type": "uint256"
        }
      ],
      "name": "getdlresult",
      "outputs": [
        {
          "internalType": "uint256",
          "name": "",
          "type": "uint256"
        }
      ],
      "payable": false,
      "stateMutability": "view",
      "type": "function"
    },
    {
      "constant": true,
      "inputs": [
        {
          "internalType": "uint256",
          "name": "_fid",
          "type": "uint256"
        }
      ],
      "name": "getfileidtolog",
      "outputs": [
        {
          "internalType": "uint256[]",
          "name": "",
          "type": "uint256[]"
        }
      ],
      "payable": false,
      "stateMutability": "view",
      "type": "function"
    },
    {
      "constant": true,
      "inputs": [
        {
          "internalType": "address",
          "name": "_owner",
          "type": "address"
        }
      ],
      "name": "getidnow",
      "outputs": [
        {
          "internalType": "uint256",
          "name": "",
          "type": "uint256"
        }
      ],
      "payable": false,
      "stateMutability": "view",
      "type": "function"
    },
    {
      "constant": true,
      "inputs": [
        {
          "internalType": "address",
          "name": "_LogUser",
          "type": "address"
        }
      ],
      "name": "getinfocrypto",
      "outputs": [
        {
          "internalType": "uint256",
          "name": "",
          "type": "uint256"
        }
      ],
      "payable": false,
      "stateMutability": "view",
      "type": "function"
    },
    {
      "constant": true,
      "inputs": [
        {
          "internalType": "address",
          "name": "_LogUser",
          "type": "address"
        }
      ],
      "name": "getinfohash",
      "outputs": [
        {
          "internalType": "string",
          "name": "",
          "type": "string"
        }
      ],
      "payable": false,
      "stateMutability": "view",
      "type": "function"
    },
    {
      "constant": true,
      "inputs": [
        {
          "internalType": "uint256",
          "name": "_id",
          "type": "uint256"
        }
      ],
      "name": "getkword",
      "outputs": [
        {
          "internalType": "string",
          "name": "",
          "type": "string"
        }
      ],
      "payable": false,
      "stateMutability": "view",
      "type": "function"
    },
    {
      "constant": true,
      "inputs": [
        {
          "internalType": "uint256",
          "name": "_logid",
          "type": "uint256"
        }
      ],
      "name": "getlogid",
      "outputs": [
        {
          "internalType": "uint256",
          "name": "",
          "type": "uint256"
        }
      ],
      "payable": false,
      "stateMutability": "view",
      "type": "function"
    },
    {
      "constant": true,
      "inputs": [
        {
          "internalType": "uint256",
          "name": "_logid",
          "type": "uint256"
        }
      ],
      "name": "getlogtime",
      "outputs": [
        {
          "internalType": "uint256",
          "name": "",
          "type": "uint256"
        }
      ],
      "payable": false,
      "stateMutability": "view",
      "type": "function"
    },
    {
      "constant": true,
      "inputs": [
        {
          "internalType": "uint256",
          "name": "_logid",
          "type": "uint256"
        }
      ],
      "name": "getlogtype",
      "outputs": [
        {
          "internalType": "uint256",
          "name": "",
          "type": "uint256"
        }
      ],
      "payable": false,
      "stateMutability": "view",
      "type": "function"
    },
    {
      "constant": true,
      "inputs": [
        {
          "internalType": "uint256",
          "name": "_logid",
          "type": "uint256"
        }
      ],
      "name": "getloguser",
      "outputs": [
        {
          "internalType": "address",
          "name": "",
          "type": "address"
        }
      ],
      "payable": false,
      "stateMutability": "view",
      "type": "function"
    },
    {
      "constant": true,
      "inputs": [
        {
          "internalType": "uint256",
          "name": "_id",
          "type": "uint256"
        }
      ],
      "name": "getname",
      "outputs": [
        {
          "internalType": "string",
          "name": "",
          "type": "string"
        }
      ],
      "payable": false,
      "stateMutability": "view",
      "type": "function"
    },
    {
      "constant": true,
      "inputs": [
        {
          "internalType": "address",
          "name": "_owner",
          "type": "address"
        }
      ],
      "name": "getownfile",
      "outputs": [
        {
          "internalType": "uint256[]",
          "name": "",
          "type": "uint256[]"
        }
      ],
      "payable": false,
      "stateMutability": "view",
      "type": "function"
    },
    {
      "constant": true,
      "inputs": [
        {
          "internalType": "uint256",
          "name": "_fid",
          "type": "uint256"
        },
        {
          "internalType": "uint256",
          "name": "_t1",
          "type": "uint256"
        },
        {
          "internalType": "uint256",
          "name": "_t2",
          "type": "uint256"
        },
        {
          "internalType": "uint256",
          "name": "_day",
          "type": "uint256"
        }
      ],
      "name": "getrefundhour",
      "outputs": [
        {
          "internalType": "uint256",
          "name": "",
          "type": "uint256"
        }
      ],
      "payable": false,
      "stateMutability": "view",
      "type": "function"
    },
    {
      "constant": true,
      "inputs": [
        {
          "internalType": "uint256",
          "name": "_id",
          "type": "uint256"
        },
        {
          "internalType": "uint256",
          "name": "_index",
          "type": "uint256"
        }
      ],
      "name": "getshare",
      "outputs": [
        {
          "internalType": "address",
          "name": "",
          "type": "address"
        }
      ],
      "payable": false,
      "stateMutability": "view",
      "type": "function"
    },
    {
      "constant": true,
      "inputs": [
        {
          "internalType": "address",
          "name": "_owner",
          "type": "address"
        }
      ],
      "name": "getsharedfile",
      "outputs": [
        {
          "internalType": "uint256[]",
          "name": "",
          "type": "uint256[]"
        }
      ],
      "payable": false,
      "stateMutability": "view",
      "type": "function"
    },
    {
      "constant": true,
      "inputs": [
        {
          "internalType": "uint256",
          "name": "_id",
          "type": "uint256"
        }
      ],
      "name": "getsharetype",
      "outputs": [
        {
          "internalType": "uint256",
          "name": "",
          "type": "uint256"
        }
      ],
      "payable": false,
      "stateMutability": "view",
      "type": "function"
    },
    {
      "constant": true,
      "inputs": [
        {
          "internalType": "uint256",
          "name": "_id",
          "type": "uint256"
        }
      ],
      "name": "getsize",
      "outputs": [
        {
          "internalType": "uint256",
          "name": "",
          "type": "uint256"
        }
      ],
      "payable": false,
      "stateMutability": "view",
      "type": "function"
    },
    {
      "constant": true,
      "inputs": [
        {
          "internalType": "uint256",
          "name": "_id",
          "type": "uint256"
        }
      ],
      "name": "gettime",
      "outputs": [
        {
          "internalType": "uint256",
          "name": "",
          "type": "uint256"
        }
      ],
      "payable": false,
      "stateMutability": "view",
      "type": "function"
    },
    {
      "constant": true,
      "inputs": [
        {
          "internalType": "address",
          "name": "",
          "type": "address"
        }
      ],
      "name": "loginfonow",
      "outputs": [
        {
          "internalType": "uint256",
          "name": "",
          "type": "uint256"
        }
      ],
      "payable": false,
      "stateMutability": "view",
      "type": "function"
    },
    {
      "constant": true,
      "inputs": [],
      "name": "loglength",
      "outputs": [
        {
          "internalType": "uint256",
          "name": "",
          "type": "uint256"
        }
      ],
      "payable": false,
      "stateMutability": "view",
      "type": "function"
    },
    {
      "constant": true,
      "inputs": [
        {
          "internalType": "address",
          "name": "",
          "type": "address"
        },
        {
          "internalType": "uint256",
          "name": "",
          "type": "uint256"
        }
      ],
      "name": "ownerfile",
      "outputs": [
        {
          "internalType": "uint256",
          "name": "",
          "type": "uint256"
        }
      ],
      "payable": false,
      "stateMutability": "view",
      "type": "function"
    },
    {
      "constant": true,
      "inputs": [
        {
          "internalType": "uint256",
          "name": "_id",
          "type": "uint256"
        }
      ],
      "name": "ownerhash",
      "outputs": [
        {
          "internalType": "string",
          "name": "",
          "type": "string"
        }
      ],
      "payable": false,
      "stateMutability": "view",
      "type": "function"
    },
    {
      "constant": false,
      "inputs": [
        {
          "internalType": "address",
          "name": "_LogUser",
          "type": "address"
        },
        {
          "internalType": "uint256",
          "name": "_DLResult",
          "type": "uint256"
        }
      ],
      "name": "setDLresult",
      "outputs": [],
      "payable": false,
      "stateMutability": "nonpayable",
      "type": "function"
    },
    {
      "constant": false,
      "inputs": [
        {
          "internalType": "uint256",
          "name": "_LogFileId",
          "type": "uint256"
        },
        {
          "internalType": "address",
          "name": "_LogUser",
          "type": "address"
        }
      ],
      "name": "setdownloadlog",
      "outputs": [],
      "payable": false,
      "stateMutability": "nonpayable",
      "type": "function"
    },
    {
      "constant": false,
      "inputs": [
        {
          "internalType": "uint256[]",
          "name": "_LogFileId",
          "type": "uint256[]"
        },
        {
          "internalType": "address",
          "name": "_LogUser",
          "type": "address"
        }
      ],
      "name": "setlog",
      "outputs": [],
      "payable": false,
      "stateMutability": "nonpayable",
      "type": "function"
    },
    {
      "constant": true,
      "inputs": [
        {
          "internalType": "address",
          "name": "",
          "type": "address"
        },
        {
          "internalType": "uint256",
          "name": "",
          "type": "uint256"
        }
      ],
      "name": "sharedfile",
      "outputs": [
        {
          "internalType": "uint256",
          "name": "",
          "type": "uint256"
        }
      ],
      "payable": false,
      "stateMutability": "view",
      "type": "function"
    },
    {
      "constant": false,
      "inputs": [
        {
          "internalType": "uint256",
          "name": "_ProjectType",
          "type": "uint256"
        },
        {
          "internalType": "address payable",
          "name": "_ProjectOwnerID",
          "type": "address"
        },
        {
          "internalType": "uint256",
          "name": "_Capacity",
          "type": "uint256"
        },
        {
          "internalType": "uint256",
          "name": "_Price",
          "type": "uint256"
        },
        {
          "internalType": "uint256[]",
          "name": "_ServiceTime",
          "type": "uint256[]"
        },
        {
          "internalType": "uint256",
          "name": "_ServiceEnd",
          "type": "uint256"
        },
        {
          "internalType": "uint256",
          "name": "_EndStamp",
          "type": "uint256"
        },
        {
          "internalType": "uint256",
          "name": "_Area",
          "type": "uint256"
        }
      ],
      "name": "createProject",
      "outputs": [],
      "payable": false,
      "stateMutability": "nonpayable",
      "type": "function"
    },
    {
      "constant": false,
      "inputs": [
        {
          "internalType": "address",
          "name": "_owner",
          "type": "address"
        }
      ],
      "name": "getownProject",
      "outputs": [
        {
          "internalType": "uint256[]",
          "name": "",
          "type": "uint256[]"
        }
      ],
      "payable": false,
      "stateMutability": "nonpayable",
      "type": "function"
    },
    {
      "constant": true,
      "inputs": [
        {
          "internalType": "uint256",
          "name": "_pid",
          "type": "uint256"
        }
      ],
      "name": "getProjectType",
      "outputs": [
        {
          "internalType": "uint256",
          "name": "",
          "type": "uint256"
        }
      ],
      "payable": false,
      "stateMutability": "view",
      "type": "function"
    },
    {
      "constant": true,
      "inputs": [
        {
          "internalType": "uint256",
          "name": "_pid",
          "type": "uint256"
        }
      ],
      "name": "getCap",
      "outputs": [
        {
          "internalType": "uint256",
          "name": "",
          "type": "uint256"
        }
      ],
      "payable": false,
      "stateMutability": "view",
      "type": "function"
    },
    {
      "constant": true,
      "inputs": [
        {
          "internalType": "uint256",
          "name": "_pid",
          "type": "uint256"
        }
      ],
      "name": "getRemianCap",
      "outputs": [
        {
          "internalType": "uint256",
          "name": "",
          "type": "uint256"
        }
      ],
      "payable": false,
      "stateMutability": "view",
      "type": "function"
    },
    {
      "constant": true,
      "inputs": [
        {
          "internalType": "uint256",
          "name": "_pid",
          "type": "uint256"
        }
      ],
      "name": "getPrice",
      "outputs": [
        {
          "internalType": "uint256",
          "name": "",
          "type": "uint256"
        }
      ],
      "payable": false,
      "stateMutability": "view",
      "type": "function"
    },
    {
      "constant": true,
      "inputs": [
        {
          "internalType": "uint256",
          "name": "_pid",
          "type": "uint256"
        }
      ],
      "name": "getProjectOwner",
      "outputs": [
        {
          "internalType": "address payable",
          "name": "",
          "type": "address"
        }
      ],
      "payable": false,
      "stateMutability": "view",
      "type": "function"
    },
    {
      "constant": true,
      "inputs": [
        {
          "internalType": "uint256",
          "name": "_pid",
          "type": "uint256"
        }
      ],
      "name": "getServiceTime",
      "outputs": [
        {
          "internalType": "uint256[]",
          "name": "",
          "type": "uint256[]"
        }
      ],
      "payable": false,
      "stateMutability": "view",
      "type": "function"
    },
    {
      "constant": true,
      "inputs": [
        {
          "internalType": "uint256",
          "name": "_pid",
          "type": "uint256"
        }
      ],
      "name": "getServiceEnd",
      "outputs": [
        {
          "internalType": "uint256",
          "name": "",
          "type": "uint256"
        }
      ],
      "payable": false,
      "stateMutability": "view",
      "type": "function"
    },
    {
      "constant": true,
      "inputs": [
        {
          "internalType": "uint256",
          "name": "_pid",
          "type": "uint256"
        }
      ],
      "name": "getEndStamp",
      "outputs": [
        {
          "internalType": "uint256",
          "name": "",
          "type": "uint256"
        }
      ],
      "payable": false,
      "stateMutability": "view",
      "type": "function"
    },
    {
      "constant": true,
      "inputs": [
        {
          "internalType": "uint256",
          "name": "_indexID",
          "type": "uint256"
        },
        {
          "internalType": "uint256",
          "name": "_FileSize",
          "type": "uint256"
        },
        {
          "internalType": "uint256",
          "name": "_StorageEnd",
          "type": "uint256"
        },
        {
          "internalType": "uint256",
          "name": "_Area",
          "type": "uint256"
        },
        {
          "internalType": "uint256",
          "name": "_HourNow",
          "type": "uint256"
        }
      ],
      "name": "getAvailable",
      "outputs": [
        {
          "internalType": "uint256",
          "name": "",
          "type": "uint256"
        },
        {
          "internalType": "uint256",
          "name": "",
          "type": "uint256"
        },
        {
          "internalType": "uint256",
          "name": "",
          "type": "uint256"
        },
        {
          "internalType": "uint256[]",
          "name": "",
          "type": "uint256[]"
        },
        {
          "internalType": "uint256",
          "name": "",
          "type": "uint256"
        },
        {
          "internalType": "uint256",
          "name": "",
          "type": "uint256"
        }
      ],
      "payable": false,
      "stateMutability": "view",
      "type": "function"
    },
    {
      "constant": true,
      "inputs": [],
      "name": "Availablelength",
      "outputs": [
        {
          "internalType": "uint256",
          "name": "",
          "type": "uint256"
        }
      ],
      "payable": false,
      "stateMutability": "view",
      "type": "function"
    },
    {
      "constant": false,
      "inputs": [
        {
          "internalType": "address payable",
          "name": "_user1",
          "type": "address"
        },
        {
          "internalType": "uint256[]",
          "name": "_testat",
          "type": "uint256[]"
        }
      ],
      "name": "ctestproject",
      "outputs": [],
      "payable": false,
      "stateMutability": "nonpayable",
      "type": "function"
    }
  ],
  "bytecode": "0x608060405234801561001057600080fd5b5061316c806100206000396000f3fe608060405234801561001057600080fd5b50600436106102ba5760003560e01c806374c626ec11610182578063af535a63116100e9578063d30b2f98116100a2578063e75722301161007c578063e757223014610d2b578063f18c304914610d48578063f5c743b414610d65578063fcd2f5fa14610e33576102ba565b8063d30b2f9814610cda578063da0a829514610cf7578063de57e9b714610cff576102ba565b8063af535a6314610c0e578063b63453ae14610c16578063bef90ade14610c33578063c12ced0c14610c59578063cbfb9dd414610c88578063cc1c503414610cb4576102ba565b806395839f421161013b57806395839f4214610abf57806395a7a54414610ae55780639bfdb26914610b0b5780639f1bb06914610b28578063a0f76f7314610b45578063ad93b23b14610b62576102ba565b806374c626ec1461097457806375112cbb14610991578063774ddf1b146109b757806383cb313f146109d457806392256aec146109f1578063937b482614610a0e576102ba565b80634a176ba5116102265780635f0f38bb116101df5780635f0f38bb1461081f57806360cdb0ff1461083c578063651735431461085957806369d443711461087f5780636e197909146108a557806373d48b63146108c8576102ba565b80634a176ba5146105245780634a8a26df1461055d5780634c7ee854146105835780634dada7b3146105a6578063520f7741146107fa5780635ec8bbc814610817576102ba565b80632249c7c1116102785780632249c7c1146103f4578063276b08c31461041157806329a358241461043757806330ec7e3d1461045457806344a8d93f146104825780634850362a146104f8576102ba565b80627a2138146102bf5780630202ace1146102ee5780630f95a3db1461038057806317aaa74e1461039d5780631d4fa6df146103ba578063223b0af3146103d7575b600080fd5b6102dc600480360360208110156102d557600080fd5b5035610e5f565b60408051918252519081900360200190f35b61030b6004803603602081101561030457600080fd5b5035610e87565b6040805160208082528351818301528351919283929083019185019080838360005b8381101561034557818101518382015260200161032d565b50505050905090810190601f1680156103725780820380516001836020036101000a031916815260200191505b509250505060405180910390f35b6102dc6004803603602081101561039657600080fd5b5035610f35565b6102dc600480360360208110156103b357600080fd5b5035610f5c565b6102dc600480360360208110156103d057600080fd5b5035610f83565b6102dc600480360360208110156103ed57600080fd5b5035610fab565b6102dc6004803603602081101561040a57600080fd5b5035610fd3565b6102dc6004803603602081101561042757600080fd5b50356001600160a01b0316610ffb565b6102dc6004803603602081101561044d57600080fd5b503561100d565b6104806004803603604081101561046a57600080fd5b506001600160a01b03813516906020013561101c565b005b6104a86004803603602081101561049857600080fd5b50356001600160a01b031661109f565b60408051602080825283518183015283519192839290830191858101910280838360005b838110156104e45781810151838201526020016104cc565b505050509050019250505060405180910390f35b6102dc6004803603604081101561050e57600080fd5b506001600160a01b03813516906020013561110a565b6105416004803603602081101561053a57600080fd5b5035611138565b604080516001600160a01b039092168252519081900360200190f35b6102dc6004803603602081101561057357600080fd5b50356001600160a01b0316611169565b6105416004803603604081101561059957600080fd5b508035906020013561117b565b61048060048036036101008110156105bd57600080fd5b810190602081018135600160201b8111156105d757600080fd5b8201836020820111156105e957600080fd5b803590602001918460018302840111600160201b8311171561060a57600080fd5b91908080601f01602080910402602001604051908101604052809392919081815260200183838082843760009201919091525092956001600160a01b03853516959094909350604081019250602001359050600160201b81111561066d57600080fd5b82018360208201111561067f57600080fd5b803590602001918460018302840111600160201b831117156106a057600080fd5b91908080601f01602080910402602001604051908101604052809392919081815260200183838082843760009201919091525092958435959094909350604081019250602001359050600160201b8111156106fa57600080fd5b82018360208201111561070c57600080fd5b803590602001918460018302840111600160201b8311171561072d57600080fd5b91908080601f01602080910402602001604051908101604052809392919081815260200183838082843760009201919091525092958435959094909350604081019250602001359050600160201b81111561078757600080fd5b82018360208201111561079957600080fd5b803590602001918460208302840111600160201b831117156107ba57600080fd5b91908080602002602001604051908101604052809392919081815260200183836020028082843760009201919091525092955050913592506111ca915050565b6102dc6004803603602081101561081057600080fd5b50356115e6565b6102dc61160e565b6104a86004803603602081101561083557600080fd5b5035611615565b6102dc6004803603602081101561085257600080fd5b5035611675565b6104a86004803603602081101561086f57600080fd5b50356001600160a01b031661169c565b6104a86004803603602081101561089557600080fd5b50356001600160a01b0316611706565b6102dc600480360360408110156108bb57600080fd5b5080359060200135611770565b610480600480360360408110156108de57600080fd5b810190602081018135600160201b8111156108f857600080fd5b82018360208201111561090a57600080fd5b803590602001918460208302840111600160201b8311171561092b57600080fd5b919080806020026020016040519081016040528093929190818152602001838360200280828437600092019190915250929550505090356001600160a01b031691506117899050565b6104806004803603602081101561098a57600080fd5b50356118fb565b6102dc600480360360208110156109a757600080fd5b50356001600160a01b03166119c9565b6104a8600480360360208110156109cd57600080fd5b50356119db565b61030b600480360360208110156109ea57600080fd5b5035611a4f565b61054160048036036020811015610a0757600080fd5b5035611afe565b61048060048036036040811015610a2457600080fd5b6001600160a01b038235169190810190604081016020820135600160201b811115610a4e57600080fd5b820183602082011115610a6057600080fd5b803590602001918460208302840111600160201b83111715610a8157600080fd5b919080806020026020016040519081016040528093929190818152602001838360200280828437600092019190915250929550611b0d945050505050565b61048060048036036020811015610ad557600080fd5b50356001600160a01b0316611cea565b61030b60048036036020811015610afb57600080fd5b50356001600160a01b0316612192565b6102dc60048036036020811015610b2157600080fd5b50356121e6565b6102dc60048036036020811015610b3e57600080fd5b50356121f4565b61030b60048036036020811015610b5b57600080fd5b503561221c565b610b97600480360360a0811015610b7857600080fd5b5080359060208101359060408101359060608101359060800135612298565b6040518087815260200186815260200185815260200180602001848152602001838152602001828103825285818151815260200191508051906020019060200280838360005b83811015610bf5578181015183820152602001610bdd565b5050505090500197505050505050505060405180910390f35b6102dc612429565b6102dc60048036036020811015610c2c57600080fd5b503561242f565b6102dc60048036036020811015610c4957600080fd5b50356001600160a01b0316612457565b6102dc60048036036080811015610c6f57600080fd5b5080359060208101359060408101359060600135612472565b61048060048036036040811015610c9e57600080fd5b50803590602001356001600160a01b03166128a2565b6102dc60048036036020811015610cca57600080fd5b50356001600160a01b0316612a28565b6102dc60048036036020811015610cf057600080fd5b5035612a6d565b6102dc612a95565b6102dc60048036036040811015610d1557600080fd5b506001600160a01b038135169060200135612a9b565b6102dc60048036036020811015610d4157600080fd5b5035612ab4565b61054160048036036020811015610d5e57600080fd5b5035612ac3565b6104806004803603610100811015610d7c57600080fd5b8135916001600160a01b036020820135169160408201359160608101359181019060a081016080820135600160201b811115610db757600080fd5b820183602082011115610dc957600080fd5b803590602001918460208302840111600160201b83111715610dea57600080fd5b9190808060200260200160405190810160405280939291908181526020018383602002808284376000920191909152509295505082359350505060208101359060400135612af5565b6102dc60048036036040811015610e4957600080fd5b506001600160a01b038135169060200135612ed3565b600060088281548110610e6e57fe5b9060005260206000209060090201600701549050919050565b606060008281548110610e9657fe5b6000918252602091829020600990910201805460408051601f6002600019610100600187161502019094169390930492830185900485028101850190915281815292830182828015610f295780601f10610efe57610100808354040283529160200191610f29565b820191906000526020600020905b815481529060010190602001808311610f0c57829003601f168201915b50505050509050919050565b6000808281548110610f4357fe5b9060005260206000209060090201600401549050919050565b6000808281548110610f6a57fe5b9060005260206000209060090201600601549050919050565b600060048281548110610f9257fe5b9060005260206000209060050201600201549050919050565b600060088281548110610fba57fe5b9060005260206000209060090201600301549050919050565b600060088281548110610fe257fe5b9060005260206000209060090201600201549050919050565b60036020526000908152604090205481565b600060088281548110610f6a57fe5b6001600160a01b03821660009081526007602052604090205460011461104157600080fd5b6001600160a01b038216600090815260066020526040812054600480549192918390811061106b57fe5b60009182526020808320600460059093020191909101949094556001600160a01b0390941684525050600790526040812055565b6001600160a01b038116600090815260016020908152604091829020805483518184028101840190945280845260609392830182828015610f2957602002820191906000526020600020905b8154815260200190600101908083116110eb5750505050509050919050565b600a602052816000526040600020818154811061112357fe5b90600052602060002001600091509150505481565b600080828154811061114657fe5b60009182526020909120600990910201600101546001600160a01b031692915050565b60076020526000908152604090205481565b6000806000848154811061118b57fe5b9060005260206000209060090201905060008160070184815481106111ac57fe5b6000918252602090912001546001600160a01b031695945050505050565b60408051610120810182528981526001600160a01b03891660208083019190915291810188905242606082018190526080820188905260a0820187905260c0820186905260e08201859052610100820184905260008054600181810180845583805285518051959794969295919492936009027f290decd9548b62a8d60345a988386fc84ba6bc95484008f6362f93160ef3e563019261126f92849290910190612efb565b506020828101516001830180546001600160a01b0319166001600160a01b03909216919091179055604083015180516112ae9260028501920190612efb565b50606082015160038201556080820151600482015560a082015180516112de916005840191602090910190612efb565b5060c0820151600682015560e08201518051611304916007840191602090910190612f79565b5061010091909101516008909101556001600160a01b038b166000818152600160208181526040832080549283018155808452908320959094039401849055528054919250906113579082908190612fda565b5085600314156115be578460018151811061136e57fe5b60200260200101516001600160a01b03168a6001600160a01b03161461142957600060026000876001815181106113a157fe5b6020908102919091018101516001600160a01b031682528181019290925260400160009081208054600181810183558284529383200186905588519093508392600292918a919081106113f057fe5b60200260200101516001600160a01b03166001600160a01b03168152602001908152602001600020908054611426929190612fda565b50505b8460028151811061143657fe5b60200260200101516001600160a01b03168a6001600160a01b0316146114f3576000600260008760028151811061146957fe5b6020908102919091018101516001600160a01b03168252818101929092526040016000908120805460018101825581835292822090920185905587519192508291600291908990839081106114ba57fe5b60200260200101516001600160a01b03166001600160a01b031681526020019081526020016000209080546114f0929190612fda565b50505b8460038151811061150057fe5b60200260200101516001600160a01b03168a6001600160a01b0316146115be576000600260008760038151811061153357fe5b6020908102919091018101516001600160a01b03168252818101929092526040016000908120805460018101825581835292822090920185905587519192508291600291908990600390811061158557fe5b60200260200101516001600160a01b03166001600160a01b031681526020019081526020016000209080546115bb929190612fda565b50505b506001600160a01b039098166000908152600360205260409020979097555050505050505050565b6000600882815481106115f557fe5b9060005260206000209060090201600001549050919050565b6004545b90565b600081815260056020908152604091829020805483518184028101840190945280845260609392830182828015610f2957602002820191906000526020600020908154815260200190600101908083116110eb5750505050509050919050565b600080828154811061168357fe5b9060005260206000209060090201600801549050919050565b6001600160a01b038116600090815260026020908152604091829020805483518184028101840190945280845260609392830182828015610f2957602002820191906000526020600020908154815260200190600101908083116110eb5750505050509050919050565b6001600160a01b0381166000908152600a6020908152604091829020805483518184028101840190945280845260609392830182828015610f2957602002820191906000526020600020908154815260200190600101908083116110eb5750505050509050919050565b6005602052816000526040600020818154811061112357fe5b4260005b60058110156118f5578381815181106117a257fe5b6020026020010151600114156118ed576000600160046040518060a001604052808886600501815181106117d257fe5b60209081029190910181015182526001600160a01b038981168383015260408084018a9052600160608086018290526000608096870181905288548084018a5598815285812088516005808c029092019081559689015187850180546001600160a01b0319169190971617909555928701516002860155860151600385015594909301516004909201919091558951949093039091019350918290889086840190811061187b57fe5b60209081029190910181015182528181019290925260400160009081208054600181018255818352928220909201849055875191925082916005919089908784019081106118c557fe5b602002602001015181526020019081526020016000209080546118e9929190612fda565b5050505b60010161178d565b50505050565b600080828154811061190957fe5b6000918252602090912060099091020160018101549091506001600160a01b0316331461193557600080fd5b6000828154811061194257fe5b6000918252602082206009909102019061195c828261301a565b6001820180546001600160a01b031916905561197c60028301600061301a565b6003820160009055600482016000905560058201600061199c919061301a565b60068201600090556007820160006119b49190613061565b50600060089190910181905560069091015550565b60066020526000908152604090205481565b6060600882815481106119ea57fe5b9060005260206000209060090201600501805480602002602001604051908101604052809291908181526020018280548015610f2957602002820191906000526020600020908154815260200190600101908083116110eb5750505050509050919050565b606060008281548110611a5e57fe5b60009182526020909120600990910201600101546001600160a01b03163314611a8657600080fd5b60008281548110611a9357fe5b6000918252602091829020600560099092020101805460408051601f6002600019610100600187161502019094169390930492830185900485028101850190915281815292830182828015610f295780601f10610efe57610100808354040283529160200191610f29565b60006008828154811061114657fe5b604080516101208101825260028082526001600160a01b0385811660208085019182526103e89585019586526103ca606086019081526080860194855260a086018881526301348bf860c0880152636328920060e0880152600161010088018190526008805480830180835560009283528a517ff3f7a9fe364faab93b216da50a3214154f22a0a2b415b23a84c8169e8b636ee3600990930292830190815597517ff3f7a9fe364faab93b216da50a3214154f22a0a2b415b23a84c8169e8b636ee4830180546001600160a01b03191691909a161790985599517ff3f7a9fe364faab93b216da50a3214154f22a0a2b415b23a84c8169e8b636ee58b015592517ff3f7a9fe364faab93b216da50a3214154f22a0a2b415b23a84c8169e8b636ee68a015595517ff3f7a9fe364faab93b216da50a3214154f22a0a2b415b23a84c8169e8b636ee7890155518051919795969495611c91937ff3f7a9fe364faab93b216da50a3214154f22a0a2b415b23a84c8169e8b636ee89091019291019061307f565b5060c0820151600682015560e08201516007820155610100909101516008909101556040805160208082018352939092038083526001600160a01b0387166000908152600a90945292209192506118f59190600161307f565b6000600160046040518060a0016040528060008152602001856001600160a01b031681526020016363143ee08152602001600281526020016001815250908060018154018082558091505090600182039060005260206000209060050201600090919290919091506000820151816000015560208201518160010160006101000a8154816001600160a01b0302191690836001600160a01b0316021790555060408201518160020155606082015181600301556080820151816004015550500390506000600160046040518060a0016040528060008152602001866001600160a01b0316815260200163631445e88152602001600281526020016002815250908060018154018082558091505090600182039060005260206000209060050201600090919290919091506000820151816000015560208201518160010160006101000a8154816001600160a01b0302191690836001600160a01b0316021790555060408201518160020155606082015181600301556080820151816004015550500390506000600160046040518060a0016040528060008152602001876001600160a01b0316815260200163631574408152602001600281526020016001815250908060018154018082558091505090600182039060005260206000209060050201600090919290919091506000820151816000015560208201518160010160006101000a8154816001600160a01b0302191690836001600160a01b0316021790555060408201518160020155606082015181600301556080820151816004015550500390506000600160046040518060a0016040528060008152602001886001600160a01b0316815260200163631582508152602001600281526020016002815250908060018154018082558091505090600182039060005260206000209060050201600090919290919091506000820151816000015560208201518160010160006101000a8154816001600160a01b0302191690836001600160a01b0316021790555060408201518160020155606082015181600301556080820151816004015550500390506000600160046040518060a0016040528060008152602001896001600160a01b03168152602001636316b7b08152602001600281526020016002815250908060018154018082558091505090600182039060005260206000209060050201600090919290919091506000820151816000015560208201518160010160006101000a8154816001600160a01b0302191690836001600160a01b0316021790555060408201518160020155606082015181600301556080820151816004015550500390506040518060400160405280600060ff168152602001600160ff16815250600560008081526020019081526020016000209060026120f29291906130b9565b506040805180820190915260028082526003602080840191909152600160005260059052612141917f1471eb6eb2c5e789fc3de43f8ce62938c7d1836ec861730447e2ada8fd81017b916130b9565b506040805160208082019092526004815260026000526005909152612189907f89832631fb3c3307a103ba2c84ab569c64d6182a18893dcd163f0f1c2090733a9060016130b9565b50505050505050565b6001600160a01b038116600090815260066020526040812054600480546060939190839081106121be57fe5b906000526020600020906005020160000154905060606121dd82612eec565b95945050505050565b6000808281548110610fba57fe5b60006004828154811061220357fe5b9060005260206000209060050201600401549050919050565b60606000828154811061222b57fe5b600091825260209182902060026009909202018101805460408051601f600019610100600186161502019093169490940491820185900485028401850190528083529192909190830182828015610f295780601f10610efe57610100808354040283529160200191610f29565b60008060006060600080600060098c815481106122b157fe5b906000526020600020906006020190508a816001015410156122d257600080fd5b89816004015410156122e357600080fd5b888160050154146122f357600080fd5b60008090508160030160008154811061230857fe5b9060005260206000200154891015801561233c57508160030160018154811061232d57fe5b90600052602060002001548911155b15612345575060015b8160030160028154811061235557fe5b9060005260206000200154891015801561238957508160030160038154811061237a57fe5b90600052602060002001548911155b15612392575060015b8060011461239f57600080fd5b81600001548260010154836002015484600301856004015486600501548280548060200260200160405190810160405280929190818152602001828054801561240757602002820191906000526020600020905b8154815260200190600101908083116123f3575b5050505050925097509750975097509750975050509550955095509550955095565b60005490565b60006004828154811061243e57fe5b9060005260206000209060050201600001549050919050565b6001600160a01b031660009081526003602052604090205490565b600084815260056020526040812062015180830280860390850383805b84548110156128955760048582815481106124a657fe5b9060005260206000200154815481106124bb57fe5b9060005260206000209060050201600401546002141561288d5760008080805b8a60010181101561288157806201518002880160048a87815481106124fc57fe5b90600052602060002001548154811061251157fe5b9060005260206000209060050201600201541015801561256c5750806201518002870160048a878154811061254257fe5b90600052602060002001548154811061255757fe5b90600052602060002090600502016002015411155b156128795760009350610e1088880304925060015b836001018110156125e85780610e10028262015180028a010160048b88815481106125a857fe5b9060005260206000200154815481106125bd57fe5b90600052602060002090600502016002015410156125e057600019019150600183015b600101612581565b50841580159061262f5750600489600187038154811061260457fe5b90600052602060002001548154811061261957fe5b9060005260206000209060050201600401546001145b156127005760015b836001018110156126fe57816201518002890160048b600189038154811061265b57fe5b90600052602060002001548154811061267057fe5b906000526020600020906005020160020154101580156126d3575080610e10028262015180028a010160048b60018903815481106126aa57fe5b9060005260206000200154815481106126bf57fe5b906000526020600020906005020160020154105b156126f65760001981019450828514156126f05760009450600093505b50600183015b600101612637565b505b60015b895486900381101561287257816201518002880160048b8389018154811061272757fe5b90600052602060002001548154811061273c57fe5b906000526020600020906005020160020154116128665760048a8288018154811061276357fe5b90600052602060002001548154811061277857fe5b9060005260206000209060050201600401546002141561279d57600190950194600019015b60048a828801815481106127ad57fe5b9060005260206000200154815481106127c257fe5b906000526020600020906005020160040154600114156128615760015b8460010181101561285f5780610e10028362015180028b010160048c848a018154811061280857fe5b90600052602060002001548154811061281d57fe5b9060005260206000209060050201600201541015612857578a54600019820195509150838514156128515760009550600094505b50600184015b6001016127df565b505b61286a565b5088545b600101612703565b505060018a015b6001016124db565b50828286010394505050505b60010161248f565b5098975050505050505050565b6040805160a0810182528381526001600160a01b03808416602080840191825242848601818152600260608701908152600160808801818152600480548084018255600091825299516005808c027f8a35acfbc15ff81a39ae7d344fd709f28e8600b4aa8c65c6b64bfe7fe36bd19b81019290925598517f8a35acfbc15ff81a39ae7d344fd709f28e8600b4aa8c65c6b64bfe7fe36bd19c8201805491909b166001600160a01b03199091161790995593517f8a35acfbc15ff81a39ae7d344fd709f28e8600b4aa8c65c6b64bfe7fe36bd19d89015591517f8a35acfbc15ff81a39ae7d344fd709f28e8600b4aa8c65c6b64bfe7fe36bd19e88015590517f8a35acfbc15ff81a39ae7d344fd709f28e8600b4aa8c65c6b64bfe7fe36bd19f909601959095558881529282529482208054938401815580835290822090920183905585905280546129f69082908190612fda565b50506001600160a01b039092166000908152600660209081526040808320949094556007905291909120600190555050565b6001600160a01b0381166000908152600660205260408120546004805483919083908110612a5257fe5b6000918252602082206005909102015491506121dd82611675565b600060048281548110612a7c57fe5b9060005260206000209060050201600301549050919050565b60095490565b6001602052816000526040600020818154811061112357fe5b600060088281548110610f4357fe5b600060048281548110612ad257fe5b60009182526020909120600590910201600101546001600160a01b031692915050565b6001600160a01b0387166000908152600a60205260409020805415612b62576000600882600184805490500381548110612b2b57fe5b906000526020600020015481548110612b4057fe5b9060005260206000209060090201905042816007015410612b6057600080fd5b505b60008711612b6f57600080fd5b88600114612be15784600081518110612b8457fe5b602002602001015185600181518110612b9957fe5b60200260200101511015612bac57600080fd5b84600281518110612bb957fe5b602002602001015185600381518110612bce57fe5b60200260200101511015612be157600080fd5b60408051610120810182528a81526001600160a01b03808b1660208084019182529383018b8152606084018c8152608085018c815260a086018c815260c087018c905260e087018b905261010087018a905260088054600181810180845560009384528a5160099093027ff3f7a9fe364faab93b216da50a3214154f22a0a2b415b23a84c8169e8b636ee3810193845598517ff3f7a9fe364faab93b216da50a3214154f22a0a2b415b23a84c8169e8b636ee48a01805491909b166001600160a01b03199091161790995595517ff3f7a9fe364faab93b216da50a3214154f22a0a2b415b23a84c8169e8b636ee588015593517ff3f7a9fe364faab93b216da50a3214154f22a0a2b415b23a84c8169e8b636ee687015591517ff3f7a9fe364faab93b216da50a3214154f22a0a2b415b23a84c8169e8b636ee78601555180518f989297949695612d58937ff3f7a9fe364faab93b216da50a3214154f22a0a2b415b23a84c8169e8b636ee890910192019061307f565b5060c0820151600682015560e082015160078201556101009091015160089091015584546001810186556000868152602080822094909303939091018390556001600160a01b038d168152600a909152604090208454919250612dbc918590612fda565b506040805160c08101825282815260208082018581529282018b8152606083018b8152608084018b905260a084018990526009805460018101808355600092909252855160069091027f6e1540171b6c0c960b71a7020d9f60077f6af931a8bbf590da0223dacf75c7af810191825596517f6e1540171b6c0c960b71a7020d9f60077f6af931a8bbf590da0223dacf75c7b088015592517f6e1540171b6c0c960b71a7020d9f60077f6af931a8bbf590da0223dacf75c7b18701559051805191959293612eae937f6e1540171b6c0c960b71a7020d9f60077f6af931a8bbf590da0223dacf75c7b2019291019061307f565b506080820151816004015560a082015181600501555050505050505050505050505050565b6002602052816000526040600020818154811061112357fe5b606060008281548110611a9357fe5b828054600181600116156101000203166002900490600052602060002090601f016020900481019282601f10612f3c57805160ff1916838001178555612f69565b82800160010185558215612f69579182015b82811115612f69578251825591602001919060010190612f4e565b50612f759291506130f9565b5090565b828054828255906000526020600020908101928215612fce579160200282015b82811115612fce57825182546001600160a01b0319166001600160a01b03909116178255602090920191600190910190612f99565b50612f75929150613113565b828054828255906000526020600020908101928215612f695760005260206000209182015b82811115612f69578254825591600101919060010190612fff565b50805460018160011615610100020316600290046000825580601f10613040575061305e565b601f01602090049060005260206000209081019061305e91906130f9565b50565b508054600082559060005260206000209081019061305e91906130f9565b828054828255906000526020600020908101928215612f695791602002820182811115612f69578251825591602001919060010190612f4e565b828054828255906000526020600020908101928215612f69579160200282015b82811115612f69578251829060ff169055916020019190600101906130d9565b61161291905b80821115612f7557600081556001016130ff565b61161291905b80821115612f755780546001600160a01b031916815560010161311956fea265627a7a7231582027935d7560744324c6857d9e3b0a6294cb69ebc19ab7f120de437ce8fa0059fa64736f6c63430005100032",
  "source": "pragma solidity >=0.4.21 <0.7.0;\r\n\r\nimport \"./FileLog.sol\";\r\n\r\ncontract StorageProject is FileLog {\r\n\r\n    struct Project{\r\n        \r\n        uint ProjectType;\r\n        address payable ProjectOwnerID;\r\n        uint Capacity;\r\n        uint RemainCap;\r\n        uint Price;\r\n        uint[] ServiceTime;\r\n        uint ServiceEnd;\r\n        uint256 EndStamp;\r\n        uint Area;\r\n        \r\n    }\r\n\r\n    struct AvailableProject{\r\n        \r\n        uint ProjectID;\r\n        uint RemainCap;\r\n        uint Price;\r\n        uint[] ServiceTime;\r\n        uint ServiceEnd;\r\n        uint Area;\r\n\r\n    }\r\n\r\n    Project[] internal Projects;\r\n    AvailableProject[] internal AvailableProjects;\r\n    mapping (address => uint[]) public OwnProjectID;\r\n\r\n    function createProject(uint _ProjectType, address payable _ProjectOwnerID, uint _Capacity, uint _Price, uint[] memory _ServiceTime, uint _ServiceEnd, uint256 _EndStamp, uint _Area ) public  {\r\n\r\n        uint[] storage ownproject = OwnProjectID[_ProjectOwnerID];\r\n        if(ownproject.length > 0){\r\n            Project storage target = Projects[ownproject[ownproject.length-1]];\r\n            require(target.EndStamp < now );\r\n\r\n        }\r\n        require(_Capacity > 0);\r\n        if(_ProjectType != 1){\r\n            require(_ServiceTime[1] >= _ServiceTime[0]);\r\n            require(_ServiceTime[3] >= _ServiceTime[2]);\r\n        } \r\n        uint _RemainCap = _Capacity;\r\n\r\n        uint id = Projects.push(Project(_ProjectType, _ProjectOwnerID, _Capacity, _RemainCap, _Price, _ServiceTime, _ServiceEnd, _EndStamp, _Area )) - 1;\r\n        ownproject.push(id);\r\n        OwnProjectID[_ProjectOwnerID] = ownproject;\r\n        AvailableProjects.push(AvailableProject(id, _RemainCap, _Price, _ServiceTime, _ServiceEnd, _Area));\r\n\r\n    }\r\n\r\n    function updateProject(uint _pid, uint _usecap, uint _plusminus, uint _nowdate) internal  {\r\n\r\n\r\n        Project storage target = Projects[_pid];\r\n        uint cap = target.RemainCap;\r\n        uint capcheck = 0; \r\n        if(cap < 1){\r\n            capcheck = 1;\r\n        }\r\n        if(_plusminus == 1){\r\n            cap = cap - _usecap;\r\n            if(cap < 1){\r\n                capcheck = 2;\r\n            }\r\n        }else{\r\n            cap = cap + _usecap;\r\n        }\r\n\r\n        target.RemainCap = cap;\r\n        if(capcheck == 1){\r\n            AvailableProjects.push(AvailableProject(_pid, target.RemainCap, target.Price, target.ServiceTime, target.ServiceEnd, target.Area));\r\n        }\r\n\r\n        for(uint i = 0; i < AvailableProjects.length;){\r\n\r\n            AvailableProject storage target2 = AvailableProjects[i];\r\n            uint256 PEND = Projects[target2.ProjectID].EndStamp;\r\n            uint j = 0;\r\n\r\n            if(target2.ProjectID == _pid){\r\n                target2.RemainCap = cap;\r\n                if(capcheck == 2){\r\n                    for (uint k = i; k<AvailableProjects.length-1; k++){\r\n                        AvailableProjects[k] = AvailableProjects[k+1];\r\n                    }\r\n                    delete AvailableProjects[AvailableProjects.length-1];\r\n                    AvailableProjects.length--;\r\n                    j = 1;\r\n                }\r\n\r\n            }\r\n\r\n            if(PEND < now){\r\n                    for (uint k = i; k<AvailableProjects.length-1; k++){\r\n                        AvailableProjects[k] = AvailableProjects[k+1];\r\n                    }\r\n                    delete AvailableProjects[AvailableProjects.length-1];\r\n                    AvailableProjects.length--;\r\n                    j = 1;\r\n            }\r\n\r\n            i = i + 1 - j;\r\n        }\r\n        \r\n        \r\n\r\n    }\r\n\r\n    function getownProject(address _owner) public  returns (uint[] memory){\r\n        return OwnProjectID[_owner];\r\n    }\r\n\r\n    function getProjectType(uint _pid) public view  returns (uint) {\r\n    \r\n    \r\n\t\treturn (Projects[_pid].ProjectType) ;\r\n\r\n  \t}\r\n    \r\n    function getCap(uint _pid) public view  returns (uint) {\r\n       \r\n\t\treturn (Projects[_pid].Capacity) ;\r\n\r\n  \t}\r\n\r\n    function getRemianCap(uint _pid) public view  returns (uint) {\r\n    \r\n\t\treturn (Projects[_pid].RemainCap) ;\r\n\r\n  \t}\r\n\r\n    function getPrice(uint _pid) public view  returns (uint) {\r\n    \r\n\t\treturn (Projects[_pid].Price) ;\r\n\r\n  \t}\r\n\r\n    function getProjectOwner(uint _pid) public view  returns (address payable ) {\r\n    \r\n\t\treturn (Projects[_pid].ProjectOwnerID) ;\r\n\r\n  \t}\r\n\r\n    function getServiceTime(uint _pid) public view  returns (uint[] memory) {\r\n    \r\n\t\treturn (Projects[_pid].ServiceTime) ;\r\n\r\n  \t}\r\n\r\n    function getServiceEnd(uint _pid) public view  returns (uint) {\r\n    \r\n\t\treturn (Projects[_pid].ServiceEnd) ;\r\n\r\n  \t}\r\n\r\n    function getEndStamp(uint _pid) public view  returns (uint) {\r\n    \r\n\t\treturn (Projects[_pid].EndStamp) ;\r\n\r\n  \t}\r\n\r\n    function getAvailable(uint _indexID, uint _FileSize, uint _StorageEnd, uint _Area, uint _HourNow) public view  returns (uint, uint, uint, uint[] memory, uint, uint) {\r\n        \r\n        AvailableProject storage target = AvailableProjects[_indexID];\r\n\r\n        require(target.RemainCap >= _FileSize);\r\n        require(target.ServiceEnd >= _StorageEnd);\r\n        require(target.Area == _Area);\r\n        uint servicecheck = 0;\r\n        if((_HourNow >= target.ServiceTime[0])&&(_HourNow <= target.ServiceTime[1])){\r\n            servicecheck = 1;\r\n        }\r\n        if((_HourNow >= target.ServiceTime[2])&&(_HourNow <= target.ServiceTime[3])){\r\n            servicecheck = 1;\r\n        }\r\n\r\n        require(servicecheck == 1);\r\n\r\n\t\treturn (target.ProjectID, target.RemainCap, target.Price, target.ServiceTime, target.ServiceEnd, target.Area ) ;\r\n\r\n  \t}\r\n\r\n    function Availablelength() public view  returns (uint) {\r\n\r\n\t\t    return (AvailableProjects.length) ;\r\n\r\n  \t}\r\n\r\n    function ctestproject(address payable _user1, uint[] memory _testat) public  {\r\n        \r\n        uint id = Projects.push(Project(2, _user1, 1000, 970, 2, _testat, 20220920, 1663603200 ,1)) - 1;\r\n        OwnProjectID[_user1] = [id];\r\n\r\n    }\r\n\r\n\r\n}\r\n",
  "sourcePath": "C:\\Users\\\\demo1\\contracts\\StorageProject.sol",
  "compiler": {
    "name": "solc",
    "version": "0.5.16+commit.9c3226ce.Emscripten.clang"
  },
  "schemaVersion": "3.4.8",
  "updatedAt": "2023-01-29T21:13:27.789Z",
  "devdoc": {
    "methods": {}
  },
  "userdoc": {
    "methods": {}
  }
}